{
  "contractName": "CozyHome",
  "abi": [
    {
      "inputs": [
        {
          "internalType": "uint256",
          "name": "_percent",
          "type": "uint256"
        }
      ],
      "stateMutability": "nonpayable",
      "type": "constructor"
    },
    {
      "anonymous": false,
      "inputs": [
        {
          "indexed": true,
          "internalType": "address",
          "name": "owner",
          "type": "address"
        },
        {
          "indexed": true,
          "internalType": "address",
          "name": "approved",
          "type": "address"
        },
        {
          "indexed": true,
          "internalType": "uint256",
          "name": "tokenId",
          "type": "uint256"
        }
      ],
      "name": "Approval",
      "type": "event"
    },
    {
      "anonymous": false,
      "inputs": [
        {
          "indexed": true,
          "internalType": "address",
          "name": "owner",
          "type": "address"
        },
        {
          "indexed": true,
          "internalType": "address",
          "name": "operator",
          "type": "address"
        },
        {
          "indexed": false,
          "internalType": "bool",
          "name": "approved",
          "type": "bool"
        }
      ],
      "name": "ApprovalForAll",
      "type": "event"
    },
    {
      "anonymous": false,
      "inputs": [
        {
          "indexed": true,
          "internalType": "address",
          "name": "previousOwner",
          "type": "address"
        },
        {
          "indexed": true,
          "internalType": "address",
          "name": "newOwner",
          "type": "address"
        }
      ],
      "name": "OwnershipTransferred",
      "type": "event"
    },
    {
      "anonymous": false,
      "inputs": [
        {
          "indexed": false,
          "internalType": "address",
          "name": "",
          "type": "address"
        },
        {
          "indexed": false,
          "internalType": "uint256",
          "name": "",
          "type": "uint256"
        }
      ],
      "name": "Received",
      "type": "event"
    },
    {
      "anonymous": false,
      "inputs": [
        {
          "indexed": true,
          "internalType": "address",
          "name": "from",
          "type": "address"
        },
        {
          "indexed": true,
          "internalType": "address",
          "name": "to",
          "type": "address"
        },
        {
          "indexed": true,
          "internalType": "uint256",
          "name": "tokenId",
          "type": "uint256"
        }
      ],
      "name": "Transfer",
      "type": "event"
    },
    {
      "stateMutability": "payable",
      "type": "fallback",
      "payable": true
    },
    {
      "inputs": [
        {
          "internalType": "address",
          "name": "to",
          "type": "address"
        },
        {
          "internalType": "uint256",
          "name": "tokenId",
          "type": "uint256"
        }
      ],
      "name": "approve",
      "outputs": [],
      "stateMutability": "nonpayable",
      "type": "function"
    },
    {
      "inputs": [
        {
          "internalType": "address",
          "name": "owner",
          "type": "address"
        }
      ],
      "name": "balanceOf",
      "outputs": [
        {
          "internalType": "uint256",
          "name": "",
          "type": "uint256"
        }
      ],
      "stateMutability": "view",
      "type": "function",
      "constant": true
    },
    {
      "inputs": [
        {
          "internalType": "uint256",
          "name": "",
          "type": "uint256"
        }
      ],
      "name": "firstOwners",
      "outputs": [
        {
          "internalType": "address",
          "name": "",
          "type": "address"
        }
      ],
      "stateMutability": "view",
      "type": "function",
      "constant": true
    },
    {
      "inputs": [],
      "name": "flor_price_pre_sale",
      "outputs": [
        {
          "internalType": "uint256",
          "name": "",
          "type": "uint256"
        }
      ],
      "stateMutability": "view",
      "type": "function",
      "constant": true
    },
    {
      "inputs": [
        {
          "internalType": "uint256",
          "name": "tokenId",
          "type": "uint256"
        }
      ],
      "name": "getApproved",
      "outputs": [
        {
          "internalType": "address",
          "name": "",
          "type": "address"
        }
      ],
      "stateMutability": "view",
      "type": "function",
      "constant": true
    },
    {
      "inputs": [
        {
          "internalType": "address",
          "name": "owner",
          "type": "address"
        },
        {
          "internalType": "address",
          "name": "operator",
          "type": "address"
        }
      ],
      "name": "isApprovedForAll",
      "outputs": [
        {
          "internalType": "bool",
          "name": "",
          "type": "bool"
        }
      ],
      "stateMutability": "view",
      "type": "function",
      "constant": true
    },
    {
      "inputs": [],
      "name": "maxAllowableMintPresale",
      "outputs": [
        {
          "internalType": "uint256",
          "name": "",
          "type": "uint256"
        }
      ],
      "stateMutability": "view",
      "type": "function",
      "constant": true
    },
    {
      "inputs": [],
      "name": "max_pre_sale_purchase",
      "outputs": [
        {
          "internalType": "uint256",
          "name": "",
          "type": "uint256"
        }
      ],
      "stateMutability": "view",
      "type": "function",
      "constant": true
    },
    {
      "inputs": [],
      "name": "max_pre_sale_quantity",
      "outputs": [
        {
          "internalType": "uint256",
          "name": "",
          "type": "uint256"
        }
      ],
      "stateMutability": "view",
      "type": "function",
      "constant": true
    },
    {
      "inputs": [],
      "name": "name",
      "outputs": [
        {
          "internalType": "string",
          "name": "",
          "type": "string"
        }
      ],
      "stateMutability": "view",
      "type": "function",
      "constant": true
    },
    {
      "inputs": [],
      "name": "owner",
      "outputs": [
        {
          "internalType": "address",
          "name": "",
          "type": "address"
        }
      ],
      "stateMutability": "view",
      "type": "function",
      "constant": true
    },
    {
      "inputs": [
        {
          "internalType": "uint256",
          "name": "tokenId",
          "type": "uint256"
        }
      ],
      "name": "ownerOf",
      "outputs": [
        {
          "internalType": "address",
          "name": "",
          "type": "address"
        }
      ],
      "stateMutability": "view",
      "type": "function",
      "constant": true
    },
    {
      "inputs": [],
      "name": "preSale",
      "outputs": [
        {
          "internalType": "bool",
          "name": "",
          "type": "bool"
        }
      ],
      "stateMutability": "view",
      "type": "function",
      "constant": true
    },
    {
      "inputs": [],
      "name": "renounceOwnership",
      "outputs": [],
      "stateMutability": "nonpayable",
      "type": "function"
    },
    {
      "inputs": [
        {
          "internalType": "address",
          "name": "from",
          "type": "address"
        },
        {
          "internalType": "address",
          "name": "to",
          "type": "address"
        },
        {
          "internalType": "uint256",
          "name": "tokenId",
          "type": "uint256"
        }
      ],
      "name": "safeTransferFrom",
      "outputs": [],
      "stateMutability": "nonpayable",
      "type": "function"
    },
    {
      "inputs": [
        {
          "internalType": "address",
          "name": "from",
          "type": "address"
        },
        {
          "internalType": "address",
          "name": "to",
          "type": "address"
        },
        {
          "internalType": "uint256",
          "name": "tokenId",
          "type": "uint256"
        },
        {
          "internalType": "bytes",
          "name": "_data",
          "type": "bytes"
        }
      ],
      "name": "safeTransferFrom",
      "outputs": [],
      "stateMutability": "nonpayable",
      "type": "function"
    },
    {
      "inputs": [],
      "name": "saleState",
      "outputs": [
        {
          "internalType": "enum CozyHome.State",
          "name": "",
          "type": "uint8"
        }
      ],
      "stateMutability": "view",
      "type": "function",
      "constant": true
    },
    {
      "inputs": [
        {
          "internalType": "address",
          "name": "operator",
          "type": "address"
        },
        {
          "internalType": "bool",
          "name": "approved",
          "type": "bool"
        }
      ],
      "name": "setApprovalForAll",
      "outputs": [],
      "stateMutability": "nonpayable",
      "type": "function"
    },
    {
      "inputs": [
        {
          "internalType": "bytes4",
          "name": "interfaceId",
          "type": "bytes4"
        }
      ],
      "name": "supportsInterface",
      "outputs": [
        {
          "internalType": "bool",
          "name": "",
          "type": "bool"
        }
      ],
      "stateMutability": "view",
      "type": "function",
      "constant": true
    },
    {
      "inputs": [],
      "name": "symbol",
      "outputs": [
        {
          "internalType": "string",
          "name": "",
          "type": "string"
        }
      ],
      "stateMutability": "view",
      "type": "function",
      "constant": true
    },
    {
      "inputs": [
        {
          "internalType": "uint256",
          "name": "tokenId",
          "type": "uint256"
        }
      ],
      "name": "tokenURI",
      "outputs": [
        {
          "internalType": "string",
          "name": "",
          "type": "string"
        }
      ],
      "stateMutability": "view",
      "type": "function",
      "constant": true
    },
    {
      "inputs": [],
      "name": "total_first_mintable",
      "outputs": [
        {
          "internalType": "uint256",
          "name": "",
          "type": "uint256"
        }
      ],
      "stateMutability": "view",
      "type": "function",
      "constant": true
    },
    {
      "inputs": [
        {
          "internalType": "address",
          "name": "from",
          "type": "address"
        },
        {
          "internalType": "address",
          "name": "to",
          "type": "address"
        },
        {
          "internalType": "uint256",
          "name": "tokenId",
          "type": "uint256"
        }
      ],
      "name": "transferFrom",
      "outputs": [],
      "stateMutability": "nonpayable",
      "type": "function"
    },
    {
      "inputs": [
        {
          "internalType": "address",
          "name": "newOwner",
          "type": "address"
        }
      ],
      "name": "transferOwnership",
      "outputs": [],
      "stateMutability": "nonpayable",
      "type": "function"
    },
    {
      "stateMutability": "payable",
      "type": "receive",
      "payable": true
    },
    {
      "inputs": [
        {
          "internalType": "bool",
          "name": "_status",
          "type": "bool"
        }
      ],
      "name": "changePreSaleState",
      "outputs": [],
      "stateMutability": "nonpayable",
      "type": "function"
    },
    {
      "inputs": [
        {
          "internalType": "uint256",
          "name": "_new_price",
          "type": "uint256"
        }
      ],
      "name": "changeFlorPrice",
      "outputs": [],
      "stateMutability": "nonpayable",
      "type": "function"
    },
    {
      "inputs": [
        {
          "internalType": "uint256",
          "name": "_input",
          "type": "uint256"
        }
      ],
      "name": "changeSaleState",
      "outputs": [],
      "stateMutability": "nonpayable",
      "type": "function"
    },
    {
      "inputs": [],
      "name": "getSaleState",
      "outputs": [
        {
          "internalType": "enum CozyHome.State",
          "name": "",
          "type": "uint8"
        }
      ],
      "stateMutability": "view",
      "type": "function",
      "constant": true
    },
    {
      "inputs": [
        {
          "internalType": "address",
          "name": "_recipient",
          "type": "address"
        }
      ],
      "name": "mintCollectedAllowed",
      "outputs": [
        {
          "internalType": "bool",
          "name": "",
          "type": "bool"
        }
      ],
      "stateMutability": "view",
      "type": "function",
      "constant": true
    },
    {
      "inputs": [
        {
          "internalType": "address",
          "name": "_recipient",
          "type": "address"
        }
      ],
      "name": "getNumberOfCollected",
      "outputs": [
        {
          "internalType": "uint256",
          "name": "",
          "type": "uint256"
        }
      ],
      "stateMutability": "view",
      "type": "function",
      "constant": true
    },
    {
      "inputs": [
        {
          "internalType": "address",
          "name": "_recipient",
          "type": "address"
        },
        {
          "internalType": "uint256",
          "name": "_quantity",
          "type": "uint256"
        }
      ],
      "name": "numberOfMintable",
      "outputs": [
        {
          "internalType": "uint256",
          "name": "",
          "type": "uint256"
        }
      ],
      "stateMutability": "view",
      "type": "function",
      "constant": true
    },
    {
      "inputs": [
        {
          "internalType": "address",
          "name": "_recipient",
          "type": "address"
        },
        {
          "internalType": "string",
          "name": "_tokenURI",
          "type": "string"
        }
      ],
      "name": "mintNow",
      "outputs": [
        {
          "internalType": "uint256",
          "name": "",
          "type": "uint256"
        }
      ],
      "stateMutability": "nonpayable",
      "type": "function"
    },
    {
      "inputs": [
        {
          "internalType": "address",
          "name": "_recipient",
          "type": "address"
        },
        {
          "internalType": "string",
          "name": "_tokenURI",
          "type": "string"
        },
        {
          "internalType": "uint256",
          "name": "_quantity",
          "type": "uint256"
        }
      ],
      "name": "preSaleMint",
      "outputs": [
        {
          "internalType": "uint256[]",
          "name": "",
          "type": "uint256[]"
        }
      ],
      "stateMutability": "nonpayable",
      "type": "function"
    },
    {
      "inputs": [],
      "name": "getWalletBalance",
      "outputs": [
        {
          "internalType": "uint256",
          "name": "",
          "type": "uint256"
        }
      ],
      "stateMutability": "view",
      "type": "function",
      "constant": true
    },
    {
      "inputs": [
        {
          "internalType": "address payable",
          "name": "_recipient",
          "type": "address"
        },
        {
          "internalType": "uint256",
          "name": "_amount",
          "type": "uint256"
        }
      ],
      "name": "transferContractBalance",
      "outputs": [
        {
          "internalType": "bool",
          "name": "",
          "type": "bool"
        }
      ],
      "stateMutability": "nonpayable",
      "type": "function"
    },
    {
      "inputs": [
        {
          "internalType": "string",
          "name": "_baseURI",
          "type": "string"
        }
      ],
      "name": "setBaseURI",
      "outputs": [],
      "stateMutability": "nonpayable",
      "type": "function"
    },
    {
      "inputs": [],
      "name": "getBaseURI",
      "outputs": [
        {
          "internalType": "string",
          "name": "",
          "type": "string"
        }
      ],
      "stateMutability": "view",
      "type": "function",
      "constant": true
    }
  ],
  "bytecode": "0x6080604052670429d069189e00006009556003600a55611a90600b556103e8600c556003600d55604051806080016040528060518152602001620046d260519139600e90805190602001906200005792919062000269565b506000600f60006101000a81548160ff0219169083151502179055506000601560006101000a81548160ff021916908360018111156200009c576200009b62000319565b5b0217905550348015620000ae57600080fd5b5060405162004723380380620047238339818101604052810190620000d4919062000388565b6040518060400160405280600881526020017f436f7a79486f6d650000000000000000000000000000000000000000000000008152506040518060400160405280600381526020017f4e4654000000000000000000000000000000000000000000000000000000000081525081600090805190602001906200015892919062000269565b5080600190805190602001906200017192919062000269565b50505062000194620001886200019b60201b60201c565b620001a360201b60201c565b506200041f565b600033905090565b6000600760009054906101000a900473ffffffffffffffffffffffffffffffffffffffff16905081600760006101000a81548173ffffffffffffffffffffffffffffffffffffffff021916908373ffffffffffffffffffffffffffffffffffffffff1602179055508173ffffffffffffffffffffffffffffffffffffffff168173ffffffffffffffffffffffffffffffffffffffff167f8be0079c531659141344cd1fd0a4f28419497f9722a3daafe3b4186f6b6457e060405160405180910390a35050565b8280546200027790620003e9565b90600052602060002090601f0160209004810192826200029b5760008555620002e7565b82601f10620002b657805160ff1916838001178555620002e7565b82800160010185558215620002e7579182015b82811115620002e6578251825591602001919060010190620002c9565b5b509050620002f69190620002fa565b5090565b5b8082111562000315576000816000905550600101620002fb565b5090565b7f4e487b7100000000000000000000000000000000000000000000000000000000600052602160045260246000fd5b600080fd5b6000819050919050565b62000362816200034d565b81146200036e57600080fd5b50565b600081519050620003828162000357565b92915050565b600060208284031215620003a157620003a062000348565b5b6000620003b18482850162000371565b91505092915050565b7f4e487b7100000000000000000000000000000000000000000000000000000000600052602260045260246000fd5b600060028204905060018216806200040257607f821691505b60208210811415620004195762000418620003ba565b5b50919050565b6142a3806200042f6000396000f3fe60806040526004361061021e5760003560e01c806370a0823111610123578063b88d4fde116100ab578063e985e9c51161006f578063e985e9c514610862578063eae7d2d01461089f578063efaff03c146108c8578063f2fde38b14610905578063f55ae6e01461092e5761025e565b8063b88d4fde14610769578063c5b1374d14610792578063c87b56dd146107bd578063e1bd2abe146107fa578063e52ace55146108255761025e565b80638da5cb5b116100f25780638da5cb5b1461068457806395978604146106af57806395d89b41146106ec578063a22cb46514610717578063a776155d146107405761025e565b806370a08231146105dc578063714c539814610619578063715018a614610644578063743703a11461065b5761025e565b8063329a27e7116101a65780635a7adf7f116101755780635a7adf7f146104f3578063603f4d521461051e5780636352211e1461054957806366e71c01146105865780636abe3fce146105b15761025e565b8063329a27e71461043957806342842e0e146104645780634bf4d2671461048d57806355f804b3146104ca5761025e565b806310a5a3d9116101ed57806310a5a3d91461032e57806321677ae81461036b57806323b872dd146103a8578063255d474f146103d157806325bdb2a81461040e5761025e565b806301ffc9a71461026057806306fdde031461029d578063081812fc146102c8578063095ea7b3146103055761025e565b3661025e577f88a5966d370b9919b20f3e2c13ff65706f196a4e32cc2c12bf57088f885258743334604051610254929190612ab3565b60405180910390a1005b005b34801561026c57600080fd5b5061028760048036038101906102829190612b48565b610959565b6040516102949190612b90565b60405180910390f35b3480156102a957600080fd5b506102b2610a3b565b6040516102bf9190612c44565b60405180910390f35b3480156102d457600080fd5b506102ef60048036038101906102ea9190612c92565b610acd565b6040516102fc9190612cbf565b60405180910390f35b34801561031157600080fd5b5061032c60048036038101906103279190612d06565b610b52565b005b34801561033a57600080fd5b5061035560048036038101906103509190612d84565b610c6a565b6040516103629190612b90565b60405180910390f35b34801561037757600080fd5b50610392600480360381019061038d9190612d06565b610d85565b60405161039f9190612dc4565b60405180910390f35b3480156103b457600080fd5b506103cf60048036038101906103ca9190612ddf565b610de7565b005b3480156103dd57600080fd5b506103f860048036038101906103f39190612e32565b610e47565b6040516104059190612b90565b60405180910390f35b34801561041a57600080fd5b50610423610ea7565b6040516104309190612ed6565b60405180910390f35b34801561044557600080fd5b5061044e610ebe565b60405161045b9190612dc4565b60405180910390f35b34801561047057600080fd5b5061048b60048036038101906104869190612ddf565b610f42565b005b34801561049957600080fd5b506104b460048036038101906104af9190612e32565b610f62565b6040516104c19190612dc4565b60405180910390f35b3480156104d657600080fd5b506104f160048036038101906104ec9190613026565b610fae565b005b3480156104ff57600080fd5b50610508611044565b6040516105159190612b90565b60405180910390f35b34801561052a57600080fd5b50610533611057565b6040516105409190612ed6565b60405180910390f35b34801561055557600080fd5b50610570600480360381019061056b9190612c92565b61106a565b60405161057d9190612cbf565b60405180910390f35b34801561059257600080fd5b5061059b61111c565b6040516105a89190612dc4565b60405180910390f35b3480156105bd57600080fd5b506105c6611122565b6040516105d39190612dc4565b60405180910390f35b3480156105e857600080fd5b5061060360048036038101906105fe9190612e32565b611128565b6040516106109190612dc4565b60405180910390f35b34801561062557600080fd5b5061062e6111e0565b60405161063b9190612c44565b60405180910390f35b34801561065057600080fd5b506106596112ee565b005b34801561066757600080fd5b50610682600480360381019061067d9190612c92565b611376565b005b34801561069057600080fd5b506106996113fc565b6040516106a69190612cbf565b60405180910390f35b3480156106bb57600080fd5b506106d660048036038101906106d1919061306f565b611426565b6040516106e3919061319c565b60405180910390f35b3480156106f857600080fd5b5061070161157e565b60405161070e9190612c44565b60405180910390f35b34801561072357600080fd5b5061073e600480360381019061073991906131ea565b611610565b005b34801561074c57600080fd5b506107676004803603810190610762919061322a565b611791565b005b34801561077557600080fd5b50610790600480360381019061078b91906132f8565b61182a565b005b34801561079e57600080fd5b506107a761188c565b6040516107b49190612dc4565b60405180910390f35b3480156107c957600080fd5b506107e460048036038101906107df9190612c92565b611892565b6040516107f19190612c44565b60405180910390f35b34801561080657600080fd5b5061080f6119e4565b60405161081c9190612dc4565b60405180910390f35b34801561083157600080fd5b5061084c6004803603810190610847919061337b565b6119ea565b6040516108599190612dc4565b60405180910390f35b34801561086e57600080fd5b50610889600480360381019061088491906133d7565b611a7d565b6040516108969190612b90565b60405180910390f35b3480156108ab57600080fd5b506108c660048036038101906108c19190612c92565b611b11565b005b3480156108d457600080fd5b506108ef60048036038101906108ea9190612c92565b611bf5565b6040516108fc9190612cbf565b60405180910390f35b34801561091157600080fd5b5061092c60048036038101906109279190612e32565b611c28565b005b34801561093a57600080fd5b50610943611d20565b6040516109509190612dc4565b60405180910390f35b60007f80ac58cd000000000000000000000000000000000000000000000000000000007bffffffffffffffffffffffffffffffffffffffffffffffffffffffff1916827bffffffffffffffffffffffffffffffffffffffffffffffffffffffff19161480610a2457507f5b5e139f000000000000000000000000000000000000000000000000000000007bffffffffffffffffffffffffffffffffffffffffffffffffffffffff1916827bffffffffffffffffffffffffffffffffffffffffffffffffffffffff1916145b80610a345750610a3382611d26565b5b9050919050565b606060008054610a4a90613446565b80601f0160208091040260200160405190810160405280929190818152602001828054610a7690613446565b8015610ac35780601f10610a9857610100808354040283529160200191610ac3565b820191906000526020600020905b815481529060010190602001808311610aa657829003601f168201915b5050505050905090565b6000610ad882611d90565b610b17576040517f08c379a0000000000000000000000000000000000000000000000000000000008152600401610b0e906134ea565b60405180910390fd5b6004600083815260200190815260200160002060009054906101000a900473ffffffffffffffffffffffffffffffffffffffff169050919050565b6000610b5d8261106a565b90508073ffffffffffffffffffffffffffffffffffffffff168373ffffffffffffffffffffffffffffffffffffffff161415610bce576040517f08c379a0000000000000000000000000000000000000000000000000000000008152600401610bc59061357c565b60405180910390fd5b8073ffffffffffffffffffffffffffffffffffffffff16610bed611dfc565b73ffffffffffffffffffffffffffffffffffffffff161480610c1c5750610c1b81610c16611dfc565b611a7d565b5b610c5b576040517f08c379a0000000000000000000000000000000000000000000000000000000008152600401610c529061360e565b60405180910390fd5b610c658383611e04565b505050565b6000610c74611dfc565b73ffffffffffffffffffffffffffffffffffffffff16610c926113fc565b73ffffffffffffffffffffffffffffffffffffffff1614610ce8576040517f08c379a0000000000000000000000000000000000000000000000000000000008152600401610cdf9061367a565b60405180910390fd5b81610cf1610ebe565b811115610d33576040517f08c379a0000000000000000000000000000000000000000000000000000000008152600401610d2a906136e6565b60405180910390fd5b8373ffffffffffffffffffffffffffffffffffffffff166108fc849081150290604051600060405180830381858888f19350505050158015610d79573d6000803e3d6000fd5b50600191505092915050565b600080610d9184610f62565b9050600d548184610da29190613735565b11610dbb578083610db3919061378b565b915050610de1565b600d54831115610ddb5780600d54610dd3919061378b565b915050610de1565b60009150505b92915050565b610df8610df2611dfc565b82611ebd565b610e37576040517f08c379a0000000000000000000000000000000000000000000000000000000008152600401610e2e90613831565b60405180910390fd5b610e42838383611f9b565b505050565b6000600d54601460008473ffffffffffffffffffffffffffffffffffffffff1673ffffffffffffffffffffffffffffffffffffffff1681526020019081526020016000208054905011610e9d5760019050610ea2565b600090505b919050565b6000601560009054906101000a900460ff16905090565b6000610ec8611dfc565b73ffffffffffffffffffffffffffffffffffffffff16610ee66113fc565b73ffffffffffffffffffffffffffffffffffffffff1614610f3c576040517f08c379a0000000000000000000000000000000000000000000000000000000008152600401610f339061367a565b60405180910390fd5b47905090565b610f5d8383836040518060200160405280600081525061182a565b505050565b6000601460008373ffffffffffffffffffffffffffffffffffffffff1673ffffffffffffffffffffffffffffffffffffffff168152602001908152602001600020805490509050919050565b610fb6611dfc565b73ffffffffffffffffffffffffffffffffffffffff16610fd46113fc565b73ffffffffffffffffffffffffffffffffffffffff161461102a576040517f08c379a00000000000000000000000000000000000000000000000000000000081526004016110219061367a565b60405180910390fd5b80600e90805190602001906110409291906129b6565b5050565b600f60009054906101000a900460ff1681565b601560009054906101000a900460ff1681565b6000806002600084815260200190815260200160002060009054906101000a900473ffffffffffffffffffffffffffffffffffffffff169050600073ffffffffffffffffffffffffffffffffffffffff168173ffffffffffffffffffffffffffffffffffffffff161415611113576040517f08c379a000000000000000000000000000000000000000000000000000000000815260040161110a906138c3565b60405180910390fd5b80915050919050565b600b5481565b600c5481565b60008073ffffffffffffffffffffffffffffffffffffffff168273ffffffffffffffffffffffffffffffffffffffff161415611199576040517f08c379a000000000000000000000000000000000000000000000000000000000815260040161119090613955565b60405180910390fd5b600360008373ffffffffffffffffffffffffffffffffffffffff1673ffffffffffffffffffffffffffffffffffffffff168152602001908152602001600020549050919050565b60606111ea611dfc565b73ffffffffffffffffffffffffffffffffffffffff166112086113fc565b73ffffffffffffffffffffffffffffffffffffffff161461125e576040517f08c379a00000000000000000000000000000000000000000000000000000000081526004016112559061367a565b60405180910390fd5b600e805461126b90613446565b80601f016020809104026020016040519081016040528092919081815260200182805461129790613446565b80156112e45780601f106112b9576101008083540402835291602001916112e4565b820191906000526020600020905b8154815290600101906020018083116112c757829003601f168201915b5050505050905090565b6112f6611dfc565b73ffffffffffffffffffffffffffffffffffffffff166113146113fc565b73ffffffffffffffffffffffffffffffffffffffff161461136a576040517f08c379a00000000000000000000000000000000000000000000000000000000081526004016113619061367a565b60405180910390fd5b61137460006121f7565b565b61137e611dfc565b73ffffffffffffffffffffffffffffffffffffffff1661139c6113fc565b73ffffffffffffffffffffffffffffffffffffffff16146113f2576040517f08c379a00000000000000000000000000000000000000000000000000000000081526004016113e99061367a565b60405180910390fd5b8060098190555050565b6000600760009054906101000a900473ffffffffffffffffffffffffffffffffffffffff16905090565b60606000600181111561143c5761143b612e5f565b5b601560009054906101000a900460ff16600181111561145e5761145d612e5f565b5b1461149e576040517f08c379a0000000000000000000000000000000000000000000000000000000008152600401611495906139c1565b60405180910390fd5b60011515600f60009054906101000a900460ff161515146114f4576040517f08c379a00000000000000000000000000000000000000000000000000000000081526004016114eb90613a2d565b60405180910390fd5b6114fd84610e47565b801561150b575081600d5410155b156115765760606000600190505b6115238685610d85565b81101561156c57600061153687876119ea565b90508083838151811061154c5761154b613a4d565b5b60200260200101818152505050808061156490613a7c565b915050611519565b5080915050611577565b5b9392505050565b60606001805461158d90613446565b80601f01602080910402602001604051908101604052809291908181526020018280546115b990613446565b80156116065780601f106115db57610100808354040283529160200191611606565b820191906000526020600020905b8154815290600101906020018083116115e957829003601f168201915b5050505050905090565b611618611dfc565b73ffffffffffffffffffffffffffffffffffffffff168273ffffffffffffffffffffffffffffffffffffffff161415611686576040517f08c379a000000000000000000000000000000000000000000000000000000000815260040161167d90613b11565b60405180910390fd5b8060056000611693611dfc565b73ffffffffffffffffffffffffffffffffffffffff1673ffffffffffffffffffffffffffffffffffffffff16815260200190815260200160002060008473ffffffffffffffffffffffffffffffffffffffff1673ffffffffffffffffffffffffffffffffffffffff16815260200190815260200160002060006101000a81548160ff0219169083151502179055508173ffffffffffffffffffffffffffffffffffffffff16611740611dfc565b73ffffffffffffffffffffffffffffffffffffffff167f17307eab39ab6107e8899845ad3d59bd9653f200f220920489ca2b5937696c31836040516117859190612b90565b60405180910390a35050565b611799611dfc565b73ffffffffffffffffffffffffffffffffffffffff166117b76113fc565b73ffffffffffffffffffffffffffffffffffffffff161461180d576040517f08c379a00000000000000000000000000000000000000000000000000000000081526004016118049061367a565b60405180910390fd5b80600f60006101000a81548160ff02191690831515021790555050565b61183b611835611dfc565b83611ebd565b61187a576040517f08c379a000000000000000000000000000000000000000000000000000000000815260040161187190613831565b60405180910390fd5b611886848484846122bd565b50505050565b60095481565b606061189d82611d90565b6118dc576040517f08c379a00000000000000000000000000000000000000000000000000000000081526004016118d390613ba3565b60405180910390fd5b60006006600084815260200190815260200160002080546118fc90613446565b80601f016020809104026020016040519081016040528092919081815260200182805461192890613446565b80156119755780601f1061194a57610100808354040283529160200191611975565b820191906000526020600020905b81548152906001019060200180831161195857829003601f168201915b505050505090506000611986612319565b905060008151141561199c5781925050506119df565b6000825111156119d15780826040516020016119b9929190613bff565b604051602081830303815290604052925050506119df565b6119da84612330565b925050505b919050565b600a5481565b60006119f660086123d7565b6000611a0260086123ed565b9050611a0e84826123fb565b611a1881846125c9565b836013600083815260200190815260200160002060006101000a81548173ffffffffffffffffffffffffffffffffffffffff021916908373ffffffffffffffffffffffffffffffffffffffff160217905550611a738161263d565b8091505092915050565b6000600560008473ffffffffffffffffffffffffffffffffffffffff1673ffffffffffffffffffffffffffffffffffffffff16815260200190815260200160002060008373ffffffffffffffffffffffffffffffffffffffff1673ffffffffffffffffffffffffffffffffffffffff16815260200190815260200160002060009054906101000a900460ff16905092915050565b611b19611dfc565b73ffffffffffffffffffffffffffffffffffffffff16611b376113fc565b73ffffffffffffffffffffffffffffffffffffffff1614611b8d576040517f08c379a0000000000000000000000000000000000000000000000000000000008152600401611b849061367a565b60405180910390fd5b6000811415611bc6576001601560006101000a81548160ff02191690836001811115611bbc57611bbb612e5f565b5b0217905550611bf2565b6000601560006101000a81548160ff02191690836001811115611bec57611beb612e5f565b5b02179055505b50565b60136020528060005260406000206000915054906101000a900473ffffffffffffffffffffffffffffffffffffffff1681565b611c30611dfc565b73ffffffffffffffffffffffffffffffffffffffff16611c4e6113fc565b73ffffffffffffffffffffffffffffffffffffffff1614611ca4576040517f08c379a0000000000000000000000000000000000000000000000000000000008152600401611c9b9061367a565b60405180910390fd5b600073ffffffffffffffffffffffffffffffffffffffff168173ffffffffffffffffffffffffffffffffffffffff161415611d14576040517f08c379a0000000000000000000000000000000000000000000000000000000008152600401611d0b90613c95565b60405180910390fd5b611d1d816121f7565b50565b600d5481565b60007f01ffc9a7000000000000000000000000000000000000000000000000000000007bffffffffffffffffffffffffffffffffffffffffffffffffffffffff1916827bffffffffffffffffffffffffffffffffffffffffffffffffffffffff1916149050919050565b60008073ffffffffffffffffffffffffffffffffffffffff166002600084815260200190815260200160002060009054906101000a900473ffffffffffffffffffffffffffffffffffffffff1673ffffffffffffffffffffffffffffffffffffffff1614159050919050565b600033905090565b816004600083815260200190815260200160002060006101000a81548173ffffffffffffffffffffffffffffffffffffffff021916908373ffffffffffffffffffffffffffffffffffffffff160217905550808273ffffffffffffffffffffffffffffffffffffffff16611e778361106a565b73ffffffffffffffffffffffffffffffffffffffff167f8c5be1e5ebec7d5bd14f71427d1e84f3dd0314c0f7b2291e5b200ac8c7c3b92560405160405180910390a45050565b6000611ec882611d90565b611f07576040517f08c379a0000000000000000000000000000000000000000000000000000000008152600401611efe90613d27565b60405180910390fd5b6000611f128361106a565b90508073ffffffffffffffffffffffffffffffffffffffff168473ffffffffffffffffffffffffffffffffffffffff161480611f8157508373ffffffffffffffffffffffffffffffffffffffff16611f6984610acd565b73ffffffffffffffffffffffffffffffffffffffff16145b80611f925750611f918185611a7d565b5b91505092915050565b8273ffffffffffffffffffffffffffffffffffffffff16611fbb8261106a565b73ffffffffffffffffffffffffffffffffffffffff1614612011576040517f08c379a000000000000000000000000000000000000000000000000000000000815260040161200890613db9565b60405180910390fd5b600073ffffffffffffffffffffffffffffffffffffffff168273ffffffffffffffffffffffffffffffffffffffff161415612081576040517f08c379a000000000000000000000000000000000000000000000000000000000815260040161207890613e4b565b60405180910390fd5b61208c8383836126a6565b612097600082611e04565b6001600360008573ffffffffffffffffffffffffffffffffffffffff1673ffffffffffffffffffffffffffffffffffffffff16815260200190815260200160002060008282546120e7919061378b565b925050819055506001600360008473ffffffffffffffffffffffffffffffffffffffff1673ffffffffffffffffffffffffffffffffffffffff168152602001908152602001600020600082825461213e9190613735565b92505081905550816002600083815260200190815260200160002060006101000a81548173ffffffffffffffffffffffffffffffffffffffff021916908373ffffffffffffffffffffffffffffffffffffffff160217905550808273ffffffffffffffffffffffffffffffffffffffff168473ffffffffffffffffffffffffffffffffffffffff167fddf252ad1be2c89b69c2b068fc378daa952ba7f163c4a11628f55a4df523b3ef60405160405180910390a4505050565b6000600760009054906101000a900473ffffffffffffffffffffffffffffffffffffffff16905081600760006101000a81548173ffffffffffffffffffffffffffffffffffffffff021916908373ffffffffffffffffffffffffffffffffffffffff1602179055508173ffffffffffffffffffffffffffffffffffffffff168173ffffffffffffffffffffffffffffffffffffffff167f8be0079c531659141344cd1fd0a4f28419497f9722a3daafe3b4186f6b6457e060405160405180910390a35050565b6122c8848484611f9b565b6122d4848484846126ab565b612313576040517f08c379a000000000000000000000000000000000000000000000000000000000815260040161230a90613edd565b60405180910390fd5b50505050565b606060405180602001604052806000815250905090565b606061233b82611d90565b61237a576040517f08c379a000000000000000000000000000000000000000000000000000000000815260040161237190613f6f565b60405180910390fd5b6000612384612319565b905060008151116123a457604051806020016040528060008152506123cf565b806123ae84612842565b6040516020016123bf929190613bff565b6040516020818303038152906040525b915050919050565b6001816000016000828254019250508190555050565b600081600001549050919050565b600073ffffffffffffffffffffffffffffffffffffffff168273ffffffffffffffffffffffffffffffffffffffff16141561246b576040517f08c379a000000000000000000000000000000000000000000000000000000000815260040161246290613fdb565b60405180910390fd5b61247481611d90565b156124b4576040517f08c379a00000000000000000000000000000000000000000000000000000000081526004016124ab90614047565b60405180910390fd5b6124c0600083836126a6565b6001600360008473ffffffffffffffffffffffffffffffffffffffff1673ffffffffffffffffffffffffffffffffffffffff16815260200190815260200160002060008282546125109190613735565b92505081905550816002600083815260200190815260200160002060006101000a81548173ffffffffffffffffffffffffffffffffffffffff021916908373ffffffffffffffffffffffffffffffffffffffff160217905550808273ffffffffffffffffffffffffffffffffffffffff16600073ffffffffffffffffffffffffffffffffffffffff167fddf252ad1be2c89b69c2b068fc378daa952ba7f163c4a11628f55a4df523b3ef60405160405180910390a45050565b6125d282611d90565b612611576040517f08c379a0000000000000000000000000000000000000000000000000000000008152600401612608906140d9565b60405180910390fd5b806006600084815260200190815260200160002090805190602001906126389291906129b6565b505050565b601460003373ffffffffffffffffffffffffffffffffffffffff1673ffffffffffffffffffffffffffffffffffffffff16815260200190815260200160002081908060018154018082558091505060019003906000526020600020016000909190919091505550565b505050565b60006126cc8473ffffffffffffffffffffffffffffffffffffffff166129a3565b15612835578373ffffffffffffffffffffffffffffffffffffffff1663150b7a026126f5611dfc565b8786866040518563ffffffff1660e01b8152600401612717949392919061414e565b602060405180830381600087803b15801561273157600080fd5b505af192505050801561276257506040513d601f19601f8201168201806040525081019061275f91906141af565b60015b6127e5573d8060008114612792576040519150601f19603f3d011682016040523d82523d6000602084013e612797565b606091505b506000815114156127dd576040517f08c379a00000000000000000000000000000000000000000000000000000000081526004016127d490613edd565b60405180910390fd5b805181602001fd5b63150b7a0260e01b7bffffffffffffffffffffffffffffffffffffffffffffffffffffffff1916817bffffffffffffffffffffffffffffffffffffffffffffffffffffffff19161491505061283a565b600190505b949350505050565b6060600082141561288a576040518060400160405280600181526020017f3000000000000000000000000000000000000000000000000000000000000000815250905061299e565b600082905060005b600082146128bc5780806128a590613a7c565b915050600a826128b5919061420b565b9150612892565b60008167ffffffffffffffff8111156128d8576128d7612efb565b5b6040519080825280601f01601f19166020018201604052801561290a5781602001600182028036833780820191505090505b5090505b6000851461299757600182612923919061378b565b9150600a85612932919061423c565b603061293e9190613735565b60f81b81838151811061295457612953613a4d565b5b60200101907effffffffffffffffffffffffffffffffffffffffffffffffffffffffffffff1916908160001a905350600a85612990919061420b565b945061290e565b8093505050505b919050565b600080823b905060008111915050919050565b8280546129c290613446565b90600052602060002090601f0160209004810192826129e45760008555612a2b565b82601f106129fd57805160ff1916838001178555612a2b565b82800160010185558215612a2b579182015b82811115612a2a578251825591602001919060010190612a0f565b5b509050612a389190612a3c565b5090565b5b80821115612a55576000816000905550600101612a3d565b5090565b600073ffffffffffffffffffffffffffffffffffffffff82169050919050565b6000612a8482612a59565b9050919050565b612a9481612a79565b82525050565b6000819050919050565b612aad81612a9a565b82525050565b6000604082019050612ac86000830185612a8b565b612ad56020830184612aa4565b9392505050565b6000604051905090565b600080fd5b600080fd5b60007fffffffff0000000000000000000000000000000000000000000000000000000082169050919050565b612b2581612af0565b8114612b3057600080fd5b50565b600081359050612b4281612b1c565b92915050565b600060208284031215612b5e57612b5d612ae6565b5b6000612b6c84828501612b33565b91505092915050565b60008115159050919050565b612b8a81612b75565b82525050565b6000602082019050612ba56000830184612b81565b92915050565b600081519050919050565b600082825260208201905092915050565b60005b83811015612be5578082015181840152602081019050612bca565b83811115612bf4576000848401525b50505050565b6000601f19601f8301169050919050565b6000612c1682612bab565b612c208185612bb6565b9350612c30818560208601612bc7565b612c3981612bfa565b840191505092915050565b60006020820190508181036000830152612c5e8184612c0b565b905092915050565b612c6f81612a9a565b8114612c7a57600080fd5b50565b600081359050612c8c81612c66565b92915050565b600060208284031215612ca857612ca7612ae6565b5b6000612cb684828501612c7d565b91505092915050565b6000602082019050612cd46000830184612a8b565b92915050565b612ce381612a79565b8114612cee57600080fd5b50565b600081359050612d0081612cda565b92915050565b60008060408385031215612d1d57612d1c612ae6565b5b6000612d2b85828601612cf1565b9250506020612d3c85828601612c7d565b9150509250929050565b6000612d5182612a59565b9050919050565b612d6181612d46565b8114612d6c57600080fd5b50565b600081359050612d7e81612d58565b92915050565b60008060408385031215612d9b57612d9a612ae6565b5b6000612da985828601612d6f565b9250506020612dba85828601612c7d565b9150509250929050565b6000602082019050612dd96000830184612aa4565b92915050565b600080600060608486031215612df857612df7612ae6565b5b6000612e0686828701612cf1565b9350506020612e1786828701612cf1565b9250506040612e2886828701612c7d565b9150509250925092565b600060208284031215612e4857612e47612ae6565b5b6000612e5684828501612cf1565b91505092915050565b7f4e487b7100000000000000000000000000000000000000000000000000000000600052602160045260246000fd5b60028110612e9f57612e9e612e5f565b5b50565b6000819050612eb082612e8e565b919050565b6000612ec082612ea2565b9050919050565b612ed081612eb5565b82525050565b6000602082019050612eeb6000830184612ec7565b92915050565b600080fd5b600080fd5b7f4e487b7100000000000000000000000000000000000000000000000000000000600052604160045260246000fd5b612f3382612bfa565b810181811067ffffffffffffffff82111715612f5257612f51612efb565b5b80604052505050565b6000612f65612adc565b9050612f718282612f2a565b919050565b600067ffffffffffffffff821115612f9157612f90612efb565b5b612f9a82612bfa565b9050602081019050919050565b82818337600083830152505050565b6000612fc9612fc484612f76565b612f5b565b905082815260208101848484011115612fe557612fe4612ef6565b5b612ff0848285612fa7565b509392505050565b600082601f83011261300d5761300c612ef1565b5b813561301d848260208601612fb6565b91505092915050565b60006020828403121561303c5761303b612ae6565b5b600082013567ffffffffffffffff81111561305a57613059612aeb565b5b61306684828501612ff8565b91505092915050565b60008060006060848603121561308857613087612ae6565b5b600061309686828701612cf1565b935050602084013567ffffffffffffffff8111156130b7576130b6612aeb565b5b6130c386828701612ff8565b92505060406130d486828701612c7d565b9150509250925092565b600081519050919050565b600082825260208201905092915050565b6000819050602082019050919050565b61311381612a9a565b82525050565b6000613125838361310a565b60208301905092915050565b6000602082019050919050565b6000613149826130de565b61315381856130e9565b935061315e836130fa565b8060005b8381101561318f5781516131768882613119565b975061318183613131565b925050600181019050613162565b5085935050505092915050565b600060208201905081810360008301526131b6818461313e565b905092915050565b6131c781612b75565b81146131d257600080fd5b50565b6000813590506131e4816131be565b92915050565b6000806040838503121561320157613200612ae6565b5b600061320f85828601612cf1565b9250506020613220858286016131d5565b9150509250929050565b6000602082840312156132405761323f612ae6565b5b600061324e848285016131d5565b91505092915050565b600067ffffffffffffffff82111561327257613271612efb565b5b61327b82612bfa565b9050602081019050919050565b600061329b61329684613257565b612f5b565b9050828152602081018484840111156132b7576132b6612ef6565b5b6132c2848285612fa7565b509392505050565b600082601f8301126132df576132de612ef1565b5b81356132ef848260208601613288565b91505092915050565b6000806000806080858703121561331257613311612ae6565b5b600061332087828801612cf1565b945050602061333187828801612cf1565b935050604061334287828801612c7d565b925050606085013567ffffffffffffffff81111561336357613362612aeb565b5b61336f878288016132ca565b91505092959194509250565b6000806040838503121561339257613391612ae6565b5b60006133a085828601612cf1565b925050602083013567ffffffffffffffff8111156133c1576133c0612aeb565b5b6133cd85828601612ff8565b9150509250929050565b600080604083850312156133ee576133ed612ae6565b5b60006133fc85828601612cf1565b925050602061340d85828601612cf1565b9150509250929050565b7f4e487b7100000000000000000000000000000000000000000000000000000000600052602260045260246000fd5b6000600282049050600182168061345e57607f821691505b6020821081141561347257613471613417565b5b50919050565b7f4552433732313a20617070726f76656420717565727920666f72206e6f6e657860008201527f697374656e7420746f6b656e0000000000000000000000000000000000000000602082015250565b60006134d4602c83612bb6565b91506134df82613478565b604082019050919050565b60006020820190508181036000830152613503816134c7565b9050919050565b7f4552433732313a20617070726f76616c20746f2063757272656e74206f776e6560008201527f7200000000000000000000000000000000000000000000000000000000000000602082015250565b6000613566602183612bb6565b91506135718261350a565b604082019050919050565b6000602082019050818103600083015261359581613559565b9050919050565b7f4552433732313a20617070726f76652063616c6c6572206973206e6f74206f7760008201527f6e6572206e6f7220617070726f76656420666f7220616c6c0000000000000000602082015250565b60006135f8603883612bb6565b91506136038261359c565b604082019050919050565b60006020820190508181036000830152613627816135eb565b9050919050565b7f4f776e61626c653a2063616c6c6572206973206e6f7420746865206f776e6572600082015250565b6000613664602083612bb6565b915061366f8261362e565b602082019050919050565b6000602082019050818103600083015261369381613657565b9050919050565b7f4e6f7420656e6f7567682062616c616e636520746f2073656e64210000000000600082015250565b60006136d0601b83612bb6565b91506136db8261369a565b602082019050919050565b600060208201905081810360008301526136ff816136c3565b9050919050565b7f4e487b7100000000000000000000000000000000000000000000000000000000600052601160045260246000fd5b600061374082612a9a565b915061374b83612a9a565b9250827fffffffffffffffffffffffffffffffffffffffffffffffffffffffffffffffff038211156137805761377f613706565b5b828201905092915050565b600061379682612a9a565b91506137a183612a9a565b9250828210156137b4576137b3613706565b5b828203905092915050565b7f4552433732313a207472616e736665722063616c6c6572206973206e6f74206f60008201527f776e6572206e6f7220617070726f766564000000000000000000000000000000602082015250565b600061381b603183612bb6565b9150613826826137bf565b604082019050919050565b6000602082019050818103600083015261384a8161380e565b9050919050565b7f4552433732313a206f776e657220717565727920666f72206e6f6e657869737460008201527f656e7420746f6b656e0000000000000000000000000000000000000000000000602082015250565b60006138ad602983612bb6565b91506138b882613851565b604082019050919050565b600060208201905081810360008301526138dc816138a0565b9050919050565b7f4552433732313a2062616c616e636520717565727920666f7220746865207a6560008201527f726f206164647265737300000000000000000000000000000000000000000000602082015250565b600061393f602a83612bb6565b915061394a826138e3565b604082019050919050565b6000602082019050818103600083015261396e81613932565b9050919050565b7f53616c65206973206e6f74207374617274656420796574210000000000000000600082015250565b60006139ab601883612bb6565b91506139b682613975565b602082019050919050565b600060208201905081810360008301526139da8161399e565b9050919050565b7f50726573616c65206973206e6f74207374617274656420796574210000000000600082015250565b6000613a17601b83612bb6565b9150613a22826139e1565b602082019050919050565b60006020820190508181036000830152613a4681613a0a565b9050919050565b7f4e487b7100000000000000000000000000000000000000000000000000000000600052603260045260246000fd5b6000613a8782612a9a565b91507fffffffffffffffffffffffffffffffffffffffffffffffffffffffffffffffff821415613aba57613ab9613706565b5b600182019050919050565b7f4552433732313a20617070726f766520746f2063616c6c657200000000000000600082015250565b6000613afb601983612bb6565b9150613b0682613ac5565b602082019050919050565b60006020820190508181036000830152613b2a81613aee565b9050919050565b7f45524337323155524953746f726167653a2055524920717565727920666f722060008201527f6e6f6e6578697374656e7420746f6b656e000000000000000000000000000000602082015250565b6000613b8d603183612bb6565b9150613b9882613b31565b604082019050919050565b60006020820190508181036000830152613bbc81613b80565b9050919050565b600081905092915050565b6000613bd982612bab565b613be38185613bc3565b9350613bf3818560208601612bc7565b80840191505092915050565b6000613c0b8285613bce565b9150613c178284613bce565b91508190509392505050565b7f4f776e61626c653a206e6577206f776e657220697320746865207a65726f206160008201527f6464726573730000000000000000000000000000000000000000000000000000602082015250565b6000613c7f602683612bb6565b9150613c8a82613c23565b604082019050919050565b60006020820190508181036000830152613cae81613c72565b9050919050565b7f4552433732313a206f70657261746f7220717565727920666f72206e6f6e657860008201527f697374656e7420746f6b656e0000000000000000000000000000000000000000602082015250565b6000613d11602c83612bb6565b9150613d1c82613cb5565b604082019050919050565b60006020820190508181036000830152613d4081613d04565b9050919050565b7f4552433732313a207472616e73666572206f6620746f6b656e2074686174206960008201527f73206e6f74206f776e0000000000000000000000000000000000000000000000602082015250565b6000613da3602983612bb6565b9150613dae82613d47565b604082019050919050565b60006020820190508181036000830152613dd281613d96565b9050919050565b7f4552433732313a207472616e7366657220746f20746865207a65726f2061646460008201527f7265737300000000000000000000000000000000000000000000000000000000602082015250565b6000613e35602483612bb6565b9150613e4082613dd9565b604082019050919050565b60006020820190508181036000830152613e6481613e28565b9050919050565b7f4552433732313a207472616e7366657220746f206e6f6e20455243373231526560008201527f63656976657220696d706c656d656e7465720000000000000000000000000000602082015250565b6000613ec7603283612bb6565b9150613ed282613e6b565b604082019050919050565b60006020820190508181036000830152613ef681613eba565b9050919050565b7f4552433732314d657461646174613a2055524920717565727920666f72206e6f60008201527f6e6578697374656e7420746f6b656e0000000000000000000000000000000000602082015250565b6000613f59602f83612bb6565b9150613f6482613efd565b604082019050919050565b60006020820190508181036000830152613f8881613f4c565b9050919050565b7f4552433732313a206d696e7420746f20746865207a65726f2061646472657373600082015250565b6000613fc5602083612bb6565b9150613fd082613f8f565b602082019050919050565b60006020820190508181036000830152613ff481613fb8565b9050919050565b7f4552433732313a20746f6b656e20616c7265616479206d696e74656400000000600082015250565b6000614031601c83612bb6565b915061403c82613ffb565b602082019050919050565b6000602082019050818103600083015261406081614024565b9050919050565b7f45524337323155524953746f726167653a2055524920736574206f66206e6f6e60008201527f6578697374656e7420746f6b656e000000000000000000000000000000000000602082015250565b60006140c3602e83612bb6565b91506140ce82614067565b604082019050919050565b600060208201905081810360008301526140f2816140b6565b9050919050565b600081519050919050565b600082825260208201905092915050565b6000614120826140f9565b61412a8185614104565b935061413a818560208601612bc7565b61414381612bfa565b840191505092915050565b60006080820190506141636000830187612a8b565b6141706020830186612a8b565b61417d6040830185612aa4565b818103606083015261418f8184614115565b905095945050505050565b6000815190506141a981612b1c565b92915050565b6000602082840312156141c5576141c4612ae6565b5b60006141d38482850161419a565b91505092915050565b7f4e487b7100000000000000000000000000000000000000000000000000000000600052601260045260246000fd5b600061421682612a9a565b915061422183612a9a565b925082614231576142306141dc565b5b828204905092915050565b600061424782612a9a565b915061425283612a9a565b925082614262576142616141dc565b5b82820690509291505056fea2646970667358221220dbbb3d58aa8c3d9e478ef8ef261ca11f1d7069aa9e7dc8ec550921027f3fa9e964736f6c6343000809003368747470733a2f2f676174657761792e70696e6174612e636c6f75642f697066732f516d6350396878726e433154354154506d713273614665414d317970465839426e41737743644842394a436a4c412f",
  "immutableReferences": {},
  "source": "pragma solidity ^0.8.2;\nimport \"@openzeppelin/contracts/access/Ownable.sol\";\nimport \"@openzeppelin/contracts/utils/Counters.sol\";\nimport \"@openzeppelin/contracts/token/ERC721/ERC721.sol\";\nimport \"@openzeppelin/contracts/token/ERC721/extensions/ERC721URIStorage.sol\";\n\nstruct Investors {\n    address addr;\n    uint256 percentage;\n    string tokenId;\n}\n\ncontract CozyHome is ERC721URIStorage, Ownable {\n    using Counters for Counters.Counter;\n    Counters.Counter private _tokenIds;\n\n    uint256 public flor_price_pre_sale = 0.3 ether;\n    uint256 public max_pre_sale_purchase = 3;\n    uint256 public total_first_mintable = 6800;\n    uint256 public max_pre_sale_quantity = 1000;\n    uint256 public maxAllowableMintPresale = 3;\n    string private baseURI =\n        \"https://gateway.pinata.cloud/ipfs/QmcP9hxrnC1T5ATPmq2saFeAM1ypFX9BnAswCdHB9JCjLA/\";\n\n    bool public preSale = false;\n\n    Investors private investorsInheritance;\n\n    mapping(uint256 => address) public firstOwners;\n\n    mapping(address => uint256[]) private mintOwners;\n\n    enum State {\n        Open,\n        Closed\n    }\n\n    State public saleState = State.Open;\n\n    constructor(uint256 _percent) ERC721(\"CozyHome\", \"NFT\") {\n        // contract owner will have the first place to set inheritence percentage\n        // this number will be fixed for the contract like 0.05\n        // investorsInheritance.addr = msg.sender;\n        // investorsInheritance.percentage = _percent;\n    }\n\n    event Received(address, uint256);\n\n    fallback() external payable {}\n\n    receive() external payable {\n        emit Received(msg.sender, msg.value);\n    }\n\n    function changePreSaleState(bool _status) public onlyOwner {\n        preSale = _status;\n    }\n\n    function setInheritence(uint256 _buyer, uint256 _percent) private {\n        investorsInheritance.addr = msg.sender;\n        investorsInheritance.percentage = _percent;\n    }\n\n    function changeFlorPrice(uint256 _new_price) public onlyOwner {\n        flor_price_pre_sale = _new_price;\n    }\n\n    function changeSaleState(uint256 _input) public onlyOwner {\n        if (_input == 0) {\n            saleState = State.Closed;\n        } else {\n            saleState = State.Open;\n        }\n    }\n\n    function minterAdd(uint256 nftid) private {\n        mintOwners[msg.sender].push(nftid);\n    }\n\n    function getSaleState() public view returns (State) {\n        return saleState;\n    }\n\n    function mintCollectedAllowed(address _recipient)\n        public\n        view\n        returns (bool)\n    {\n        if (mintOwners[_recipient].length <= maxAllowableMintPresale) {\n            return true;\n        } else {\n            return false;\n        }\n    }\n\n    function getNumberOfCollected(address _recipient)\n        public\n        view\n        returns (uint256)\n    {\n        return mintOwners[_recipient].length;\n    }\n\n    function numberOfMintable(address _recipient, uint256 _quantity)\n        public\n        view\n        returns (uint256)\n    {\n        uint256 number_of_collected = getNumberOfCollected(_recipient);\n        if ((_quantity + number_of_collected) <= maxAllowableMintPresale) {\n            return (_quantity - number_of_collected);\n        } else {\n            if (_quantity > maxAllowableMintPresale) {\n                return (maxAllowableMintPresale - number_of_collected);\n            } else {\n                return 0;\n            }\n        }\n    }\n\n    function mintNow(address _recipient, string memory _tokenURI)\n        public\n        returns (uint256)\n    {\n        _tokenIds.increment();\n        uint256 newItemId = _tokenIds.current();\n        _mint(_recipient, newItemId);\n        _setTokenURI(newItemId, _tokenURI);\n        firstOwners[newItemId] = payable(_recipient);\n        minterAdd(newItemId);\n        return newItemId;\n    }\n\n    modifier saleStateCheck() {\n        require(saleState == State.Open, \"Sale is not started yet!\");\n        _;\n    }\n\n    modifier preSaleCheck() {\n        require(preSale == true, \"Presale is not started yet!\");\n        _;\n    }\n\n    function preSaleMint(\n        address _recipient,\n        string memory _tokenURI,\n        uint256 _quantity\n    ) public saleStateCheck preSaleCheck returns (uint256[] memory) {\n        if (\n            mintCollectedAllowed(_recipient) &&\n            maxAllowableMintPresale >= _quantity\n        ) {\n            uint256[] memory mintedItems;\n            for (\n                uint256 i = 1;\n                i < numberOfMintable(_recipient, _quantity);\n                i++\n            ) {\n                uint256 newItemId = mintNow(_recipient, _tokenURI);\n                mintedItems[i] = (newItemId);\n            }\n            return mintedItems;\n        } else {}\n    }\n\n    function getWalletBalance() public view onlyOwner returns (uint256) {\n        return address(this).balance;\n    }\n\n    modifier sendableAmountCheck(uint256 _amount) {\n        require(_amount <= getWalletBalance(), \"Not enough balance to send!\");\n        _;\n    }\n\n    function transferContractBalance(\n        address payable _recipient,\n        uint256 _amount\n    ) public onlyOwner sendableAmountCheck(_amount) returns (bool) {\n        _recipient.transfer(_amount);\n        return true;\n    }\n\n    function setBaseURI(string memory _baseURI) external onlyOwner {\n        baseURI = _baseURI;\n    }\n\n    function getBaseURI() external view onlyOwner returns (string memory) {\n        return baseURI;\n    }\n}\n",
  "sourcePath": "/Users/akinipek/CozyContract/cozycontract2/contracts/CozyHome.sol",
  "compiler": {
    "name": "solc",
    "version": "0.8.9+commit.e5eed63a.Emscripten.clang"
  },
  "schemaVersion": "3.4.3",
  "updatedAt": "2021-11-09T23:51:00.822Z",
  "networkType": "ethereum",
  "devdoc": {
    "kind": "dev",
    "methods": {
      "approve(address,uint256)": {
        "details": "See {IERC721-approve}."
      },
      "balanceOf(address)": {
        "details": "See {IERC721-balanceOf}."
      },
      "getApproved(uint256)": {
        "details": "See {IERC721-getApproved}."
      },
      "isApprovedForAll(address,address)": {
        "details": "See {IERC721-isApprovedForAll}."
      },
      "name()": {
        "details": "See {IERC721Metadata-name}."
      },
      "owner()": {
        "details": "Returns the address of the current owner."
      },
      "ownerOf(uint256)": {
        "details": "See {IERC721-ownerOf}."
      },
      "renounceOwnership()": {
        "details": "Leaves the contract without owner. It will not be possible to call `onlyOwner` functions anymore. Can only be called by the current owner. NOTE: Renouncing ownership will leave the contract without an owner, thereby removing any functionality that is only available to the owner."
      },
      "safeTransferFrom(address,address,uint256)": {
        "details": "See {IERC721-safeTransferFrom}."
      },
      "safeTransferFrom(address,address,uint256,bytes)": {
        "details": "See {IERC721-safeTransferFrom}."
      },
      "setApprovalForAll(address,bool)": {
        "details": "See {IERC721-setApprovalForAll}."
      },
      "supportsInterface(bytes4)": {
        "details": "See {IERC165-supportsInterface}."
      },
      "symbol()": {
        "details": "See {IERC721Metadata-symbol}."
      },
      "tokenURI(uint256)": {
        "details": "See {IERC721Metadata-tokenURI}."
      },
      "transferFrom(address,address,uint256)": {
        "details": "See {IERC721-transferFrom}."
      },
      "transferOwnership(address)": {
        "details": "Transfers ownership of the contract to a new account (`newOwner`). Can only be called by the current owner."
      }
    },
    "version": 1
  },
  "userdoc": {
    "kind": "user",
    "methods": {},
    "version": 1
  }
}