{
  "contractName": "CozyHome",
  "abi": [
    {
      "inputs": [
        {
          "internalType": "uint256",
          "name": "_percent",
          "type": "uint256"
        }
      ],
      "stateMutability": "payable",
      "type": "constructor",
      "payable": true
    },
    {
      "anonymous": false,
      "inputs": [
        {
          "indexed": true,
          "internalType": "address",
          "name": "owner",
          "type": "address"
        },
        {
          "indexed": true,
          "internalType": "address",
          "name": "approved",
          "type": "address"
        },
        {
          "indexed": true,
          "internalType": "uint256",
          "name": "tokenId",
          "type": "uint256"
        }
      ],
      "name": "Approval",
      "type": "event"
    },
    {
      "anonymous": false,
      "inputs": [
        {
          "indexed": true,
          "internalType": "address",
          "name": "owner",
          "type": "address"
        },
        {
          "indexed": true,
          "internalType": "address",
          "name": "operator",
          "type": "address"
        },
        {
          "indexed": false,
          "internalType": "bool",
          "name": "approved",
          "type": "bool"
        }
      ],
      "name": "ApprovalForAll",
      "type": "event"
    },
    {
      "anonymous": false,
      "inputs": [
        {
          "indexed": true,
          "internalType": "address",
          "name": "previousOwner",
          "type": "address"
        },
        {
          "indexed": true,
          "internalType": "address",
          "name": "newOwner",
          "type": "address"
        }
      ],
      "name": "OwnershipTransferred",
      "type": "event"
    },
    {
      "anonymous": false,
      "inputs": [
        {
          "indexed": false,
          "internalType": "address",
          "name": "",
          "type": "address"
        },
        {
          "indexed": false,
          "internalType": "uint256",
          "name": "",
          "type": "uint256"
        }
      ],
      "name": "Received",
      "type": "event"
    },
    {
      "anonymous": false,
      "inputs": [
        {
          "indexed": true,
          "internalType": "address",
          "name": "from",
          "type": "address"
        },
        {
          "indexed": true,
          "internalType": "address",
          "name": "to",
          "type": "address"
        },
        {
          "indexed": true,
          "internalType": "uint256",
          "name": "tokenId",
          "type": "uint256"
        }
      ],
      "name": "Transfer",
      "type": "event"
    },
    {
      "stateMutability": "payable",
      "type": "fallback",
      "payable": true
    },
    {
      "inputs": [
        {
          "internalType": "address",
          "name": "to",
          "type": "address"
        },
        {
          "internalType": "uint256",
          "name": "tokenId",
          "type": "uint256"
        }
      ],
      "name": "approve",
      "outputs": [],
      "stateMutability": "nonpayable",
      "type": "function"
    },
    {
      "inputs": [
        {
          "internalType": "address",
          "name": "owner",
          "type": "address"
        }
      ],
      "name": "balanceOf",
      "outputs": [
        {
          "internalType": "uint256",
          "name": "",
          "type": "uint256"
        }
      ],
      "stateMutability": "view",
      "type": "function",
      "constant": true
    },
    {
      "inputs": [
        {
          "internalType": "uint256",
          "name": "",
          "type": "uint256"
        }
      ],
      "name": "firstOwners",
      "outputs": [
        {
          "internalType": "address",
          "name": "",
          "type": "address"
        }
      ],
      "stateMutability": "view",
      "type": "function",
      "constant": true
    },
    {
      "inputs": [],
      "name": "flor_price_pre_sale",
      "outputs": [
        {
          "internalType": "uint256",
          "name": "",
          "type": "uint256"
        }
      ],
      "stateMutability": "view",
      "type": "function",
      "constant": true
    },
    {
      "inputs": [
        {
          "internalType": "uint256",
          "name": "tokenId",
          "type": "uint256"
        }
      ],
      "name": "getApproved",
      "outputs": [
        {
          "internalType": "address",
          "name": "",
          "type": "address"
        }
      ],
      "stateMutability": "view",
      "type": "function",
      "constant": true
    },
    {
      "inputs": [
        {
          "internalType": "address",
          "name": "owner",
          "type": "address"
        },
        {
          "internalType": "address",
          "name": "operator",
          "type": "address"
        }
      ],
      "name": "isApprovedForAll",
      "outputs": [
        {
          "internalType": "bool",
          "name": "",
          "type": "bool"
        }
      ],
      "stateMutability": "view",
      "type": "function",
      "constant": true
    },
    {
      "inputs": [],
      "name": "maxAllowableMintPresale",
      "outputs": [
        {
          "internalType": "uint256",
          "name": "",
          "type": "uint256"
        }
      ],
      "stateMutability": "view",
      "type": "function",
      "constant": true
    },
    {
      "inputs": [],
      "name": "max_pre_sale_purchase",
      "outputs": [
        {
          "internalType": "uint256",
          "name": "",
          "type": "uint256"
        }
      ],
      "stateMutability": "view",
      "type": "function",
      "constant": true
    },
    {
      "inputs": [],
      "name": "max_pre_sale_quantity",
      "outputs": [
        {
          "internalType": "uint256",
          "name": "",
          "type": "uint256"
        }
      ],
      "stateMutability": "view",
      "type": "function",
      "constant": true
    },
    {
      "inputs": [],
      "name": "name",
      "outputs": [
        {
          "internalType": "string",
          "name": "",
          "type": "string"
        }
      ],
      "stateMutability": "view",
      "type": "function",
      "constant": true
    },
    {
      "inputs": [],
      "name": "owner",
      "outputs": [
        {
          "internalType": "address",
          "name": "",
          "type": "address"
        }
      ],
      "stateMutability": "view",
      "type": "function",
      "constant": true
    },
    {
      "inputs": [
        {
          "internalType": "uint256",
          "name": "tokenId",
          "type": "uint256"
        }
      ],
      "name": "ownerOf",
      "outputs": [
        {
          "internalType": "address",
          "name": "",
          "type": "address"
        }
      ],
      "stateMutability": "view",
      "type": "function",
      "constant": true
    },
    {
      "inputs": [],
      "name": "preSale",
      "outputs": [
        {
          "internalType": "bool",
          "name": "",
          "type": "bool"
        }
      ],
      "stateMutability": "view",
      "type": "function",
      "constant": true
    },
    {
      "inputs": [],
      "name": "renounceOwnership",
      "outputs": [],
      "stateMutability": "nonpayable",
      "type": "function"
    },
    {
      "inputs": [
        {
          "internalType": "address",
          "name": "from",
          "type": "address"
        },
        {
          "internalType": "address",
          "name": "to",
          "type": "address"
        },
        {
          "internalType": "uint256",
          "name": "tokenId",
          "type": "uint256"
        }
      ],
      "name": "safeTransferFrom",
      "outputs": [],
      "stateMutability": "nonpayable",
      "type": "function"
    },
    {
      "inputs": [
        {
          "internalType": "address",
          "name": "from",
          "type": "address"
        },
        {
          "internalType": "address",
          "name": "to",
          "type": "address"
        },
        {
          "internalType": "uint256",
          "name": "tokenId",
          "type": "uint256"
        },
        {
          "internalType": "bytes",
          "name": "_data",
          "type": "bytes"
        }
      ],
      "name": "safeTransferFrom",
      "outputs": [],
      "stateMutability": "nonpayable",
      "type": "function"
    },
    {
      "inputs": [],
      "name": "saleState",
      "outputs": [
        {
          "internalType": "enum CozyHome.State",
          "name": "",
          "type": "uint8"
        }
      ],
      "stateMutability": "view",
      "type": "function",
      "constant": true
    },
    {
      "inputs": [
        {
          "internalType": "address",
          "name": "operator",
          "type": "address"
        },
        {
          "internalType": "bool",
          "name": "approved",
          "type": "bool"
        }
      ],
      "name": "setApprovalForAll",
      "outputs": [],
      "stateMutability": "nonpayable",
      "type": "function"
    },
    {
      "inputs": [
        {
          "internalType": "bytes4",
          "name": "interfaceId",
          "type": "bytes4"
        }
      ],
      "name": "supportsInterface",
      "outputs": [
        {
          "internalType": "bool",
          "name": "",
          "type": "bool"
        }
      ],
      "stateMutability": "view",
      "type": "function",
      "constant": true
    },
    {
      "inputs": [],
      "name": "symbol",
      "outputs": [
        {
          "internalType": "string",
          "name": "",
          "type": "string"
        }
      ],
      "stateMutability": "view",
      "type": "function",
      "constant": true
    },
    {
      "inputs": [],
      "name": "total_first_mintable",
      "outputs": [
        {
          "internalType": "uint256",
          "name": "",
          "type": "uint256"
        }
      ],
      "stateMutability": "view",
      "type": "function",
      "constant": true
    },
    {
      "inputs": [
        {
          "internalType": "address",
          "name": "from",
          "type": "address"
        },
        {
          "internalType": "address",
          "name": "to",
          "type": "address"
        },
        {
          "internalType": "uint256",
          "name": "tokenId",
          "type": "uint256"
        }
      ],
      "name": "transferFrom",
      "outputs": [],
      "stateMutability": "nonpayable",
      "type": "function"
    },
    {
      "inputs": [
        {
          "internalType": "address",
          "name": "newOwner",
          "type": "address"
        }
      ],
      "name": "transferOwnership",
      "outputs": [],
      "stateMutability": "nonpayable",
      "type": "function"
    },
    {
      "stateMutability": "payable",
      "type": "receive",
      "payable": true
    },
    {
      "inputs": [
        {
          "internalType": "bool",
          "name": "_status",
          "type": "bool"
        }
      ],
      "name": "changePreSaleState",
      "outputs": [],
      "stateMutability": "nonpayable",
      "type": "function"
    },
    {
      "inputs": [
        {
          "internalType": "uint256",
          "name": "_new_price",
          "type": "uint256"
        }
      ],
      "name": "changeFlorPrice",
      "outputs": [],
      "stateMutability": "nonpayable",
      "type": "function"
    },
    {
      "inputs": [
        {
          "internalType": "uint256",
          "name": "_input",
          "type": "uint256"
        }
      ],
      "name": "changeSaleState",
      "outputs": [],
      "stateMutability": "nonpayable",
      "type": "function"
    },
    {
      "inputs": [],
      "name": "getSaleState",
      "outputs": [
        {
          "internalType": "enum CozyHome.State",
          "name": "",
          "type": "uint8"
        }
      ],
      "stateMutability": "view",
      "type": "function",
      "constant": true
    },
    {
      "inputs": [
        {
          "internalType": "address",
          "name": "_recipient",
          "type": "address"
        }
      ],
      "name": "mintCollectedAllowed",
      "outputs": [
        {
          "internalType": "bool",
          "name": "",
          "type": "bool"
        }
      ],
      "stateMutability": "view",
      "type": "function",
      "constant": true
    },
    {
      "inputs": [
        {
          "internalType": "address",
          "name": "_recipient",
          "type": "address"
        }
      ],
      "name": "getNumberOfCollected",
      "outputs": [
        {
          "internalType": "uint256",
          "name": "",
          "type": "uint256"
        }
      ],
      "stateMutability": "view",
      "type": "function",
      "constant": true
    },
    {
      "inputs": [
        {
          "internalType": "address",
          "name": "_recipient",
          "type": "address"
        },
        {
          "internalType": "uint256",
          "name": "_quantity",
          "type": "uint256"
        }
      ],
      "name": "numberOfMintable",
      "outputs": [
        {
          "internalType": "uint256",
          "name": "",
          "type": "uint256"
        }
      ],
      "stateMutability": "view",
      "type": "function",
      "constant": true
    },
    {
      "inputs": [
        {
          "internalType": "string",
          "name": "_baseURI",
          "type": "string"
        }
      ],
      "name": "setBaseURI",
      "outputs": [],
      "stateMutability": "nonpayable",
      "type": "function"
    },
    {
      "inputs": [],
      "name": "getBaseURI",
      "outputs": [
        {
          "internalType": "string",
          "name": "",
          "type": "string"
        }
      ],
      "stateMutability": "view",
      "type": "function",
      "constant": true
    },
    {
      "inputs": [
        {
          "internalType": "uint256",
          "name": "tokenId",
          "type": "uint256"
        }
      ],
      "name": "tokenURI",
      "outputs": [
        {
          "internalType": "string",
          "name": "",
          "type": "string"
        }
      ],
      "stateMutability": "view",
      "type": "function",
      "constant": true
    },
    {
      "inputs": [
        {
          "internalType": "address",
          "name": "_recipient",
          "type": "address"
        },
        {
          "internalType": "string",
          "name": "_tokenURI",
          "type": "string"
        }
      ],
      "name": "mintNow",
      "outputs": [
        {
          "internalType": "uint256",
          "name": "",
          "type": "uint256"
        }
      ],
      "stateMutability": "nonpayable",
      "type": "function"
    },
    {
      "inputs": [
        {
          "internalType": "address",
          "name": "_recipient",
          "type": "address"
        },
        {
          "internalType": "string",
          "name": "_tokenURI",
          "type": "string"
        },
        {
          "internalType": "uint256",
          "name": "_quantity",
          "type": "uint256"
        }
      ],
      "name": "preSaleMint",
      "outputs": [
        {
          "internalType": "uint256[]",
          "name": "",
          "type": "uint256[]"
        }
      ],
      "stateMutability": "payable",
      "type": "function",
      "payable": true
    },
    {
      "inputs": [],
      "name": "getWalletBalance",
      "outputs": [
        {
          "internalType": "uint256",
          "name": "",
          "type": "uint256"
        }
      ],
      "stateMutability": "view",
      "type": "function",
      "constant": true
    },
    {
      "inputs": [
        {
          "internalType": "address payable",
          "name": "_recipient",
          "type": "address"
        },
        {
          "internalType": "uint256",
          "name": "_amount",
          "type": "uint256"
        }
      ],
      "name": "transferContractBalance",
      "outputs": [
        {
          "internalType": "bool",
          "name": "",
          "type": "bool"
        }
      ],
      "stateMutability": "nonpayable",
      "type": "function"
    }
  ],
  "bytecode": "0x6080604052670429d069189e00006009556003600a55611a90600b556103e8600c556005600d55604051806080016040528060518152602001620044e760519139600e9080519060200190620000579291906200025b565b506001600f60006101000a81548160ff0219169083151502179055506000601660006101000a81548160ff021916908360018111156200009c576200009b6200030b565b5b021790555060405162004538380380620045388339818101604052810190620000c691906200037a565b6040518060400160405280600881526020017f436f7a79486f6d650000000000000000000000000000000000000000000000008152506040518060400160405280600381526020017f4e4654000000000000000000000000000000000000000000000000000000000081525081600090805190602001906200014a9291906200025b565b508060019080519060200190620001639291906200025b565b505050620001866200017a6200018d60201b60201c565b6200019560201b60201c565b5062000411565b600033905090565b6000600760009054906101000a900473ffffffffffffffffffffffffffffffffffffffff16905081600760006101000a81548173ffffffffffffffffffffffffffffffffffffffff021916908373ffffffffffffffffffffffffffffffffffffffff1602179055508173ffffffffffffffffffffffffffffffffffffffff168173ffffffffffffffffffffffffffffffffffffffff167f8be0079c531659141344cd1fd0a4f28419497f9722a3daafe3b4186f6b6457e060405160405180910390a35050565b8280546200026990620003db565b90600052602060002090601f0160209004810192826200028d5760008555620002d9565b82601f10620002a857805160ff1916838001178555620002d9565b82800160010185558215620002d9579182015b82811115620002d8578251825591602001919060010190620002bb565b5b509050620002e89190620002ec565b5090565b5b8082111562000307576000816000905550600101620002ed565b5090565b7f4e487b7100000000000000000000000000000000000000000000000000000000600052602160045260246000fd5b600080fd5b6000819050919050565b62000354816200033f565b81146200036057600080fd5b50565b600081519050620003748162000349565b92915050565b6000602082840312156200039357620003926200033a565b5b6000620003a38482850162000363565b91505092915050565b7f4e487b7100000000000000000000000000000000000000000000000000000000600052602260045260246000fd5b60006002820490506001821680620003f457607f821691505b602082108114156200040b576200040a620003ac565b5b50919050565b6140c680620004216000396000f3fe60806040526004361061021e5760003560e01c806370a0823111610123578063b88d4fde116100ab578063e985e9c51161006f578063e985e9c514610855578063eae7d2d014610892578063efaff03c146108bb578063f2fde38b146108f8578063f55ae6e0146109215761025e565b8063b88d4fde1461075c578063c5b1374d14610785578063c87b56dd146107b0578063e1bd2abe146107ed578063e52ace55146108185761025e565b80638da5cb5b116100f25780638da5cb5b1461068457806395978604146106af57806395d89b41146106df578063a22cb4651461070a578063a776155d146107335761025e565b806370a08231146105dc578063714c539814610619578063715018a614610644578063743703a11461065b5761025e565b8063329a27e7116101a65780635a7adf7f116101755780635a7adf7f146104f3578063603f4d521461051e5780636352211e1461054957806366e71c01146105865780636abe3fce146105b15761025e565b8063329a27e71461043957806342842e0e146104645780634bf4d2671461048d57806355f804b3146104ca5761025e565b806310a5a3d9116101ed57806310a5a3d91461032e57806321677ae81461036b57806323b872dd146103a8578063255d474f146103d157806325bdb2a81461040e5761025e565b806301ffc9a71461026057806306fdde031461029d578063081812fc146102c8578063095ea7b3146103055761025e565b3661025e577f88a5966d370b9919b20f3e2c13ff65706f196a4e32cc2c12bf57088f88525874333460405161025492919061299f565b60405180910390a1005b005b34801561026c57600080fd5b5061028760048036038101906102829190612a34565b61094c565b6040516102949190612a7c565b60405180910390f35b3480156102a957600080fd5b506102b2610a2e565b6040516102bf9190612b30565b60405180910390f35b3480156102d457600080fd5b506102ef60048036038101906102ea9190612b7e565b610ac0565b6040516102fc9190612bab565b60405180910390f35b34801561031157600080fd5b5061032c60048036038101906103279190612bf2565b610b45565b005b34801561033a57600080fd5b5061035560048036038101906103509190612c70565b610c5d565b6040516103629190612a7c565b60405180910390f35b34801561037757600080fd5b50610392600480360381019061038d9190612bf2565b610d78565b60405161039f9190612cb0565b60405180910390f35b3480156103b457600080fd5b506103cf60048036038101906103ca9190612ccb565b610dcf565b005b3480156103dd57600080fd5b506103f860048036038101906103f39190612d1e565b610e2f565b6040516104059190612a7c565b60405180910390f35b34801561041a57600080fd5b50610423610e8f565b6040516104309190612dc2565b60405180910390f35b34801561044557600080fd5b5061044e610ea6565b60405161045b9190612cb0565b60405180910390f35b34801561047057600080fd5b5061048b60048036038101906104869190612ccb565b610f2a565b005b34801561049957600080fd5b506104b460048036038101906104af9190612d1e565b610f4a565b6040516104c19190612cb0565b60405180910390f35b3480156104d657600080fd5b506104f160048036038101906104ec9190612f12565b610f96565b005b3480156104ff57600080fd5b5061050861102c565b6040516105159190612a7c565b60405180910390f35b34801561052a57600080fd5b5061053361103f565b6040516105409190612dc2565b60405180910390f35b34801561055557600080fd5b50610570600480360381019061056b9190612b7e565b611052565b60405161057d9190612bab565b60405180910390f35b34801561059257600080fd5b5061059b611104565b6040516105a89190612cb0565b60405180910390f35b3480156105bd57600080fd5b506105c661110a565b6040516105d39190612cb0565b60405180910390f35b3480156105e857600080fd5b5061060360048036038101906105fe9190612d1e565b611110565b6040516106109190612cb0565b60405180910390f35b34801561062557600080fd5b5061062e6111c8565b60405161063b9190612b30565b60405180910390f35b34801561065057600080fd5b506106596112d6565b005b34801561066757600080fd5b50610682600480360381019061067d9190612b7e565b61135e565b005b34801561069057600080fd5b506106996113e4565b6040516106a69190612bab565b60405180910390f35b6106c960048036038101906106c49190612f5b565b61140e565b6040516106d69190613088565b60405180910390f35b3480156106eb57600080fd5b506106f4611602565b6040516107019190612b30565b60405180910390f35b34801561071657600080fd5b50610731600480360381019061072c91906130d6565b611694565b005b34801561073f57600080fd5b5061075a60048036038101906107559190613116565b611815565b005b34801561076857600080fd5b50610783600480360381019061077e91906131e4565b6118ae565b005b34801561079157600080fd5b5061079a611910565b6040516107a79190612cb0565b60405180910390f35b3480156107bc57600080fd5b506107d760048036038101906107d29190612b7e565b611916565b6040516107e49190612b30565b60405180910390f35b3480156107f957600080fd5b50610802611a5d565b60405161080f9190612cb0565b60405180910390f35b34801561082457600080fd5b5061083f600480360381019061083a9190613267565b611a63565b60405161084c9190612cb0565b60405180910390f35b34801561086157600080fd5b5061087c600480360381019061087791906132c3565b611af6565b6040516108899190612a7c565b60405180910390f35b34801561089e57600080fd5b506108b960048036038101906108b49190612b7e565b611b8a565b005b3480156108c757600080fd5b506108e260048036038101906108dd9190612b7e565b611c6e565b6040516108ef9190612bab565b60405180910390f35b34801561090457600080fd5b5061091f600480360381019061091a9190612d1e565b611ca1565b005b34801561092d57600080fd5b50610936611d99565b6040516109439190612cb0565b60405180910390f35b60007f80ac58cd000000000000000000000000000000000000000000000000000000007bffffffffffffffffffffffffffffffffffffffffffffffffffffffff1916827bffffffffffffffffffffffffffffffffffffffffffffffffffffffff19161480610a1757507f5b5e139f000000000000000000000000000000000000000000000000000000007bffffffffffffffffffffffffffffffffffffffffffffffffffffffff1916827bffffffffffffffffffffffffffffffffffffffffffffffffffffffff1916145b80610a275750610a2682611d9f565b5b9050919050565b606060008054610a3d90613332565b80601f0160208091040260200160405190810160405280929190818152602001828054610a6990613332565b8015610ab65780601f10610a8b57610100808354040283529160200191610ab6565b820191906000526020600020905b815481529060010190602001808311610a9957829003601f168201915b5050505050905090565b6000610acb82611e09565b610b0a576040517f08c379a0000000000000000000000000000000000000000000000000000000008152600401610b01906133d6565b60405180910390fd5b6004600083815260200190815260200160002060009054906101000a900473ffffffffffffffffffffffffffffffffffffffff169050919050565b6000610b5082611052565b90508073ffffffffffffffffffffffffffffffffffffffff168373ffffffffffffffffffffffffffffffffffffffff161415610bc1576040517f08c379a0000000000000000000000000000000000000000000000000000000008152600401610bb890613468565b60405180910390fd5b8073ffffffffffffffffffffffffffffffffffffffff16610be0611e75565b73ffffffffffffffffffffffffffffffffffffffff161480610c0f5750610c0e81610c09611e75565b611af6565b5b610c4e576040517f08c379a0000000000000000000000000000000000000000000000000000000008152600401610c45906134fa565b60405180910390fd5b610c588383611e7d565b505050565b6000610c67611e75565b73ffffffffffffffffffffffffffffffffffffffff16610c856113e4565b73ffffffffffffffffffffffffffffffffffffffff1614610cdb576040517f08c379a0000000000000000000000000000000000000000000000000000000008152600401610cd290613566565b60405180910390fd5b81610ce4610ea6565b811115610d26576040517f08c379a0000000000000000000000000000000000000000000000000000000008152600401610d1d906135d2565b60405180910390fd5b8373ffffffffffffffffffffffffffffffffffffffff166108fc849081150290604051600060405180830381858888f19350505050158015610d6c573d6000803e3d6000fd5b50600191505092915050565b600080610d8484610f4a565b9050600d548184610d959190613621565b11610da35782915050610dc9565b600d54831115610dc35780600d54610dbb9190613677565b915050610dc9565b60009150505b92915050565b610de0610dda611e75565b82611f36565b610e1f576040517f08c379a0000000000000000000000000000000000000000000000000000000008152600401610e169061371d565b60405180910390fd5b610e2a838383612014565b505050565b6000600d54601560008473ffffffffffffffffffffffffffffffffffffffff1673ffffffffffffffffffffffffffffffffffffffff1681526020019081526020016000208054905011610e855760019050610e8a565b600090505b919050565b6000601660009054906101000a900460ff16905090565b6000610eb0611e75565b73ffffffffffffffffffffffffffffffffffffffff16610ece6113e4565b73ffffffffffffffffffffffffffffffffffffffff1614610f24576040517f08c379a0000000000000000000000000000000000000000000000000000000008152600401610f1b90613566565b60405180910390fd5b47905090565b610f45838383604051806020016040528060008152506118ae565b505050565b6000601560008373ffffffffffffffffffffffffffffffffffffffff1673ffffffffffffffffffffffffffffffffffffffff168152602001908152602001600020805490509050919050565b610f9e611e75565b73ffffffffffffffffffffffffffffffffffffffff16610fbc6113e4565b73ffffffffffffffffffffffffffffffffffffffff1614611012576040517f08c379a000000000000000000000000000000000000000000000000000000000815260040161100990613566565b60405180910390fd5b80600e90805190602001906110289291906128a2565b5050565b600f60009054906101000a900460ff1681565b601660009054906101000a900460ff1681565b6000806002600084815260200190815260200160002060009054906101000a900473ffffffffffffffffffffffffffffffffffffffff169050600073ffffffffffffffffffffffffffffffffffffffff168173ffffffffffffffffffffffffffffffffffffffff1614156110fb576040517f08c379a00000000000000000000000000000000000000000000000000000000081526004016110f2906137af565b60405180910390fd5b80915050919050565b600b5481565b600c5481565b60008073ffffffffffffffffffffffffffffffffffffffff168273ffffffffffffffffffffffffffffffffffffffff161415611181576040517f08c379a000000000000000000000000000000000000000000000000000000000815260040161117890613841565b60405180910390fd5b600360008373ffffffffffffffffffffffffffffffffffffffff1673ffffffffffffffffffffffffffffffffffffffff168152602001908152602001600020549050919050565b60606111d2611e75565b73ffffffffffffffffffffffffffffffffffffffff166111f06113e4565b73ffffffffffffffffffffffffffffffffffffffff1614611246576040517f08c379a000000000000000000000000000000000000000000000000000000000815260040161123d90613566565b60405180910390fd5b600e805461125390613332565b80601f016020809104026020016040519081016040528092919081815260200182805461127f90613332565b80156112cc5780601f106112a1576101008083540402835291602001916112cc565b820191906000526020600020905b8154815290600101906020018083116112af57829003601f168201915b5050505050905090565b6112de611e75565b73ffffffffffffffffffffffffffffffffffffffff166112fc6113e4565b73ffffffffffffffffffffffffffffffffffffffff1614611352576040517f08c379a000000000000000000000000000000000000000000000000000000000815260040161134990613566565b60405180910390fd5b61135c6000612270565b565b611366611e75565b73ffffffffffffffffffffffffffffffffffffffff166113846113e4565b73ffffffffffffffffffffffffffffffffffffffff16146113da576040517f08c379a00000000000000000000000000000000000000000000000000000000081526004016113d190613566565b60405180910390fd5b8060098190555050565b6000600760009054906101000a900473ffffffffffffffffffffffffffffffffffffffff16905090565b60606000600181111561142457611423612d4b565b5b601660009054906101000a900460ff16600181111561144657611445612d4b565b5b14611486576040517f08c379a000000000000000000000000000000000000000000000000000000000815260040161147d906138ad565b60405180910390fd5b60011515600f60009054906101000a900460ff161515146114dc576040517f08c379a00000000000000000000000000000000000000000000000000000000081526004016114d390613919565b60405180910390fd5b6114e584610e2f565b80156114f3575081600d5410155b156115fa5760006115048584610d78565b905060008167ffffffffffffffff81111561152257611521612de7565b5b6040519080825280602002602001820160405280156115505781602001602082028036833780820191505090505b509050816009546115619190613939565b34146115a2576040517f08c379a000000000000000000000000000000000000000000000000000000000815260040161159990613a05565b60405180910390fd5b60005b828110156115ef5760006115b98888611a63565b9050808383815181106115cf576115ce613a25565b5b6020026020010181815250505080806115e790613a54565b9150506115a5565b5080925050506115fb565b5b9392505050565b60606001805461161190613332565b80601f016020809104026020016040519081016040528092919081815260200182805461163d90613332565b801561168a5780601f1061165f5761010080835404028352916020019161168a565b820191906000526020600020905b81548152906001019060200180831161166d57829003601f168201915b5050505050905090565b61169c611e75565b73ffffffffffffffffffffffffffffffffffffffff168273ffffffffffffffffffffffffffffffffffffffff16141561170a576040517f08c379a000000000000000000000000000000000000000000000000000000000815260040161170190613ae9565b60405180910390fd5b8060056000611717611e75565b73ffffffffffffffffffffffffffffffffffffffff1673ffffffffffffffffffffffffffffffffffffffff16815260200190815260200160002060008473ffffffffffffffffffffffffffffffffffffffff1673ffffffffffffffffffffffffffffffffffffffff16815260200190815260200160002060006101000a81548160ff0219169083151502179055508173ffffffffffffffffffffffffffffffffffffffff166117c4611e75565b73ffffffffffffffffffffffffffffffffffffffff167f17307eab39ab6107e8899845ad3d59bd9653f200f220920489ca2b5937696c31836040516118099190612a7c565b60405180910390a35050565b61181d611e75565b73ffffffffffffffffffffffffffffffffffffffff1661183b6113e4565b73ffffffffffffffffffffffffffffffffffffffff1614611891576040517f08c379a000000000000000000000000000000000000000000000000000000000815260040161188890613566565b60405180910390fd5b80600f60006101000a81548160ff02191690831515021790555050565b6118bf6118b9611e75565b83611f36565b6118fe576040517f08c379a00000000000000000000000000000000000000000000000000000000081526004016118f59061371d565b60405180910390fd5b61190a84848484612336565b50505050565b60095481565b606061192182611e09565b611960576040517f08c379a000000000000000000000000000000000000000000000000000000000815260040161195790613b7b565b60405180910390fd5b600060136000848152602001908152602001600020805461198090613332565b80601f01602080910402602001604051908101604052809291908181526020018280546119ac90613332565b80156119f95780601f106119ce576101008083540402835291602001916119f9565b820191906000526020600020905b8154815290600101906020018083116119dc57829003601f168201915b505050505090506000611a0a612392565b9050600081511415611a20578192505050611a58565b600082511115611a55578082604051602001611a3d929190613bd7565b60405160208183030381529060405292505050611a58565b50505b919050565b600a5481565b6000611a6f6008612424565b6000611a7b600861243a565b9050611a878482612448565b611a918184612616565b836014600083815260200190815260200160002060006101000a81548173ffffffffffffffffffffffffffffffffffffffff021916908373ffffffffffffffffffffffffffffffffffffffff160217905550611aec8161268a565b8091505092915050565b6000600560008473ffffffffffffffffffffffffffffffffffffffff1673ffffffffffffffffffffffffffffffffffffffff16815260200190815260200160002060008373ffffffffffffffffffffffffffffffffffffffff1673ffffffffffffffffffffffffffffffffffffffff16815260200190815260200160002060009054906101000a900460ff16905092915050565b611b92611e75565b73ffffffffffffffffffffffffffffffffffffffff16611bb06113e4565b73ffffffffffffffffffffffffffffffffffffffff1614611c06576040517f08c379a0000000000000000000000000000000000000000000000000000000008152600401611bfd90613566565b60405180910390fd5b6000811415611c3f576001601660006101000a81548160ff02191690836001811115611c3557611c34612d4b565b5b0217905550611c6b565b6000601660006101000a81548160ff02191690836001811115611c6557611c64612d4b565b5b02179055505b50565b60146020528060005260406000206000915054906101000a900473ffffffffffffffffffffffffffffffffffffffff1681565b611ca9611e75565b73ffffffffffffffffffffffffffffffffffffffff16611cc76113e4565b73ffffffffffffffffffffffffffffffffffffffff1614611d1d576040517f08c379a0000000000000000000000000000000000000000000000000000000008152600401611d1490613566565b60405180910390fd5b600073ffffffffffffffffffffffffffffffffffffffff168173ffffffffffffffffffffffffffffffffffffffff161415611d8d576040517f08c379a0000000000000000000000000000000000000000000000000000000008152600401611d8490613c6d565b60405180910390fd5b611d9681612270565b50565b600d5481565b60007f01ffc9a7000000000000000000000000000000000000000000000000000000007bffffffffffffffffffffffffffffffffffffffffffffffffffffffff1916827bffffffffffffffffffffffffffffffffffffffffffffffffffffffff1916149050919050565b60008073ffffffffffffffffffffffffffffffffffffffff166002600084815260200190815260200160002060009054906101000a900473ffffffffffffffffffffffffffffffffffffffff1673ffffffffffffffffffffffffffffffffffffffff1614159050919050565b600033905090565b816004600083815260200190815260200160002060006101000a81548173ffffffffffffffffffffffffffffffffffffffff021916908373ffffffffffffffffffffffffffffffffffffffff160217905550808273ffffffffffffffffffffffffffffffffffffffff16611ef083611052565b73ffffffffffffffffffffffffffffffffffffffff167f8c5be1e5ebec7d5bd14f71427d1e84f3dd0314c0f7b2291e5b200ac8c7c3b92560405160405180910390a45050565b6000611f4182611e09565b611f80576040517f08c379a0000000000000000000000000000000000000000000000000000000008152600401611f7790613cff565b60405180910390fd5b6000611f8b83611052565b90508073ffffffffffffffffffffffffffffffffffffffff168473ffffffffffffffffffffffffffffffffffffffff161480611ffa57508373ffffffffffffffffffffffffffffffffffffffff16611fe284610ac0565b73ffffffffffffffffffffffffffffffffffffffff16145b8061200b575061200a8185611af6565b5b91505092915050565b8273ffffffffffffffffffffffffffffffffffffffff1661203482611052565b73ffffffffffffffffffffffffffffffffffffffff161461208a576040517f08c379a000000000000000000000000000000000000000000000000000000000815260040161208190613d91565b60405180910390fd5b600073ffffffffffffffffffffffffffffffffffffffff168273ffffffffffffffffffffffffffffffffffffffff1614156120fa576040517f08c379a00000000000000000000000000000000000000000000000000000000081526004016120f190613e23565b60405180910390fd5b6121058383836126f3565b612110600082611e7d565b6001600360008573ffffffffffffffffffffffffffffffffffffffff1673ffffffffffffffffffffffffffffffffffffffff16815260200190815260200160002060008282546121609190613677565b925050819055506001600360008473ffffffffffffffffffffffffffffffffffffffff1673ffffffffffffffffffffffffffffffffffffffff16815260200190815260200160002060008282546121b79190613621565b92505081905550816002600083815260200190815260200160002060006101000a81548173ffffffffffffffffffffffffffffffffffffffff021916908373ffffffffffffffffffffffffffffffffffffffff160217905550808273ffffffffffffffffffffffffffffffffffffffff168473ffffffffffffffffffffffffffffffffffffffff167fddf252ad1be2c89b69c2b068fc378daa952ba7f163c4a11628f55a4df523b3ef60405160405180910390a4505050565b6000600760009054906101000a900473ffffffffffffffffffffffffffffffffffffffff16905081600760006101000a81548173ffffffffffffffffffffffffffffffffffffffff021916908373ffffffffffffffffffffffffffffffffffffffff1602179055508173ffffffffffffffffffffffffffffffffffffffff168173ffffffffffffffffffffffffffffffffffffffff167f8be0079c531659141344cd1fd0a4f28419497f9722a3daafe3b4186f6b6457e060405160405180910390a35050565b612341848484612014565b61234d848484846126f8565b61238c576040517f08c379a000000000000000000000000000000000000000000000000000000000815260040161238390613eb5565b60405180910390fd5b50505050565b6060600e80546123a190613332565b80601f01602080910402602001604051908101604052809291908181526020018280546123cd90613332565b801561241a5780601f106123ef5761010080835404028352916020019161241a565b820191906000526020600020905b8154815290600101906020018083116123fd57829003601f168201915b5050505050905090565b6001816000016000828254019250508190555050565b600081600001549050919050565b600073ffffffffffffffffffffffffffffffffffffffff168273ffffffffffffffffffffffffffffffffffffffff1614156124b8576040517f08c379a00000000000000000000000000000000000000000000000000000000081526004016124af90613f21565b60405180910390fd5b6124c181611e09565b15612501576040517f08c379a00000000000000000000000000000000000000000000000000000000081526004016124f890613f8d565b60405180910390fd5b61250d600083836126f3565b6001600360008473ffffffffffffffffffffffffffffffffffffffff1673ffffffffffffffffffffffffffffffffffffffff168152602001908152602001600020600082825461255d9190613621565b92505081905550816002600083815260200190815260200160002060006101000a81548173ffffffffffffffffffffffffffffffffffffffff021916908373ffffffffffffffffffffffffffffffffffffffff160217905550808273ffffffffffffffffffffffffffffffffffffffff16600073ffffffffffffffffffffffffffffffffffffffff167fddf252ad1be2c89b69c2b068fc378daa952ba7f163c4a11628f55a4df523b3ef60405160405180910390a45050565b61261f82611e09565b61265e576040517f08c379a000000000000000000000000000000000000000000000000000000000815260040161265590613b7b565b60405180910390fd5b806013600084815260200190815260200160002090805190602001906126859291906128a2565b505050565b601560003373ffffffffffffffffffffffffffffffffffffffff1673ffffffffffffffffffffffffffffffffffffffff16815260200190815260200160002081908060018154018082558091505060019003906000526020600020016000909190919091505550565b505050565b60006127198473ffffffffffffffffffffffffffffffffffffffff1661288f565b15612882578373ffffffffffffffffffffffffffffffffffffffff1663150b7a02612742611e75565b8786866040518563ffffffff1660e01b81526004016127649493929190614002565b602060405180830381600087803b15801561277e57600080fd5b505af19250505080156127af57506040513d601f19601f820116820180604052508101906127ac9190614063565b60015b612832573d80600081146127df576040519150601f19603f3d011682016040523d82523d6000602084013e6127e4565b606091505b5060008151141561282a576040517f08c379a000000000000000000000000000000000000000000000000000000000815260040161282190613eb5565b60405180910390fd5b805181602001fd5b63150b7a0260e01b7bffffffffffffffffffffffffffffffffffffffffffffffffffffffff1916817bffffffffffffffffffffffffffffffffffffffffffffffffffffffff191614915050612887565b600190505b949350505050565b600080823b905060008111915050919050565b8280546128ae90613332565b90600052602060002090601f0160209004810192826128d05760008555612917565b82601f106128e957805160ff1916838001178555612917565b82800160010185558215612917579182015b828111156129165782518255916020019190600101906128fb565b5b5090506129249190612928565b5090565b5b80821115612941576000816000905550600101612929565b5090565b600073ffffffffffffffffffffffffffffffffffffffff82169050919050565b600061297082612945565b9050919050565b61298081612965565b82525050565b6000819050919050565b61299981612986565b82525050565b60006040820190506129b46000830185612977565b6129c16020830184612990565b9392505050565b6000604051905090565b600080fd5b600080fd5b60007fffffffff0000000000000000000000000000000000000000000000000000000082169050919050565b612a11816129dc565b8114612a1c57600080fd5b50565b600081359050612a2e81612a08565b92915050565b600060208284031215612a4a57612a496129d2565b5b6000612a5884828501612a1f565b91505092915050565b60008115159050919050565b612a7681612a61565b82525050565b6000602082019050612a916000830184612a6d565b92915050565b600081519050919050565b600082825260208201905092915050565b60005b83811015612ad1578082015181840152602081019050612ab6565b83811115612ae0576000848401525b50505050565b6000601f19601f8301169050919050565b6000612b0282612a97565b612b0c8185612aa2565b9350612b1c818560208601612ab3565b612b2581612ae6565b840191505092915050565b60006020820190508181036000830152612b4a8184612af7565b905092915050565b612b5b81612986565b8114612b6657600080fd5b50565b600081359050612b7881612b52565b92915050565b600060208284031215612b9457612b936129d2565b5b6000612ba284828501612b69565b91505092915050565b6000602082019050612bc06000830184612977565b92915050565b612bcf81612965565b8114612bda57600080fd5b50565b600081359050612bec81612bc6565b92915050565b60008060408385031215612c0957612c086129d2565b5b6000612c1785828601612bdd565b9250506020612c2885828601612b69565b9150509250929050565b6000612c3d82612945565b9050919050565b612c4d81612c32565b8114612c5857600080fd5b50565b600081359050612c6a81612c44565b92915050565b60008060408385031215612c8757612c866129d2565b5b6000612c9585828601612c5b565b9250506020612ca685828601612b69565b9150509250929050565b6000602082019050612cc56000830184612990565b92915050565b600080600060608486031215612ce457612ce36129d2565b5b6000612cf286828701612bdd565b9350506020612d0386828701612bdd565b9250506040612d1486828701612b69565b9150509250925092565b600060208284031215612d3457612d336129d2565b5b6000612d4284828501612bdd565b91505092915050565b7f4e487b7100000000000000000000000000000000000000000000000000000000600052602160045260246000fd5b60028110612d8b57612d8a612d4b565b5b50565b6000819050612d9c82612d7a565b919050565b6000612dac82612d8e565b9050919050565b612dbc81612da1565b82525050565b6000602082019050612dd76000830184612db3565b92915050565b600080fd5b600080fd5b7f4e487b7100000000000000000000000000000000000000000000000000000000600052604160045260246000fd5b612e1f82612ae6565b810181811067ffffffffffffffff82111715612e3e57612e3d612de7565b5b80604052505050565b6000612e516129c8565b9050612e5d8282612e16565b919050565b600067ffffffffffffffff821115612e7d57612e7c612de7565b5b612e8682612ae6565b9050602081019050919050565b82818337600083830152505050565b6000612eb5612eb084612e62565b612e47565b905082815260208101848484011115612ed157612ed0612de2565b5b612edc848285612e93565b509392505050565b600082601f830112612ef957612ef8612ddd565b5b8135612f09848260208601612ea2565b91505092915050565b600060208284031215612f2857612f276129d2565b5b600082013567ffffffffffffffff811115612f4657612f456129d7565b5b612f5284828501612ee4565b91505092915050565b600080600060608486031215612f7457612f736129d2565b5b6000612f8286828701612bdd565b935050602084013567ffffffffffffffff811115612fa357612fa26129d7565b5b612faf86828701612ee4565b9250506040612fc086828701612b69565b9150509250925092565b600081519050919050565b600082825260208201905092915050565b6000819050602082019050919050565b612fff81612986565b82525050565b60006130118383612ff6565b60208301905092915050565b6000602082019050919050565b600061303582612fca565b61303f8185612fd5565b935061304a83612fe6565b8060005b8381101561307b5781516130628882613005565b975061306d8361301d565b92505060018101905061304e565b5085935050505092915050565b600060208201905081810360008301526130a2818461302a565b905092915050565b6130b381612a61565b81146130be57600080fd5b50565b6000813590506130d0816130aa565b92915050565b600080604083850312156130ed576130ec6129d2565b5b60006130fb85828601612bdd565b925050602061310c858286016130c1565b9150509250929050565b60006020828403121561312c5761312b6129d2565b5b600061313a848285016130c1565b91505092915050565b600067ffffffffffffffff82111561315e5761315d612de7565b5b61316782612ae6565b9050602081019050919050565b600061318761318284613143565b612e47565b9050828152602081018484840111156131a3576131a2612de2565b5b6131ae848285612e93565b509392505050565b600082601f8301126131cb576131ca612ddd565b5b81356131db848260208601613174565b91505092915050565b600080600080608085870312156131fe576131fd6129d2565b5b600061320c87828801612bdd565b945050602061321d87828801612bdd565b935050604061322e87828801612b69565b925050606085013567ffffffffffffffff81111561324f5761324e6129d7565b5b61325b878288016131b6565b91505092959194509250565b6000806040838503121561327e5761327d6129d2565b5b600061328c85828601612bdd565b925050602083013567ffffffffffffffff8111156132ad576132ac6129d7565b5b6132b985828601612ee4565b9150509250929050565b600080604083850312156132da576132d96129d2565b5b60006132e885828601612bdd565b92505060206132f985828601612bdd565b9150509250929050565b7f4e487b7100000000000000000000000000000000000000000000000000000000600052602260045260246000fd5b6000600282049050600182168061334a57607f821691505b6020821081141561335e5761335d613303565b5b50919050565b7f4552433732313a20617070726f76656420717565727920666f72206e6f6e657860008201527f697374656e7420746f6b656e0000000000000000000000000000000000000000602082015250565b60006133c0602c83612aa2565b91506133cb82613364565b604082019050919050565b600060208201905081810360008301526133ef816133b3565b9050919050565b7f4552433732313a20617070726f76616c20746f2063757272656e74206f776e6560008201527f7200000000000000000000000000000000000000000000000000000000000000602082015250565b6000613452602183612aa2565b915061345d826133f6565b604082019050919050565b6000602082019050818103600083015261348181613445565b9050919050565b7f4552433732313a20617070726f76652063616c6c6572206973206e6f74206f7760008201527f6e6572206e6f7220617070726f76656420666f7220616c6c0000000000000000602082015250565b60006134e4603883612aa2565b91506134ef82613488565b604082019050919050565b60006020820190508181036000830152613513816134d7565b9050919050565b7f4f776e61626c653a2063616c6c6572206973206e6f7420746865206f776e6572600082015250565b6000613550602083612aa2565b915061355b8261351a565b602082019050919050565b6000602082019050818103600083015261357f81613543565b9050919050565b7f4e6f7420656e6f7567682062616c616e636520746f2073656e64210000000000600082015250565b60006135bc601b83612aa2565b91506135c782613586565b602082019050919050565b600060208201905081810360008301526135eb816135af565b9050919050565b7f4e487b7100000000000000000000000000000000000000000000000000000000600052601160045260246000fd5b600061362c82612986565b915061363783612986565b9250827fffffffffffffffffffffffffffffffffffffffffffffffffffffffffffffffff0382111561366c5761366b6135f2565b5b828201905092915050565b600061368282612986565b915061368d83612986565b9250828210156136a05761369f6135f2565b5b828203905092915050565b7f4552433732313a207472616e736665722063616c6c6572206973206e6f74206f60008201527f776e6572206e6f7220617070726f766564000000000000000000000000000000602082015250565b6000613707603183612aa2565b9150613712826136ab565b604082019050919050565b60006020820190508181036000830152613736816136fa565b9050919050565b7f4552433732313a206f776e657220717565727920666f72206e6f6e657869737460008201527f656e7420746f6b656e0000000000000000000000000000000000000000000000602082015250565b6000613799602983612aa2565b91506137a48261373d565b604082019050919050565b600060208201905081810360008301526137c88161378c565b9050919050565b7f4552433732313a2062616c616e636520717565727920666f7220746865207a6560008201527f726f206164647265737300000000000000000000000000000000000000000000602082015250565b600061382b602a83612aa2565b9150613836826137cf565b604082019050919050565b6000602082019050818103600083015261385a8161381e565b9050919050565b7f53616c65206973206e6f74207374617274656420796574210000000000000000600082015250565b6000613897601883612aa2565b91506138a282613861565b602082019050919050565b600060208201905081810360008301526138c68161388a565b9050919050565b7f50726573616c65206973206e6f74207374617274656420796574210000000000600082015250565b6000613903601b83612aa2565b915061390e826138cd565b602082019050919050565b60006020820190508181036000830152613932816138f6565b9050919050565b600061394482612986565b915061394f83612986565b9250817fffffffffffffffffffffffffffffffffffffffffffffffffffffffffffffffff0483118215151615613988576139876135f2565b5b828202905092915050565b7f4552433732314d657461646174613a204e6f7420456e6f756768204d6f6e657960008201527f20546f204d696e74000000000000000000000000000000000000000000000000602082015250565b60006139ef602883612aa2565b91506139fa82613993565b604082019050919050565b60006020820190508181036000830152613a1e816139e2565b9050919050565b7f4e487b7100000000000000000000000000000000000000000000000000000000600052603260045260246000fd5b6000613a5f82612986565b91507fffffffffffffffffffffffffffffffffffffffffffffffffffffffffffffffff821415613a9257613a916135f2565b5b600182019050919050565b7f4552433732313a20617070726f766520746f2063616c6c657200000000000000600082015250565b6000613ad3601983612aa2565b9150613ade82613a9d565b602082019050919050565b60006020820190508181036000830152613b0281613ac6565b9050919050565b7f4552433732314d657461646174613a2055524920717565727920666f72206e6f60008201527f6e6578697374656e7420746f6b656e0000000000000000000000000000000000602082015250565b6000613b65602f83612aa2565b9150613b7082613b09565b604082019050919050565b60006020820190508181036000830152613b9481613b58565b9050919050565b600081905092915050565b6000613bb182612a97565b613bbb8185613b9b565b9350613bcb818560208601612ab3565b80840191505092915050565b6000613be38285613ba6565b9150613bef8284613ba6565b91508190509392505050565b7f4f776e61626c653a206e6577206f776e657220697320746865207a65726f206160008201527f6464726573730000000000000000000000000000000000000000000000000000602082015250565b6000613c57602683612aa2565b9150613c6282613bfb565b604082019050919050565b60006020820190508181036000830152613c8681613c4a565b9050919050565b7f4552433732313a206f70657261746f7220717565727920666f72206e6f6e657860008201527f697374656e7420746f6b656e0000000000000000000000000000000000000000602082015250565b6000613ce9602c83612aa2565b9150613cf482613c8d565b604082019050919050565b60006020820190508181036000830152613d1881613cdc565b9050919050565b7f4552433732313a207472616e73666572206f6620746f6b656e2074686174206960008201527f73206e6f74206f776e0000000000000000000000000000000000000000000000602082015250565b6000613d7b602983612aa2565b9150613d8682613d1f565b604082019050919050565b60006020820190508181036000830152613daa81613d6e565b9050919050565b7f4552433732313a207472616e7366657220746f20746865207a65726f2061646460008201527f7265737300000000000000000000000000000000000000000000000000000000602082015250565b6000613e0d602483612aa2565b9150613e1882613db1565b604082019050919050565b60006020820190508181036000830152613e3c81613e00565b9050919050565b7f4552433732313a207472616e7366657220746f206e6f6e20455243373231526560008201527f63656976657220696d706c656d656e7465720000000000000000000000000000602082015250565b6000613e9f603283612aa2565b9150613eaa82613e43565b604082019050919050565b60006020820190508181036000830152613ece81613e92565b9050919050565b7f4552433732313a206d696e7420746f20746865207a65726f2061646472657373600082015250565b6000613f0b602083612aa2565b9150613f1682613ed5565b602082019050919050565b60006020820190508181036000830152613f3a81613efe565b9050919050565b7f4552433732313a20746f6b656e20616c7265616479206d696e74656400000000600082015250565b6000613f77601c83612aa2565b9150613f8282613f41565b602082019050919050565b60006020820190508181036000830152613fa681613f6a565b9050919050565b600081519050919050565b600082825260208201905092915050565b6000613fd482613fad565b613fde8185613fb8565b9350613fee818560208601612ab3565b613ff781612ae6565b840191505092915050565b60006080820190506140176000830187612977565b6140246020830186612977565b6140316040830185612990565b81810360608301526140438184613fc9565b905095945050505050565b60008151905061405d81612a08565b92915050565b600060208284031215614079576140786129d2565b5b60006140878482850161404e565b9150509291505056fea2646970667358221220d22b5a1b09b0235a82039ec94d52c9db9915f56af25fdf70f86e106749f0f53c64736f6c6343000809003368747470733a2f2f676174657761792e70696e6174612e636c6f75642f697066732f516d6350396878726e433154354154506d713273614665414d317970465839426e41737743644842394a436a4c412f",
  "immutableReferences": {},
  "source": "pragma solidity ^0.8.2;\nimport \"@openzeppelin/contracts/access/Ownable.sol\";\nimport \"@openzeppelin/contracts/utils/Counters.sol\";\nimport \"@openzeppelin/contracts/token/ERC721/ERC721.sol\";\nimport \"@openzeppelin/contracts/token/ERC721/extensions/ERC721URIStorage.sol\";\n\nstruct Investors {\n    address addr;\n    uint256 percentage;\n    string tokenId;\n}\n\ncontract CozyHome is ERC721URIStorage, Ownable {\n    using Counters for Counters.Counter;\n    Counters.Counter private _tokenIds;\n\n    uint256 public flor_price_pre_sale = 0.3 ether;\n    uint256 public max_pre_sale_purchase = 3;\n    uint256 public total_first_mintable = 6800;\n    uint256 public max_pre_sale_quantity = 1000;\n    uint256 public maxAllowableMintPresale = 5;\n    string private baseURI =\n        \"https://gateway.pinata.cloud/ipfs/QmcP9hxrnC1T5ATPmq2saFeAM1ypFX9BnAswCdHB9JCjLA/\";\n    bool public preSale = true;\n\n    Investors private investorsInheritance;\n\n    mapping(uint256 => string) private _tokenURIs;\n    mapping(uint256 => address) public firstOwners;\n    mapping(address => uint256[]) private mintOwners;\n\n    enum State {\n        Open,\n        Closed\n    }\n\n    State public saleState = State.Open;\n\n    /* ---------------------- Construction ---------------------- */\n    constructor(uint256 _percent) payable ERC721(\"CozyHome\", \"NFT\") {\n        // contract owner will have the first place to set inheritence percentage\n        // this number will be fixed for the contract like 0.05\n        // investorsInheritance.addr = msg.sender;\n        // investorsInheritance.percentage = _percent;\n    }\n\n    event Received(address, uint256);\n\n    fallback() external payable {}\n\n    receive() external payable {\n        emit Received(msg.sender, msg.value);\n    }\n\n    /*  ---------------------- Sale State Changes ----------------------  */\n    function changePreSaleState(bool _status) public onlyOwner {\n        preSale = _status;\n    }\n\n    function setInheritence(uint256 _buyer, uint256 _percent) private {\n        investorsInheritance.addr = msg.sender;\n        investorsInheritance.percentage = _percent;\n    }\n\n    function changeFlorPrice(uint256 _new_price) public onlyOwner {\n        flor_price_pre_sale = _new_price;\n    }\n\n    function changeSaleState(uint256 _input) public onlyOwner {\n        if (_input == 0) {\n            saleState = State.Closed;\n        } else {\n            saleState = State.Open;\n        }\n    }\n\n    function getSaleState() public view returns (State) {\n        return saleState;\n    }\n\n    /* ---------------------- Mint Related Operations ---------------------- */\n    function minterAdd(uint256 nftid) private {\n        mintOwners[msg.sender].push(nftid);\n    }\n\n    function mintCollectedAllowed(address _recipient)\n        public\n        view\n        returns (bool)\n    {\n        if (mintOwners[_recipient].length <= maxAllowableMintPresale) {\n            return true;\n        } else {\n            return false;\n        }\n    }\n\n    function getNumberOfCollected(address _recipient)\n        public\n        view\n        returns (uint256)\n    {\n        return mintOwners[_recipient].length;\n    }\n\n    function numberOfMintable(address _recipient, uint256 _quantity)\n        public\n        view\n        returns (uint256)\n    {\n        uint256 number_of_collected = getNumberOfCollected(_recipient);\n        if ((_quantity + number_of_collected) <= maxAllowableMintPresale) {\n            return (_quantity);\n        } else {\n            if (_quantity > maxAllowableMintPresale) {\n                return (maxAllowableMintPresale - number_of_collected);\n            } else {\n                return 0;\n            }\n        }\n    }\n\n    modifier saleStateCheck() {\n        require(saleState == State.Open, \"Sale is not started yet!\");\n        _;\n    }\n\n    modifier preSaleCheck() {\n        require(preSale == true, \"Presale is not started yet!\");\n        _;\n    }\n\n    /* ---------------------- NFTs Mint ---------------------- */\n\n    function setBaseURI(string memory _baseURI) external onlyOwner {\n        baseURI = _baseURI;\n    }\n\n    function getBaseURI() external view onlyOwner returns (string memory) {\n        return baseURI;\n    }\n\n    function _baseURI() internal view virtual override returns (string memory) {\n        return baseURI;\n    }\n\n    function _setTokenURI(uint256 tokenId, string memory _tokenURI)\n        internal\n        virtual\n        override\n    {\n        require(\n            _exists(tokenId),\n            \"ERC721Metadata: URI query for nonexistent token\"\n        );\n        _tokenURIs[tokenId] = _tokenURI;\n    }\n\n    function tokenURI(uint256 tokenId)\n        public\n        view\n        virtual\n        override\n        returns (string memory)\n    {\n        require(\n            _exists(tokenId),\n            \"ERC721Metadata: URI query for nonexistent token\"\n        );\n\n        string memory _tokenURI = _tokenURIs[tokenId];\n        string memory base = _baseURI();\n\n        // If there is no base URI, return the token URI.\n        if (bytes(base).length == 0) {\n            return _tokenURI;\n        }\n        // If both are set, concatenate the baseURI and tokenURI (via abi.encodePacked).\n        if (bytes(_tokenURI).length > 0) {\n            return string(abi.encodePacked(base, _tokenURI));\n        }\n        // If there is a baseURI but no tokenURI, concatenate the tokenID to the baseURI.\n        // return string(abi.encodePacked(base, tokenId.toString()));\n    }\n\n    function mintNow(address _recipient, string memory _tokenURI)\n        public\n        returns (uint256)\n    {\n        _tokenIds.increment();\n        uint256 newItemId = _tokenIds.current();\n\n        _mint(_recipient, newItemId);\n        _setTokenURI(newItemId, _tokenURI);\n\n        firstOwners[newItemId] = payable(_recipient);\n        minterAdd(newItemId);\n\n        return newItemId;\n    }\n\n    function preSaleMint(\n        address _recipient,\n        string memory _tokenURI,\n        uint256 _quantity\n    ) public payable saleStateCheck preSaleCheck returns (uint256[] memory) {\n        // if you have enough money?\n\n        if (\n            mintCollectedAllowed(_recipient) &&\n            maxAllowableMintPresale >= _quantity\n        ) {\n            uint256 number_of_mintable = numberOfMintable(\n                _recipient,\n                _quantity\n            );\n            uint256[] memory mintedItems = new uint256[](number_of_mintable);\n\n            require(\n                msg.value == flor_price_pre_sale * number_of_mintable,\n                \"ERC721Metadata: Not Enough Money To Mint\"\n            );\n            for (uint256 i = 0; i < number_of_mintable; i++) {\n                uint256 newItemId = mintNow(_recipient, _tokenURI);\n                mintedItems[i] = (newItemId);\n            }\n            return mintedItems;\n        } else {}\n    }\n\n    /* ---------------------- Wallet Finance Related ---------------------- */\n\n    function getWalletBalance() public view onlyOwner returns (uint256) {\n        return address(this).balance;\n    }\n\n    modifier sendableAmountCheck(uint256 _amount) {\n        require(_amount <= getWalletBalance(), \"Not enough balance to send!\");\n        _;\n    }\n\n    function transferContractBalance(\n        address payable _recipient,\n        uint256 _amount\n    ) public onlyOwner sendableAmountCheck(_amount) returns (bool) {\n        _recipient.transfer(_amount);\n        return true;\n    }\n}\n",
  "sourcePath": "/Users/akinipek/CozyContract/cozycontract2/contracts/CozyHome.sol",
  "compiler": {
    "name": "solc",
    "version": "0.8.9+commit.e5eed63a.Emscripten.clang"
  },
  "schemaVersion": "3.4.3",
  "updatedAt": "2021-11-10T23:27:34.315Z",
  "networkType": "ethereum",
  "devdoc": {
    "kind": "dev",
    "methods": {
      "approve(address,uint256)": {
        "details": "See {IERC721-approve}."
      },
      "balanceOf(address)": {
        "details": "See {IERC721-balanceOf}."
      },
      "getApproved(uint256)": {
        "details": "See {IERC721-getApproved}."
      },
      "isApprovedForAll(address,address)": {
        "details": "See {IERC721-isApprovedForAll}."
      },
      "name()": {
        "details": "See {IERC721Metadata-name}."
      },
      "owner()": {
        "details": "Returns the address of the current owner."
      },
      "ownerOf(uint256)": {
        "details": "See {IERC721-ownerOf}."
      },
      "renounceOwnership()": {
        "details": "Leaves the contract without owner. It will not be possible to call `onlyOwner` functions anymore. Can only be called by the current owner. NOTE: Renouncing ownership will leave the contract without an owner, thereby removing any functionality that is only available to the owner."
      },
      "safeTransferFrom(address,address,uint256)": {
        "details": "See {IERC721-safeTransferFrom}."
      },
      "safeTransferFrom(address,address,uint256,bytes)": {
        "details": "See {IERC721-safeTransferFrom}."
      },
      "setApprovalForAll(address,bool)": {
        "details": "See {IERC721-setApprovalForAll}."
      },
      "supportsInterface(bytes4)": {
        "details": "See {IERC165-supportsInterface}."
      },
      "symbol()": {
        "details": "See {IERC721Metadata-symbol}."
      },
      "tokenURI(uint256)": {
        "details": "See {IERC721Metadata-tokenURI}."
      },
      "transferFrom(address,address,uint256)": {
        "details": "See {IERC721-transferFrom}."
      },
      "transferOwnership(address)": {
        "details": "Transfers ownership of the contract to a new account (`newOwner`). Can only be called by the current owner."
      }
    },
    "version": 1
  },
  "userdoc": {
    "kind": "user",
    "methods": {},
    "version": 1
  }
}