{
  "contractName": "CozyHome",
  "abi": [
    {
      "inputs": [
        {
          "internalType": "uint256",
          "name": "_percent",
          "type": "uint256"
        }
      ],
      "stateMutability": "nonpayable",
      "type": "constructor"
    },
    {
      "anonymous": false,
      "inputs": [
        {
          "indexed": true,
          "internalType": "address",
          "name": "owner",
          "type": "address"
        },
        {
          "indexed": true,
          "internalType": "address",
          "name": "approved",
          "type": "address"
        },
        {
          "indexed": true,
          "internalType": "uint256",
          "name": "tokenId",
          "type": "uint256"
        }
      ],
      "name": "Approval",
      "type": "event"
    },
    {
      "anonymous": false,
      "inputs": [
        {
          "indexed": true,
          "internalType": "address",
          "name": "owner",
          "type": "address"
        },
        {
          "indexed": true,
          "internalType": "address",
          "name": "operator",
          "type": "address"
        },
        {
          "indexed": false,
          "internalType": "bool",
          "name": "approved",
          "type": "bool"
        }
      ],
      "name": "ApprovalForAll",
      "type": "event"
    },
    {
      "anonymous": false,
      "inputs": [
        {
          "indexed": true,
          "internalType": "address",
          "name": "previousOwner",
          "type": "address"
        },
        {
          "indexed": true,
          "internalType": "address",
          "name": "newOwner",
          "type": "address"
        }
      ],
      "name": "OwnershipTransferred",
      "type": "event"
    },
    {
      "anonymous": false,
      "inputs": [
        {
          "indexed": true,
          "internalType": "address",
          "name": "from",
          "type": "address"
        },
        {
          "indexed": true,
          "internalType": "address",
          "name": "to",
          "type": "address"
        },
        {
          "indexed": true,
          "internalType": "uint256",
          "name": "tokenId",
          "type": "uint256"
        }
      ],
      "name": "Transfer",
      "type": "event"
    },
    {
      "inputs": [
        {
          "internalType": "address",
          "name": "to",
          "type": "address"
        },
        {
          "internalType": "uint256",
          "name": "tokenId",
          "type": "uint256"
        }
      ],
      "name": "approve",
      "outputs": [],
      "stateMutability": "nonpayable",
      "type": "function"
    },
    {
      "inputs": [
        {
          "internalType": "address",
          "name": "owner",
          "type": "address"
        }
      ],
      "name": "balanceOf",
      "outputs": [
        {
          "internalType": "uint256",
          "name": "",
          "type": "uint256"
        }
      ],
      "stateMutability": "view",
      "type": "function",
      "constant": true
    },
    {
      "inputs": [
        {
          "internalType": "uint256",
          "name": "",
          "type": "uint256"
        }
      ],
      "name": "firstOwners",
      "outputs": [
        {
          "internalType": "address",
          "name": "",
          "type": "address"
        }
      ],
      "stateMutability": "view",
      "type": "function",
      "constant": true
    },
    {
      "inputs": [],
      "name": "flor_price_pre_sale",
      "outputs": [
        {
          "internalType": "uint256",
          "name": "",
          "type": "uint256"
        }
      ],
      "stateMutability": "view",
      "type": "function",
      "constant": true
    },
    {
      "inputs": [
        {
          "internalType": "uint256",
          "name": "tokenId",
          "type": "uint256"
        }
      ],
      "name": "getApproved",
      "outputs": [
        {
          "internalType": "address",
          "name": "",
          "type": "address"
        }
      ],
      "stateMutability": "view",
      "type": "function",
      "constant": true
    },
    {
      "inputs": [
        {
          "internalType": "address",
          "name": "owner",
          "type": "address"
        },
        {
          "internalType": "address",
          "name": "operator",
          "type": "address"
        }
      ],
      "name": "isApprovedForAll",
      "outputs": [
        {
          "internalType": "bool",
          "name": "",
          "type": "bool"
        }
      ],
      "stateMutability": "view",
      "type": "function",
      "constant": true
    },
    {
      "inputs": [],
      "name": "maxAllowableMintPresale",
      "outputs": [
        {
          "internalType": "uint256",
          "name": "",
          "type": "uint256"
        }
      ],
      "stateMutability": "view",
      "type": "function",
      "constant": true
    },
    {
      "inputs": [],
      "name": "max_pre_sale_purchase",
      "outputs": [
        {
          "internalType": "uint256",
          "name": "",
          "type": "uint256"
        }
      ],
      "stateMutability": "view",
      "type": "function",
      "constant": true
    },
    {
      "inputs": [],
      "name": "max_pre_sale_quantity",
      "outputs": [
        {
          "internalType": "uint256",
          "name": "",
          "type": "uint256"
        }
      ],
      "stateMutability": "view",
      "type": "function",
      "constant": true
    },
    {
      "inputs": [],
      "name": "name",
      "outputs": [
        {
          "internalType": "string",
          "name": "",
          "type": "string"
        }
      ],
      "stateMutability": "view",
      "type": "function",
      "constant": true
    },
    {
      "inputs": [],
      "name": "owner",
      "outputs": [
        {
          "internalType": "address",
          "name": "",
          "type": "address"
        }
      ],
      "stateMutability": "view",
      "type": "function",
      "constant": true
    },
    {
      "inputs": [
        {
          "internalType": "uint256",
          "name": "tokenId",
          "type": "uint256"
        }
      ],
      "name": "ownerOf",
      "outputs": [
        {
          "internalType": "address",
          "name": "",
          "type": "address"
        }
      ],
      "stateMutability": "view",
      "type": "function",
      "constant": true
    },
    {
      "inputs": [],
      "name": "preSale",
      "outputs": [
        {
          "internalType": "bool",
          "name": "",
          "type": "bool"
        }
      ],
      "stateMutability": "view",
      "type": "function",
      "constant": true
    },
    {
      "inputs": [],
      "name": "renounceOwnership",
      "outputs": [],
      "stateMutability": "nonpayable",
      "type": "function"
    },
    {
      "inputs": [
        {
          "internalType": "address",
          "name": "from",
          "type": "address"
        },
        {
          "internalType": "address",
          "name": "to",
          "type": "address"
        },
        {
          "internalType": "uint256",
          "name": "tokenId",
          "type": "uint256"
        }
      ],
      "name": "safeTransferFrom",
      "outputs": [],
      "stateMutability": "nonpayable",
      "type": "function"
    },
    {
      "inputs": [
        {
          "internalType": "address",
          "name": "from",
          "type": "address"
        },
        {
          "internalType": "address",
          "name": "to",
          "type": "address"
        },
        {
          "internalType": "uint256",
          "name": "tokenId",
          "type": "uint256"
        },
        {
          "internalType": "bytes",
          "name": "_data",
          "type": "bytes"
        }
      ],
      "name": "safeTransferFrom",
      "outputs": [],
      "stateMutability": "nonpayable",
      "type": "function"
    },
    {
      "inputs": [],
      "name": "saleState",
      "outputs": [
        {
          "internalType": "enum CozyHome.State",
          "name": "",
          "type": "uint8"
        }
      ],
      "stateMutability": "view",
      "type": "function",
      "constant": true
    },
    {
      "inputs": [
        {
          "internalType": "address",
          "name": "operator",
          "type": "address"
        },
        {
          "internalType": "bool",
          "name": "approved",
          "type": "bool"
        }
      ],
      "name": "setApprovalForAll",
      "outputs": [],
      "stateMutability": "nonpayable",
      "type": "function"
    },
    {
      "inputs": [
        {
          "internalType": "bytes4",
          "name": "interfaceId",
          "type": "bytes4"
        }
      ],
      "name": "supportsInterface",
      "outputs": [
        {
          "internalType": "bool",
          "name": "",
          "type": "bool"
        }
      ],
      "stateMutability": "view",
      "type": "function",
      "constant": true
    },
    {
      "inputs": [],
      "name": "symbol",
      "outputs": [
        {
          "internalType": "string",
          "name": "",
          "type": "string"
        }
      ],
      "stateMutability": "view",
      "type": "function",
      "constant": true
    },
    {
      "inputs": [
        {
          "internalType": "uint256",
          "name": "tokenId",
          "type": "uint256"
        }
      ],
      "name": "tokenURI",
      "outputs": [
        {
          "internalType": "string",
          "name": "",
          "type": "string"
        }
      ],
      "stateMutability": "view",
      "type": "function",
      "constant": true
    },
    {
      "inputs": [],
      "name": "total_first_mintable",
      "outputs": [
        {
          "internalType": "uint256",
          "name": "",
          "type": "uint256"
        }
      ],
      "stateMutability": "view",
      "type": "function",
      "constant": true
    },
    {
      "inputs": [
        {
          "internalType": "address",
          "name": "from",
          "type": "address"
        },
        {
          "internalType": "address",
          "name": "to",
          "type": "address"
        },
        {
          "internalType": "uint256",
          "name": "tokenId",
          "type": "uint256"
        }
      ],
      "name": "transferFrom",
      "outputs": [],
      "stateMutability": "nonpayable",
      "type": "function"
    },
    {
      "inputs": [
        {
          "internalType": "address",
          "name": "newOwner",
          "type": "address"
        }
      ],
      "name": "transferOwnership",
      "outputs": [],
      "stateMutability": "nonpayable",
      "type": "function"
    },
    {
      "inputs": [
        {
          "internalType": "bool",
          "name": "_status",
          "type": "bool"
        }
      ],
      "name": "changePreSaleState",
      "outputs": [],
      "stateMutability": "nonpayable",
      "type": "function"
    },
    {
      "inputs": [
        {
          "internalType": "uint256",
          "name": "_buyer",
          "type": "uint256"
        },
        {
          "internalType": "uint256",
          "name": "_percent",
          "type": "uint256"
        }
      ],
      "name": "setInheritence",
      "outputs": [],
      "stateMutability": "nonpayable",
      "type": "function"
    },
    {
      "inputs": [
        {
          "internalType": "uint256",
          "name": "_new_price",
          "type": "uint256"
        }
      ],
      "name": "changeFlorPrice",
      "outputs": [],
      "stateMutability": "nonpayable",
      "type": "function"
    },
    {
      "inputs": [
        {
          "internalType": "uint256",
          "name": "_input",
          "type": "uint256"
        }
      ],
      "name": "changeSaleState",
      "outputs": [],
      "stateMutability": "nonpayable",
      "type": "function"
    },
    {
      "inputs": [
        {
          "internalType": "address",
          "name": "_recipient",
          "type": "address"
        }
      ],
      "name": "mintCollectedAllowed",
      "outputs": [
        {
          "internalType": "bool",
          "name": "",
          "type": "bool"
        }
      ],
      "stateMutability": "view",
      "type": "function",
      "constant": true
    },
    {
      "inputs": [
        {
          "internalType": "address",
          "name": "_recipient",
          "type": "address"
        }
      ],
      "name": "getNumberOfCollected",
      "outputs": [
        {
          "internalType": "uint256",
          "name": "",
          "type": "uint256"
        }
      ],
      "stateMutability": "view",
      "type": "function",
      "constant": true
    },
    {
      "inputs": [
        {
          "internalType": "address",
          "name": "_recipient",
          "type": "address"
        },
        {
          "internalType": "uint256",
          "name": "_quantity",
          "type": "uint256"
        }
      ],
      "name": "numberOfMintable",
      "outputs": [
        {
          "internalType": "uint256",
          "name": "",
          "type": "uint256"
        }
      ],
      "stateMutability": "view",
      "type": "function",
      "constant": true
    },
    {
      "inputs": [
        {
          "internalType": "address",
          "name": "_recipient",
          "type": "address"
        },
        {
          "internalType": "string",
          "name": "_tokenURI",
          "type": "string"
        }
      ],
      "name": "mintNow",
      "outputs": [
        {
          "internalType": "uint256",
          "name": "",
          "type": "uint256"
        }
      ],
      "stateMutability": "nonpayable",
      "type": "function"
    },
    {
      "inputs": [
        {
          "internalType": "address",
          "name": "_recipient",
          "type": "address"
        },
        {
          "internalType": "string",
          "name": "_tokenURI",
          "type": "string"
        },
        {
          "internalType": "uint256",
          "name": "_quantity",
          "type": "uint256"
        }
      ],
      "name": "preSaleMint",
      "outputs": [
        {
          "internalType": "uint256[]",
          "name": "",
          "type": "uint256[]"
        }
      ],
      "stateMutability": "nonpayable",
      "type": "function"
    },
    {
      "inputs": [],
      "name": "getWalletBalance",
      "outputs": [
        {
          "internalType": "uint256",
          "name": "",
          "type": "uint256"
        }
      ],
      "stateMutability": "view",
      "type": "function",
      "constant": true
    },
    {
      "inputs": [
        {
          "internalType": "address payable",
          "name": "_recipient",
          "type": "address"
        },
        {
          "internalType": "uint256",
          "name": "_amount",
          "type": "uint256"
        }
      ],
      "name": "transferContractBalance",
      "outputs": [
        {
          "internalType": "bool",
          "name": "",
          "type": "bool"
        }
      ],
      "stateMutability": "nonpayable",
      "type": "function"
    }
  ],
  "bytecode": "0x608060405266470de4df8200006009556003600a55611a90600b556103e8600c556003600d55604051806080016040528060518152602001620042cf60519139600e90805190602001906200005692919062000268565b506000600f60006101000a81548160ff0219169083151502179055506000601560006101000a81548160ff021916908360018111156200009b576200009a62000318565b5b0217905550348015620000ad57600080fd5b5060405162004320380380620043208339818101604052810190620000d3919062000387565b6040518060400160405280600881526020017f436f7a79486f6d650000000000000000000000000000000000000000000000008152506040518060400160405280600381526020017f4e4654000000000000000000000000000000000000000000000000000000000081525081600090805190602001906200015792919062000268565b5080600190805190602001906200017092919062000268565b50505062000193620001876200019a60201b60201c565b620001a260201b60201c565b506200041e565b600033905090565b6000600760009054906101000a900473ffffffffffffffffffffffffffffffffffffffff16905081600760006101000a81548173ffffffffffffffffffffffffffffffffffffffff021916908373ffffffffffffffffffffffffffffffffffffffff1602179055508173ffffffffffffffffffffffffffffffffffffffff168173ffffffffffffffffffffffffffffffffffffffff167f8be0079c531659141344cd1fd0a4f28419497f9722a3daafe3b4186f6b6457e060405160405180910390a35050565b8280546200027690620003e8565b90600052602060002090601f0160209004810192826200029a5760008555620002e6565b82601f10620002b557805160ff1916838001178555620002e6565b82800160010185558215620002e6579182015b82811115620002e5578251825591602001919060010190620002c8565b5b509050620002f59190620002f9565b5090565b5b8082111562000314576000816000905550600101620002fa565b5090565b7f4e487b7100000000000000000000000000000000000000000000000000000000600052602160045260246000fd5b600080fd5b6000819050919050565b62000361816200034c565b81146200036d57600080fd5b50565b600081519050620003818162000356565b92915050565b600060208284031215620003a0576200039f62000347565b5b6000620003b08482850162000370565b91505092915050565b7f4e487b7100000000000000000000000000000000000000000000000000000000600052602260045260246000fd5b600060028204905060018216806200040157607f821691505b60208210811415620004185762000417620003b9565b5b50919050565b613ea1806200042e6000396000f3fe608060405234801561001057600080fd5b50600436106102115760003560e01c8063715018a611610125578063c87b56dd116100ad578063eae7d2d01161007c578063eae7d2d014610650578063efaff03c1461066c578063f2fde38b1461069c578063f55ae6e0146106b8578063fa1a89d6146106d657610211565b8063c87b56dd146105a2578063e1bd2abe146105d2578063e52ace55146105f0578063e985e9c51461062057610211565b806395d89b41116100f457806395d89b4114610512578063a22cb46514610530578063a776155d1461054c578063b88d4fde14610568578063c5b1374d1461058457610211565b8063715018a61461049e578063743703a1146104a85780638da5cb5b146104c457806395978604146104e257610211565b8063329a27e7116101a8578063603f4d5211610177578063603f4d52146103e45780636352211e1461040257806366e71c01146104325780636abe3fce1461045057806370a082311461046e57610211565b8063329a27e71461035c57806342842e0e1461037a5780634bf4d267146103965780635a7adf7f146103c657610211565b806310a5a3d9116101e457806310a5a3d9146102b057806321677ae8146102e057806323b872dd14610310578063255d474f1461032c57610211565b806301ffc9a71461021657806306fdde0314610246578063081812fc14610264578063095ea7b314610294575b600080fd5b610230600480360381019061022b91906126f5565b6106f2565b60405161023d919061273d565b60405180910390f35b61024e6107d4565b60405161025b91906127f1565b60405180910390f35b61027e60048036038101906102799190612849565b610866565b60405161028b91906128b7565b60405180910390f35b6102ae60048036038101906102a991906128fe565b6108eb565b005b6102ca60048036038101906102c5919061297c565b610a03565b6040516102d7919061273d565b60405180910390f35b6102fa60048036038101906102f591906128fe565b610b1e565b60405161030791906129cb565b60405180910390f35b61032a600480360381019061032591906129e6565b610b80565b005b61034660048036038101906103419190612a39565b610be0565b604051610353919061273d565b60405180910390f35b610364610c40565b60405161037191906129cb565b60405180910390f35b610394600480360381019061038f91906129e6565b610cc4565b005b6103b060048036038101906103ab9190612a39565b610ce4565b6040516103bd91906129cb565b60405180910390f35b6103ce610d30565b6040516103db919061273d565b60405180910390f35b6103ec610d43565b6040516103f99190612add565b60405180910390f35b61041c60048036038101906104179190612849565b610d56565b60405161042991906128b7565b60405180910390f35b61043a610e08565b60405161044791906129cb565b60405180910390f35b610458610e0e565b60405161046591906129cb565b60405180910390f35b61048860048036038101906104839190612a39565b610e14565b60405161049591906129cb565b60405180910390f35b6104a6610ecc565b005b6104c260048036038101906104bd9190612849565b610f54565b005b6104cc610fda565b6040516104d991906128b7565b60405180910390f35b6104fc60048036038101906104f79190612c2d565b611004565b6040516105099190612d5a565b60405180910390f35b61051a61115c565b60405161052791906127f1565b60405180910390f35b61054a60048036038101906105459190612da8565b6111ee565b005b61056660048036038101906105619190612de8565b61136f565b005b610582600480360381019061057d9190612eb6565b611408565b005b61058c61146a565b60405161059991906129cb565b60405180910390f35b6105bc60048036038101906105b79190612849565b611470565b6040516105c991906127f1565b60405180910390f35b6105da6115c2565b6040516105e791906129cb565b60405180910390f35b61060a60048036038101906106059190612f39565b6115c8565b60405161061791906129cb565b60405180910390f35b61063a60048036038101906106359190612f95565b61165b565b604051610647919061273d565b60405180910390f35b61066a60048036038101906106659190612849565b6116ef565b005b61068660048036038101906106819190612849565b6117d3565b60405161069391906128b7565b60405180910390f35b6106b660048036038101906106b19190612a39565b611806565b005b6106c06118fe565b6040516106cd91906129cb565b60405180910390f35b6106f060048036038101906106eb9190612fd5565b611904565b005b60007f80ac58cd000000000000000000000000000000000000000000000000000000007bffffffffffffffffffffffffffffffffffffffffffffffffffffffff1916827bffffffffffffffffffffffffffffffffffffffffffffffffffffffff191614806107bd57507f5b5e139f000000000000000000000000000000000000000000000000000000007bffffffffffffffffffffffffffffffffffffffffffffffffffffffff1916827bffffffffffffffffffffffffffffffffffffffffffffffffffffffff1916145b806107cd57506107cc82611956565b5b9050919050565b6060600080546107e390613044565b80601f016020809104026020016040519081016040528092919081815260200182805461080f90613044565b801561085c5780601f106108315761010080835404028352916020019161085c565b820191906000526020600020905b81548152906001019060200180831161083f57829003601f168201915b5050505050905090565b6000610871826119c0565b6108b0576040517f08c379a00000000000000000000000000000000000000000000000000000000081526004016108a7906130e8565b60405180910390fd5b6004600083815260200190815260200160002060009054906101000a900473ffffffffffffffffffffffffffffffffffffffff169050919050565b60006108f682610d56565b90508073ffffffffffffffffffffffffffffffffffffffff168373ffffffffffffffffffffffffffffffffffffffff161415610967576040517f08c379a000000000000000000000000000000000000000000000000000000000815260040161095e9061317a565b60405180910390fd5b8073ffffffffffffffffffffffffffffffffffffffff16610986611a2c565b73ffffffffffffffffffffffffffffffffffffffff1614806109b557506109b4816109af611a2c565b61165b565b5b6109f4576040517f08c379a00000000000000000000000000000000000000000000000000000000081526004016109eb9061320c565b60405180910390fd5b6109fe8383611a34565b505050565b6000610a0d611a2c565b73ffffffffffffffffffffffffffffffffffffffff16610a2b610fda565b73ffffffffffffffffffffffffffffffffffffffff1614610a81576040517f08c379a0000000000000000000000000000000000000000000000000000000008152600401610a7890613278565b60405180910390fd5b81610a8a610c40565b811115610acc576040517f08c379a0000000000000000000000000000000000000000000000000000000008152600401610ac3906132e4565b60405180910390fd5b8373ffffffffffffffffffffffffffffffffffffffff166108fc849081150290604051600060405180830381858888f19350505050158015610b12573d6000803e3d6000fd5b50600191505092915050565b600080610b2a84610ce4565b9050600d548184610b3b9190613333565b11610b54578083610b4c9190613389565b915050610b7a565b600d54831115610b745780600d54610b6c9190613389565b915050610b7a565b60009150505b92915050565b610b91610b8b611a2c565b82611aed565b610bd0576040517f08c379a0000000000000000000000000000000000000000000000000000000008152600401610bc79061342f565b60405180910390fd5b610bdb838383611bcb565b505050565b6000600d54601460008473ffffffffffffffffffffffffffffffffffffffff1673ffffffffffffffffffffffffffffffffffffffff1681526020019081526020016000208054905011610c365760019050610c3b565b600090505b919050565b6000610c4a611a2c565b73ffffffffffffffffffffffffffffffffffffffff16610c68610fda565b73ffffffffffffffffffffffffffffffffffffffff1614610cbe576040517f08c379a0000000000000000000000000000000000000000000000000000000008152600401610cb590613278565b60405180910390fd5b47905090565b610cdf83838360405180602001604052806000815250611408565b505050565b6000601460008373ffffffffffffffffffffffffffffffffffffffff1673ffffffffffffffffffffffffffffffffffffffff168152602001908152602001600020805490509050919050565b600f60009054906101000a900460ff1681565b601560009054906101000a900460ff1681565b6000806002600084815260200190815260200160002060009054906101000a900473ffffffffffffffffffffffffffffffffffffffff169050600073ffffffffffffffffffffffffffffffffffffffff168173ffffffffffffffffffffffffffffffffffffffff161415610dff576040517f08c379a0000000000000000000000000000000000000000000000000000000008152600401610df6906134c1565b60405180910390fd5b80915050919050565b600b5481565b600c5481565b60008073ffffffffffffffffffffffffffffffffffffffff168273ffffffffffffffffffffffffffffffffffffffff161415610e85576040517f08c379a0000000000000000000000000000000000000000000000000000000008152600401610e7c90613553565b60405180910390fd5b600360008373ffffffffffffffffffffffffffffffffffffffff1673ffffffffffffffffffffffffffffffffffffffff168152602001908152602001600020549050919050565b610ed4611a2c565b73ffffffffffffffffffffffffffffffffffffffff16610ef2610fda565b73ffffffffffffffffffffffffffffffffffffffff1614610f48576040517f08c379a0000000000000000000000000000000000000000000000000000000008152600401610f3f90613278565b60405180910390fd5b610f526000611e27565b565b610f5c611a2c565b73ffffffffffffffffffffffffffffffffffffffff16610f7a610fda565b73ffffffffffffffffffffffffffffffffffffffff1614610fd0576040517f08c379a0000000000000000000000000000000000000000000000000000000008152600401610fc790613278565b60405180910390fd5b8060098190555050565b6000600760009054906101000a900473ffffffffffffffffffffffffffffffffffffffff16905090565b60606000600181111561101a57611019612a66565b5b601560009054906101000a900460ff16600181111561103c5761103b612a66565b5b1461107c576040517f08c379a0000000000000000000000000000000000000000000000000000000008152600401611073906135bf565b60405180910390fd5b60011515600f60009054906101000a900460ff161515146110d2576040517f08c379a00000000000000000000000000000000000000000000000000000000081526004016110c99061362b565b60405180910390fd5b6110db84610be0565b80156110e9575081600d5410155b156111545760606000600190505b6111018685610b1e565b81101561114a57600061111487876115c8565b90508083838151811061112a5761112961364b565b5b6020026020010181815250505080806111429061367a565b9150506110f7565b5080915050611155565b5b9392505050565b60606001805461116b90613044565b80601f016020809104026020016040519081016040528092919081815260200182805461119790613044565b80156111e45780601f106111b9576101008083540402835291602001916111e4565b820191906000526020600020905b8154815290600101906020018083116111c757829003601f168201915b5050505050905090565b6111f6611a2c565b73ffffffffffffffffffffffffffffffffffffffff168273ffffffffffffffffffffffffffffffffffffffff161415611264576040517f08c379a000000000000000000000000000000000000000000000000000000000815260040161125b9061370f565b60405180910390fd5b8060056000611271611a2c565b73ffffffffffffffffffffffffffffffffffffffff1673ffffffffffffffffffffffffffffffffffffffff16815260200190815260200160002060008473ffffffffffffffffffffffffffffffffffffffff1673ffffffffffffffffffffffffffffffffffffffff16815260200190815260200160002060006101000a81548160ff0219169083151502179055508173ffffffffffffffffffffffffffffffffffffffff1661131e611a2c565b73ffffffffffffffffffffffffffffffffffffffff167f17307eab39ab6107e8899845ad3d59bd9653f200f220920489ca2b5937696c3183604051611363919061273d565b60405180910390a35050565b611377611a2c565b73ffffffffffffffffffffffffffffffffffffffff16611395610fda565b73ffffffffffffffffffffffffffffffffffffffff16146113eb576040517f08c379a00000000000000000000000000000000000000000000000000000000081526004016113e290613278565b60405180910390fd5b80600f60006101000a81548160ff02191690831515021790555050565b611419611413611a2c565b83611aed565b611458576040517f08c379a000000000000000000000000000000000000000000000000000000000815260040161144f9061342f565b60405180910390fd5b61146484848484611eed565b50505050565b60095481565b606061147b826119c0565b6114ba576040517f08c379a00000000000000000000000000000000000000000000000000000000081526004016114b1906137a1565b60405180910390fd5b60006006600084815260200190815260200160002080546114da90613044565b80601f016020809104026020016040519081016040528092919081815260200182805461150690613044565b80156115535780601f1061152857610100808354040283529160200191611553565b820191906000526020600020905b81548152906001019060200180831161153657829003601f168201915b505050505090506000611564611f49565b905060008151141561157a5781925050506115bd565b6000825111156115af5780826040516020016115979291906137fd565b604051602081830303815290604052925050506115bd565b6115b884611f60565b925050505b919050565b600a5481565b60006115d46008612007565b60006115e0600861201d565b90506115ec848261202b565b6115f681846121f9565b836013600083815260200190815260200160002060006101000a81548173ffffffffffffffffffffffffffffffffffffffff021916908373ffffffffffffffffffffffffffffffffffffffff1602179055506116518161226d565b8091505092915050565b6000600560008473ffffffffffffffffffffffffffffffffffffffff1673ffffffffffffffffffffffffffffffffffffffff16815260200190815260200160002060008373ffffffffffffffffffffffffffffffffffffffff1673ffffffffffffffffffffffffffffffffffffffff16815260200190815260200160002060009054906101000a900460ff16905092915050565b6116f7611a2c565b73ffffffffffffffffffffffffffffffffffffffff16611715610fda565b73ffffffffffffffffffffffffffffffffffffffff161461176b576040517f08c379a000000000000000000000000000000000000000000000000000000000815260040161176290613278565b60405180910390fd5b60008114156117a4576001601560006101000a81548160ff0219169083600181111561179a57611799612a66565b5b02179055506117d0565b6000601560006101000a81548160ff021916908360018111156117ca576117c9612a66565b5b02179055505b50565b60136020528060005260406000206000915054906101000a900473ffffffffffffffffffffffffffffffffffffffff1681565b61180e611a2c565b73ffffffffffffffffffffffffffffffffffffffff1661182c610fda565b73ffffffffffffffffffffffffffffffffffffffff1614611882576040517f08c379a000000000000000000000000000000000000000000000000000000000815260040161187990613278565b60405180910390fd5b600073ffffffffffffffffffffffffffffffffffffffff168173ffffffffffffffffffffffffffffffffffffffff1614156118f2576040517f08c379a00000000000000000000000000000000000000000000000000000000081526004016118e990613893565b60405180910390fd5b6118fb81611e27565b50565b600d5481565b33601060000160006101000a81548173ffffffffffffffffffffffffffffffffffffffff021916908373ffffffffffffffffffffffffffffffffffffffff160217905550806010600101819055505050565b60007f01ffc9a7000000000000000000000000000000000000000000000000000000007bffffffffffffffffffffffffffffffffffffffffffffffffffffffff1916827bffffffffffffffffffffffffffffffffffffffffffffffffffffffff1916149050919050565b60008073ffffffffffffffffffffffffffffffffffffffff166002600084815260200190815260200160002060009054906101000a900473ffffffffffffffffffffffffffffffffffffffff1673ffffffffffffffffffffffffffffffffffffffff1614159050919050565b600033905090565b816004600083815260200190815260200160002060006101000a81548173ffffffffffffffffffffffffffffffffffffffff021916908373ffffffffffffffffffffffffffffffffffffffff160217905550808273ffffffffffffffffffffffffffffffffffffffff16611aa783610d56565b73ffffffffffffffffffffffffffffffffffffffff167f8c5be1e5ebec7d5bd14f71427d1e84f3dd0314c0f7b2291e5b200ac8c7c3b92560405160405180910390a45050565b6000611af8826119c0565b611b37576040517f08c379a0000000000000000000000000000000000000000000000000000000008152600401611b2e90613925565b60405180910390fd5b6000611b4283610d56565b90508073ffffffffffffffffffffffffffffffffffffffff168473ffffffffffffffffffffffffffffffffffffffff161480611bb157508373ffffffffffffffffffffffffffffffffffffffff16611b9984610866565b73ffffffffffffffffffffffffffffffffffffffff16145b80611bc25750611bc1818561165b565b5b91505092915050565b8273ffffffffffffffffffffffffffffffffffffffff16611beb82610d56565b73ffffffffffffffffffffffffffffffffffffffff1614611c41576040517f08c379a0000000000000000000000000000000000000000000000000000000008152600401611c38906139b7565b60405180910390fd5b600073ffffffffffffffffffffffffffffffffffffffff168273ffffffffffffffffffffffffffffffffffffffff161415611cb1576040517f08c379a0000000000000000000000000000000000000000000000000000000008152600401611ca890613a49565b60405180910390fd5b611cbc8383836122d6565b611cc7600082611a34565b6001600360008573ffffffffffffffffffffffffffffffffffffffff1673ffffffffffffffffffffffffffffffffffffffff1681526020019081526020016000206000828254611d179190613389565b925050819055506001600360008473ffffffffffffffffffffffffffffffffffffffff1673ffffffffffffffffffffffffffffffffffffffff1681526020019081526020016000206000828254611d6e9190613333565b92505081905550816002600083815260200190815260200160002060006101000a81548173ffffffffffffffffffffffffffffffffffffffff021916908373ffffffffffffffffffffffffffffffffffffffff160217905550808273ffffffffffffffffffffffffffffffffffffffff168473ffffffffffffffffffffffffffffffffffffffff167fddf252ad1be2c89b69c2b068fc378daa952ba7f163c4a11628f55a4df523b3ef60405160405180910390a4505050565b6000600760009054906101000a900473ffffffffffffffffffffffffffffffffffffffff16905081600760006101000a81548173ffffffffffffffffffffffffffffffffffffffff021916908373ffffffffffffffffffffffffffffffffffffffff1602179055508173ffffffffffffffffffffffffffffffffffffffff168173ffffffffffffffffffffffffffffffffffffffff167f8be0079c531659141344cd1fd0a4f28419497f9722a3daafe3b4186f6b6457e060405160405180910390a35050565b611ef8848484611bcb565b611f04848484846122db565b611f43576040517f08c379a0000000000000000000000000000000000000000000000000000000008152600401611f3a90613adb565b60405180910390fd5b50505050565b606060405180602001604052806000815250905090565b6060611f6b826119c0565b611faa576040517f08c379a0000000000000000000000000000000000000000000000000000000008152600401611fa190613b6d565b60405180910390fd5b6000611fb4611f49565b90506000815111611fd45760405180602001604052806000815250611fff565b80611fde84612472565b604051602001611fef9291906137fd565b6040516020818303038152906040525b915050919050565b6001816000016000828254019250508190555050565b600081600001549050919050565b600073ffffffffffffffffffffffffffffffffffffffff168273ffffffffffffffffffffffffffffffffffffffff16141561209b576040517f08c379a000000000000000000000000000000000000000000000000000000000815260040161209290613bd9565b60405180910390fd5b6120a4816119c0565b156120e4576040517f08c379a00000000000000000000000000000000000000000000000000000000081526004016120db90613c45565b60405180910390fd5b6120f0600083836122d6565b6001600360008473ffffffffffffffffffffffffffffffffffffffff1673ffffffffffffffffffffffffffffffffffffffff16815260200190815260200160002060008282546121409190613333565b92505081905550816002600083815260200190815260200160002060006101000a81548173ffffffffffffffffffffffffffffffffffffffff021916908373ffffffffffffffffffffffffffffffffffffffff160217905550808273ffffffffffffffffffffffffffffffffffffffff16600073ffffffffffffffffffffffffffffffffffffffff167fddf252ad1be2c89b69c2b068fc378daa952ba7f163c4a11628f55a4df523b3ef60405160405180910390a45050565b612202826119c0565b612241576040517f08c379a000000000000000000000000000000000000000000000000000000000815260040161223890613cd7565b60405180910390fd5b806006600084815260200190815260200160002090805190602001906122689291906125e6565b505050565b601460003373ffffffffffffffffffffffffffffffffffffffff1673ffffffffffffffffffffffffffffffffffffffff16815260200190815260200160002081908060018154018082558091505060019003906000526020600020016000909190919091505550565b505050565b60006122fc8473ffffffffffffffffffffffffffffffffffffffff166125d3565b15612465578373ffffffffffffffffffffffffffffffffffffffff1663150b7a02612325611a2c565b8786866040518563ffffffff1660e01b81526004016123479493929190613d4c565b602060405180830381600087803b15801561236157600080fd5b505af192505050801561239257506040513d601f19601f8201168201806040525081019061238f9190613dad565b60015b612415573d80600081146123c2576040519150601f19603f3d011682016040523d82523d6000602084013e6123c7565b606091505b5060008151141561240d576040517f08c379a000000000000000000000000000000000000000000000000000000000815260040161240490613adb565b60405180910390fd5b805181602001fd5b63150b7a0260e01b7bffffffffffffffffffffffffffffffffffffffffffffffffffffffff1916817bffffffffffffffffffffffffffffffffffffffffffffffffffffffff19161491505061246a565b600190505b949350505050565b606060008214156124ba576040518060400160405280600181526020017f300000000000000000000000000000000000000000000000000000000000000081525090506125ce565b600082905060005b600082146124ec5780806124d59061367a565b915050600a826124e59190613e09565b91506124c2565b60008167ffffffffffffffff81111561250857612507612b02565b5b6040519080825280601f01601f19166020018201604052801561253a5781602001600182028036833780820191505090505b5090505b600085146125c7576001826125539190613389565b9150600a856125629190613e3a565b603061256e9190613333565b60f81b8183815181106125845761258361364b565b5b60200101907effffffffffffffffffffffffffffffffffffffffffffffffffffffffffffff1916908160001a905350600a856125c09190613e09565b945061253e565b8093505050505b919050565b600080823b905060008111915050919050565b8280546125f290613044565b90600052602060002090601f016020900481019282612614576000855561265b565b82601f1061262d57805160ff191683800117855561265b565b8280016001018555821561265b579182015b8281111561265a57825182559160200191906001019061263f565b5b509050612668919061266c565b5090565b5b8082111561268557600081600090555060010161266d565b5090565b6000604051905090565b600080fd5b600080fd5b60007fffffffff0000000000000000000000000000000000000000000000000000000082169050919050565b6126d28161269d565b81146126dd57600080fd5b50565b6000813590506126ef816126c9565b92915050565b60006020828403121561270b5761270a612693565b5b6000612719848285016126e0565b91505092915050565b60008115159050919050565b61273781612722565b82525050565b6000602082019050612752600083018461272e565b92915050565b600081519050919050565b600082825260208201905092915050565b60005b83811015612792578082015181840152602081019050612777565b838111156127a1576000848401525b50505050565b6000601f19601f8301169050919050565b60006127c382612758565b6127cd8185612763565b93506127dd818560208601612774565b6127e6816127a7565b840191505092915050565b6000602082019050818103600083015261280b81846127b8565b905092915050565b6000819050919050565b61282681612813565b811461283157600080fd5b50565b6000813590506128438161281d565b92915050565b60006020828403121561285f5761285e612693565b5b600061286d84828501612834565b91505092915050565b600073ffffffffffffffffffffffffffffffffffffffff82169050919050565b60006128a182612876565b9050919050565b6128b181612896565b82525050565b60006020820190506128cc60008301846128a8565b92915050565b6128db81612896565b81146128e657600080fd5b50565b6000813590506128f8816128d2565b92915050565b6000806040838503121561291557612914612693565b5b6000612923858286016128e9565b925050602061293485828601612834565b9150509250929050565b600061294982612876565b9050919050565b6129598161293e565b811461296457600080fd5b50565b60008135905061297681612950565b92915050565b6000806040838503121561299357612992612693565b5b60006129a185828601612967565b92505060206129b285828601612834565b9150509250929050565b6129c581612813565b82525050565b60006020820190506129e060008301846129bc565b92915050565b6000806000606084860312156129ff576129fe612693565b5b6000612a0d868287016128e9565b9350506020612a1e868287016128e9565b9250506040612a2f86828701612834565b9150509250925092565b600060208284031215612a4f57612a4e612693565b5b6000612a5d848285016128e9565b91505092915050565b7f4e487b7100000000000000000000000000000000000000000000000000000000600052602160045260246000fd5b60028110612aa657612aa5612a66565b5b50565b6000819050612ab782612a95565b919050565b6000612ac782612aa9565b9050919050565b612ad781612abc565b82525050565b6000602082019050612af26000830184612ace565b92915050565b600080fd5b600080fd5b7f4e487b7100000000000000000000000000000000000000000000000000000000600052604160045260246000fd5b612b3a826127a7565b810181811067ffffffffffffffff82111715612b5957612b58612b02565b5b80604052505050565b6000612b6c612689565b9050612b788282612b31565b919050565b600067ffffffffffffffff821115612b9857612b97612b02565b5b612ba1826127a7565b9050602081019050919050565b82818337600083830152505050565b6000612bd0612bcb84612b7d565b612b62565b905082815260208101848484011115612bec57612beb612afd565b5b612bf7848285612bae565b509392505050565b600082601f830112612c1457612c13612af8565b5b8135612c24848260208601612bbd565b91505092915050565b600080600060608486031215612c4657612c45612693565b5b6000612c54868287016128e9565b935050602084013567ffffffffffffffff811115612c7557612c74612698565b5b612c8186828701612bff565b9250506040612c9286828701612834565b9150509250925092565b600081519050919050565b600082825260208201905092915050565b6000819050602082019050919050565b612cd181612813565b82525050565b6000612ce38383612cc8565b60208301905092915050565b6000602082019050919050565b6000612d0782612c9c565b612d118185612ca7565b9350612d1c83612cb8565b8060005b83811015612d4d578151612d348882612cd7565b9750612d3f83612cef565b925050600181019050612d20565b5085935050505092915050565b60006020820190508181036000830152612d748184612cfc565b905092915050565b612d8581612722565b8114612d9057600080fd5b50565b600081359050612da281612d7c565b92915050565b60008060408385031215612dbf57612dbe612693565b5b6000612dcd858286016128e9565b9250506020612dde85828601612d93565b9150509250929050565b600060208284031215612dfe57612dfd612693565b5b6000612e0c84828501612d93565b91505092915050565b600067ffffffffffffffff821115612e3057612e2f612b02565b5b612e39826127a7565b9050602081019050919050565b6000612e59612e5484612e15565b612b62565b905082815260208101848484011115612e7557612e74612afd565b5b612e80848285612bae565b509392505050565b600082601f830112612e9d57612e9c612af8565b5b8135612ead848260208601612e46565b91505092915050565b60008060008060808587031215612ed057612ecf612693565b5b6000612ede878288016128e9565b9450506020612eef878288016128e9565b9350506040612f0087828801612834565b925050606085013567ffffffffffffffff811115612f2157612f20612698565b5b612f2d87828801612e88565b91505092959194509250565b60008060408385031215612f5057612f4f612693565b5b6000612f5e858286016128e9565b925050602083013567ffffffffffffffff811115612f7f57612f7e612698565b5b612f8b85828601612bff565b9150509250929050565b60008060408385031215612fac57612fab612693565b5b6000612fba858286016128e9565b9250506020612fcb858286016128e9565b9150509250929050565b60008060408385031215612fec57612feb612693565b5b6000612ffa85828601612834565b925050602061300b85828601612834565b9150509250929050565b7f4e487b7100000000000000000000000000000000000000000000000000000000600052602260045260246000fd5b6000600282049050600182168061305c57607f821691505b602082108114156130705761306f613015565b5b50919050565b7f4552433732313a20617070726f76656420717565727920666f72206e6f6e657860008201527f697374656e7420746f6b656e0000000000000000000000000000000000000000602082015250565b60006130d2602c83612763565b91506130dd82613076565b604082019050919050565b60006020820190508181036000830152613101816130c5565b9050919050565b7f4552433732313a20617070726f76616c20746f2063757272656e74206f776e6560008201527f7200000000000000000000000000000000000000000000000000000000000000602082015250565b6000613164602183612763565b915061316f82613108565b604082019050919050565b6000602082019050818103600083015261319381613157565b9050919050565b7f4552433732313a20617070726f76652063616c6c6572206973206e6f74206f7760008201527f6e6572206e6f7220617070726f76656420666f7220616c6c0000000000000000602082015250565b60006131f6603883612763565b91506132018261319a565b604082019050919050565b60006020820190508181036000830152613225816131e9565b9050919050565b7f4f776e61626c653a2063616c6c6572206973206e6f7420746865206f776e6572600082015250565b6000613262602083612763565b915061326d8261322c565b602082019050919050565b6000602082019050818103600083015261329181613255565b9050919050565b7f4e6f7420656e6f7567682062616c616e636520746f2073656e64210000000000600082015250565b60006132ce601b83612763565b91506132d982613298565b602082019050919050565b600060208201905081810360008301526132fd816132c1565b9050919050565b7f4e487b7100000000000000000000000000000000000000000000000000000000600052601160045260246000fd5b600061333e82612813565b915061334983612813565b9250827fffffffffffffffffffffffffffffffffffffffffffffffffffffffffffffffff0382111561337e5761337d613304565b5b828201905092915050565b600061339482612813565b915061339f83612813565b9250828210156133b2576133b1613304565b5b828203905092915050565b7f4552433732313a207472616e736665722063616c6c6572206973206e6f74206f60008201527f776e6572206e6f7220617070726f766564000000000000000000000000000000602082015250565b6000613419603183612763565b9150613424826133bd565b604082019050919050565b600060208201905081810360008301526134488161340c565b9050919050565b7f4552433732313a206f776e657220717565727920666f72206e6f6e657869737460008201527f656e7420746f6b656e0000000000000000000000000000000000000000000000602082015250565b60006134ab602983612763565b91506134b68261344f565b604082019050919050565b600060208201905081810360008301526134da8161349e565b9050919050565b7f4552433732313a2062616c616e636520717565727920666f7220746865207a6560008201527f726f206164647265737300000000000000000000000000000000000000000000602082015250565b600061353d602a83612763565b9150613548826134e1565b604082019050919050565b6000602082019050818103600083015261356c81613530565b9050919050565b7f53616c65206973206e6f74207374617274656420796574210000000000000000600082015250565b60006135a9601883612763565b91506135b482613573565b602082019050919050565b600060208201905081810360008301526135d88161359c565b9050919050565b7f50726573616c65206973206e6f74207374617274656420796574210000000000600082015250565b6000613615601b83612763565b9150613620826135df565b602082019050919050565b6000602082019050818103600083015261364481613608565b9050919050565b7f4e487b7100000000000000000000000000000000000000000000000000000000600052603260045260246000fd5b600061368582612813565b91507fffffffffffffffffffffffffffffffffffffffffffffffffffffffffffffffff8214156136b8576136b7613304565b5b600182019050919050565b7f4552433732313a20617070726f766520746f2063616c6c657200000000000000600082015250565b60006136f9601983612763565b9150613704826136c3565b602082019050919050565b60006020820190508181036000830152613728816136ec565b9050919050565b7f45524337323155524953746f726167653a2055524920717565727920666f722060008201527f6e6f6e6578697374656e7420746f6b656e000000000000000000000000000000602082015250565b600061378b603183612763565b91506137968261372f565b604082019050919050565b600060208201905081810360008301526137ba8161377e565b9050919050565b600081905092915050565b60006137d782612758565b6137e181856137c1565b93506137f1818560208601612774565b80840191505092915050565b600061380982856137cc565b915061381582846137cc565b91508190509392505050565b7f4f776e61626c653a206e6577206f776e657220697320746865207a65726f206160008201527f6464726573730000000000000000000000000000000000000000000000000000602082015250565b600061387d602683612763565b915061388882613821565b604082019050919050565b600060208201905081810360008301526138ac81613870565b9050919050565b7f4552433732313a206f70657261746f7220717565727920666f72206e6f6e657860008201527f697374656e7420746f6b656e0000000000000000000000000000000000000000602082015250565b600061390f602c83612763565b915061391a826138b3565b604082019050919050565b6000602082019050818103600083015261393e81613902565b9050919050565b7f4552433732313a207472616e73666572206f6620746f6b656e2074686174206960008201527f73206e6f74206f776e0000000000000000000000000000000000000000000000602082015250565b60006139a1602983612763565b91506139ac82613945565b604082019050919050565b600060208201905081810360008301526139d081613994565b9050919050565b7f4552433732313a207472616e7366657220746f20746865207a65726f2061646460008201527f7265737300000000000000000000000000000000000000000000000000000000602082015250565b6000613a33602483612763565b9150613a3e826139d7565b604082019050919050565b60006020820190508181036000830152613a6281613a26565b9050919050565b7f4552433732313a207472616e7366657220746f206e6f6e20455243373231526560008201527f63656976657220696d706c656d656e7465720000000000000000000000000000602082015250565b6000613ac5603283612763565b9150613ad082613a69565b604082019050919050565b60006020820190508181036000830152613af481613ab8565b9050919050565b7f4552433732314d657461646174613a2055524920717565727920666f72206e6f60008201527f6e6578697374656e7420746f6b656e0000000000000000000000000000000000602082015250565b6000613b57602f83612763565b9150613b6282613afb565b604082019050919050565b60006020820190508181036000830152613b8681613b4a565b9050919050565b7f4552433732313a206d696e7420746f20746865207a65726f2061646472657373600082015250565b6000613bc3602083612763565b9150613bce82613b8d565b602082019050919050565b60006020820190508181036000830152613bf281613bb6565b9050919050565b7f4552433732313a20746f6b656e20616c7265616479206d696e74656400000000600082015250565b6000613c2f601c83612763565b9150613c3a82613bf9565b602082019050919050565b60006020820190508181036000830152613c5e81613c22565b9050919050565b7f45524337323155524953746f726167653a2055524920736574206f66206e6f6e60008201527f6578697374656e7420746f6b656e000000000000000000000000000000000000602082015250565b6000613cc1602e83612763565b9150613ccc82613c65565b604082019050919050565b60006020820190508181036000830152613cf081613cb4565b9050919050565b600081519050919050565b600082825260208201905092915050565b6000613d1e82613cf7565b613d288185613d02565b9350613d38818560208601612774565b613d41816127a7565b840191505092915050565b6000608082019050613d6160008301876128a8565b613d6e60208301866128a8565b613d7b60408301856129bc565b8181036060830152613d8d8184613d13565b905095945050505050565b600081519050613da7816126c9565b92915050565b600060208284031215613dc357613dc2612693565b5b6000613dd184828501613d98565b91505092915050565b7f4e487b7100000000000000000000000000000000000000000000000000000000600052601260045260246000fd5b6000613e1482612813565b9150613e1f83612813565b925082613e2f57613e2e613dda565b5b828204905092915050565b6000613e4582612813565b9150613e5083612813565b925082613e6057613e5f613dda565b5b82820690509291505056fea2646970667358221220f3bdd70cf574a86d919a16279729d0031ab42382c42b3c2db2a0217d5bfe99f964736f6c6343000809003368747470733a2f2f676174657761792e70696e6174612e636c6f75642f697066732f516d6350396878726e433154354154506d713273614665414d317970465839426e41737743644842394a436a4c412f",
  "immutableReferences": {},
  "source": "pragma solidity ^0.8.2;\nimport \"@openzeppelin/contracts/access/Ownable.sol\";\nimport \"@openzeppelin/contracts/utils/Counters.sol\";\nimport \"@openzeppelin/contracts/token/ERC721/ERC721.sol\";\nimport \"@openzeppelin/contracts/token/ERC721/extensions/ERC721URIStorage.sol\";\n\nstruct Investors {\n    address addr;\n    uint256 percentage;\n    string tokenId;\n}\n\ncontract CozyHome is ERC721URIStorage, Ownable {\n    using Counters for Counters.Counter;\n    Counters.Counter private _tokenIds;\n\n    uint256 public flor_price_pre_sale = 0.02 ether;\n    uint256 public max_pre_sale_purchase = 3;\n    uint256 public total_first_mintable = 6800;\n    uint256 public max_pre_sale_quantity = 1000;\n    uint256 public maxAllowableMintPresale = 3;\n    string private baseURI =\n        \"https://gateway.pinata.cloud/ipfs/QmcP9hxrnC1T5ATPmq2saFeAM1ypFX9BnAswCdHB9JCjLA/\";\n\n    bool public preSale = false;\n\n    Investors private investorsInheritance;\n\n    mapping(uint256 => address) public firstOwners;\n\n    mapping(address => uint256[]) private mintOwners;\n\n    enum State {\n        Open,\n        Closed\n    }\n\n    State public saleState = State.Open;\n\n    constructor(uint256 _percent) public ERC721(\"CozyHome\", \"NFT\") {\n        // contract owner will have the first place to set inheritence percentage\n        // this number will be fixed for the contract like 0.05\n        // investorsInheritance.addr = msg.sender;\n        // investorsInheritance.percentage = _percent;\n    }\n\n    function changePreSaleState(bool _status) public onlyOwner {\n        preSale = _status;\n    }\n\n    function setInheritence(uint256 _buyer, uint256 _percent) public {\n        investorsInheritance.addr = msg.sender;\n        investorsInheritance.percentage = _percent;\n    }\n\n    function changeFlorPrice(uint256 _new_price) public onlyOwner {\n        flor_price_pre_sale = _new_price;\n    }\n\n    function changeSaleState(uint256 _input) public onlyOwner {\n        if (_input == 0) {\n            saleState = State.Closed;\n        } else {\n            // Sale State Started Again by owner\n            saleState = State.Open;\n        }\n    }\n\n    function minterAdd(uint256 nftid) private {\n        mintOwners[msg.sender].push(nftid);\n    }\n\n    function mintCollectedAllowed(address _recipient)\n        public\n        view\n        returns (bool)\n    {\n        if (mintOwners[_recipient].length <= maxAllowableMintPresale) {\n            return true;\n        } else {\n            return false;\n        }\n    }\n\n    function getNumberOfCollected(address _recipient)\n        public\n        view\n        returns (uint256)\n    {\n        return mintOwners[_recipient].length;\n    }\n\n    function numberOfMintable(address _recipient, uint256 _quantity)\n        public\n        view\n        returns (uint256)\n    {\n        uint256 number_of_collected = getNumberOfCollected(_recipient);\n        if ((_quantity + number_of_collected) <= maxAllowableMintPresale) {\n            return (_quantity - number_of_collected);\n        } else {\n            if (_quantity > maxAllowableMintPresale) {\n                return (maxAllowableMintPresale - number_of_collected);\n            } else {\n                return 0;\n            }\n        }\n    }\n\n    function mintNow(address _recipient, string memory _tokenURI)\n        public\n        returns (uint256)\n    {\n        _tokenIds.increment();\n        uint256 newItemId = _tokenIds.current();\n        _mint(_recipient, newItemId);\n        _setTokenURI(newItemId, _tokenURI);\n        firstOwners[newItemId] = payable(_recipient);\n        minterAdd(newItemId);\n        return newItemId;\n    }\n\n    modifier saleStateCheck() {\n        require(saleState == State.Open, \"Sale is not started yet!\");\n        _;\n    }\n\n    modifier preSaleCheck() {\n        require(preSale == true, \"Presale is not started yet!\");\n        _;\n    }\n\n    function preSaleMint(\n        address _recipient,\n        string memory _tokenURI,\n        uint256 _quantity\n    ) public saleStateCheck preSaleCheck returns (uint256[] memory) {\n        if (\n            mintCollectedAllowed(_recipient) &&\n            maxAllowableMintPresale >= _quantity\n        ) {\n            uint256[] memory mintedItems;\n            for (\n                uint256 i = 1;\n                i < numberOfMintable(_recipient, _quantity);\n                i++\n            ) {\n                uint256 newItemId = mintNow(_recipient, _tokenURI);\n                mintedItems[i] = (newItemId);\n            }\n            return mintedItems;\n        } else {}\n    }\n\n    function getWalletBalance() public view onlyOwner returns (uint256) {\n        return address(this).balance;\n    }\n\n    modifier sendableAmountCheck(uint256 _amount) {\n        require(_amount <= getWalletBalance(), \"Not enough balance to send!\");\n        _;\n    }\n\n    function transferContractBalance(\n        address payable _recipient,\n        uint256 _amount\n    ) public onlyOwner sendableAmountCheck(_amount) returns (bool) {\n        _recipient.transfer(_amount);\n        return true;\n    }\n}\n",
  "sourcePath": "/Users/akinipek/CozyContract/cozycontract2/contracts/_CozyHome.sol",
  "compiler": {
    "name": "solc",
    "version": "0.8.9+commit.e5eed63a.Emscripten.clang"
  },
  "schemaVersion": "3.4.3",
  "updatedAt": "2021-11-09T19:19:23.623Z",
  "networkType": "ethereum",
  "devdoc": {
    "kind": "dev",
    "methods": {
      "approve(address,uint256)": {
        "details": "See {IERC721-approve}."
      },
      "balanceOf(address)": {
        "details": "See {IERC721-balanceOf}."
      },
      "getApproved(uint256)": {
        "details": "See {IERC721-getApproved}."
      },
      "isApprovedForAll(address,address)": {
        "details": "See {IERC721-isApprovedForAll}."
      },
      "name()": {
        "details": "See {IERC721Metadata-name}."
      },
      "owner()": {
        "details": "Returns the address of the current owner."
      },
      "ownerOf(uint256)": {
        "details": "See {IERC721-ownerOf}."
      },
      "renounceOwnership()": {
        "details": "Leaves the contract without owner. It will not be possible to call `onlyOwner` functions anymore. Can only be called by the current owner. NOTE: Renouncing ownership will leave the contract without an owner, thereby removing any functionality that is only available to the owner."
      },
      "safeTransferFrom(address,address,uint256)": {
        "details": "See {IERC721-safeTransferFrom}."
      },
      "safeTransferFrom(address,address,uint256,bytes)": {
        "details": "See {IERC721-safeTransferFrom}."
      },
      "setApprovalForAll(address,bool)": {
        "details": "See {IERC721-setApprovalForAll}."
      },
      "supportsInterface(bytes4)": {
        "details": "See {IERC165-supportsInterface}."
      },
      "symbol()": {
        "details": "See {IERC721Metadata-symbol}."
      },
      "tokenURI(uint256)": {
        "details": "See {IERC721Metadata-tokenURI}."
      },
      "transferFrom(address,address,uint256)": {
        "details": "See {IERC721-transferFrom}."
      },
      "transferOwnership(address)": {
        "details": "Transfers ownership of the contract to a new account (`newOwner`). Can only be called by the current owner."
      }
    },
    "version": 1
  },
  "userdoc": {
    "kind": "user",
    "methods": {},
    "version": 1
  }
}