{
  "contractName": "CozyHome",
  "abi": [
    {
      "inputs": [
        {
          "internalType": "uint256",
          "name": "_percent",
          "type": "uint256"
        }
      ],
      "stateMutability": "nonpayable",
      "type": "constructor"
    },
    {
      "anonymous": false,
      "inputs": [
        {
          "indexed": true,
          "internalType": "address",
          "name": "owner",
          "type": "address"
        },
        {
          "indexed": true,
          "internalType": "address",
          "name": "approved",
          "type": "address"
        },
        {
          "indexed": true,
          "internalType": "uint256",
          "name": "tokenId",
          "type": "uint256"
        }
      ],
      "name": "Approval",
      "type": "event"
    },
    {
      "anonymous": false,
      "inputs": [
        {
          "indexed": true,
          "internalType": "address",
          "name": "owner",
          "type": "address"
        },
        {
          "indexed": true,
          "internalType": "address",
          "name": "operator",
          "type": "address"
        },
        {
          "indexed": false,
          "internalType": "bool",
          "name": "approved",
          "type": "bool"
        }
      ],
      "name": "ApprovalForAll",
      "type": "event"
    },
    {
      "anonymous": false,
      "inputs": [
        {
          "indexed": true,
          "internalType": "address",
          "name": "previousOwner",
          "type": "address"
        },
        {
          "indexed": true,
          "internalType": "address",
          "name": "newOwner",
          "type": "address"
        }
      ],
      "name": "OwnershipTransferred",
      "type": "event"
    },
    {
      "anonymous": false,
      "inputs": [
        {
          "indexed": false,
          "internalType": "address",
          "name": "",
          "type": "address"
        },
        {
          "indexed": false,
          "internalType": "uint256",
          "name": "",
          "type": "uint256"
        }
      ],
      "name": "Received",
      "type": "event"
    },
    {
      "anonymous": false,
      "inputs": [
        {
          "indexed": true,
          "internalType": "address",
          "name": "from",
          "type": "address"
        },
        {
          "indexed": true,
          "internalType": "address",
          "name": "to",
          "type": "address"
        },
        {
          "indexed": true,
          "internalType": "uint256",
          "name": "tokenId",
          "type": "uint256"
        }
      ],
      "name": "Transfer",
      "type": "event"
    },
    {
      "stateMutability": "payable",
      "type": "fallback",
      "payable": true
    },
    {
      "inputs": [
        {
          "internalType": "address",
          "name": "to",
          "type": "address"
        },
        {
          "internalType": "uint256",
          "name": "tokenId",
          "type": "uint256"
        }
      ],
      "name": "approve",
      "outputs": [],
      "stateMutability": "nonpayable",
      "type": "function"
    },
    {
      "inputs": [
        {
          "internalType": "address",
          "name": "owner",
          "type": "address"
        }
      ],
      "name": "balanceOf",
      "outputs": [
        {
          "internalType": "uint256",
          "name": "",
          "type": "uint256"
        }
      ],
      "stateMutability": "view",
      "type": "function",
      "constant": true
    },
    {
      "inputs": [
        {
          "internalType": "uint256",
          "name": "",
          "type": "uint256"
        }
      ],
      "name": "firstOwners",
      "outputs": [
        {
          "internalType": "address",
          "name": "",
          "type": "address"
        }
      ],
      "stateMutability": "view",
      "type": "function",
      "constant": true
    },
    {
      "inputs": [],
      "name": "flor_price_pre_sale",
      "outputs": [
        {
          "internalType": "uint256",
          "name": "",
          "type": "uint256"
        }
      ],
      "stateMutability": "view",
      "type": "function",
      "constant": true
    },
    {
      "inputs": [
        {
          "internalType": "uint256",
          "name": "tokenId",
          "type": "uint256"
        }
      ],
      "name": "getApproved",
      "outputs": [
        {
          "internalType": "address",
          "name": "",
          "type": "address"
        }
      ],
      "stateMutability": "view",
      "type": "function",
      "constant": true
    },
    {
      "inputs": [
        {
          "internalType": "address",
          "name": "owner",
          "type": "address"
        },
        {
          "internalType": "address",
          "name": "operator",
          "type": "address"
        }
      ],
      "name": "isApprovedForAll",
      "outputs": [
        {
          "internalType": "bool",
          "name": "",
          "type": "bool"
        }
      ],
      "stateMutability": "view",
      "type": "function",
      "constant": true
    },
    {
      "inputs": [],
      "name": "maxAllowableMintPresale",
      "outputs": [
        {
          "internalType": "uint256",
          "name": "",
          "type": "uint256"
        }
      ],
      "stateMutability": "view",
      "type": "function",
      "constant": true
    },
    {
      "inputs": [],
      "name": "max_pre_sale_purchase",
      "outputs": [
        {
          "internalType": "uint256",
          "name": "",
          "type": "uint256"
        }
      ],
      "stateMutability": "view",
      "type": "function",
      "constant": true
    },
    {
      "inputs": [],
      "name": "max_pre_sale_quantity",
      "outputs": [
        {
          "internalType": "uint256",
          "name": "",
          "type": "uint256"
        }
      ],
      "stateMutability": "view",
      "type": "function",
      "constant": true
    },
    {
      "inputs": [],
      "name": "name",
      "outputs": [
        {
          "internalType": "string",
          "name": "",
          "type": "string"
        }
      ],
      "stateMutability": "view",
      "type": "function",
      "constant": true
    },
    {
      "inputs": [],
      "name": "owner",
      "outputs": [
        {
          "internalType": "address",
          "name": "",
          "type": "address"
        }
      ],
      "stateMutability": "view",
      "type": "function",
      "constant": true
    },
    {
      "inputs": [
        {
          "internalType": "uint256",
          "name": "tokenId",
          "type": "uint256"
        }
      ],
      "name": "ownerOf",
      "outputs": [
        {
          "internalType": "address",
          "name": "",
          "type": "address"
        }
      ],
      "stateMutability": "view",
      "type": "function",
      "constant": true
    },
    {
      "inputs": [],
      "name": "preSale",
      "outputs": [
        {
          "internalType": "bool",
          "name": "",
          "type": "bool"
        }
      ],
      "stateMutability": "view",
      "type": "function",
      "constant": true
    },
    {
      "inputs": [],
      "name": "renounceOwnership",
      "outputs": [],
      "stateMutability": "nonpayable",
      "type": "function"
    },
    {
      "inputs": [
        {
          "internalType": "address",
          "name": "from",
          "type": "address"
        },
        {
          "internalType": "address",
          "name": "to",
          "type": "address"
        },
        {
          "internalType": "uint256",
          "name": "tokenId",
          "type": "uint256"
        }
      ],
      "name": "safeTransferFrom",
      "outputs": [],
      "stateMutability": "nonpayable",
      "type": "function"
    },
    {
      "inputs": [
        {
          "internalType": "address",
          "name": "from",
          "type": "address"
        },
        {
          "internalType": "address",
          "name": "to",
          "type": "address"
        },
        {
          "internalType": "uint256",
          "name": "tokenId",
          "type": "uint256"
        },
        {
          "internalType": "bytes",
          "name": "_data",
          "type": "bytes"
        }
      ],
      "name": "safeTransferFrom",
      "outputs": [],
      "stateMutability": "nonpayable",
      "type": "function"
    },
    {
      "inputs": [],
      "name": "saleState",
      "outputs": [
        {
          "internalType": "enum CozyHome.State",
          "name": "",
          "type": "uint8"
        }
      ],
      "stateMutability": "view",
      "type": "function",
      "constant": true
    },
    {
      "inputs": [
        {
          "internalType": "address",
          "name": "operator",
          "type": "address"
        },
        {
          "internalType": "bool",
          "name": "approved",
          "type": "bool"
        }
      ],
      "name": "setApprovalForAll",
      "outputs": [],
      "stateMutability": "nonpayable",
      "type": "function"
    },
    {
      "inputs": [
        {
          "internalType": "bytes4",
          "name": "interfaceId",
          "type": "bytes4"
        }
      ],
      "name": "supportsInterface",
      "outputs": [
        {
          "internalType": "bool",
          "name": "",
          "type": "bool"
        }
      ],
      "stateMutability": "view",
      "type": "function",
      "constant": true
    },
    {
      "inputs": [],
      "name": "symbol",
      "outputs": [
        {
          "internalType": "string",
          "name": "",
          "type": "string"
        }
      ],
      "stateMutability": "view",
      "type": "function",
      "constant": true
    },
    {
      "inputs": [
        {
          "internalType": "uint256",
          "name": "tokenId",
          "type": "uint256"
        }
      ],
      "name": "tokenURI",
      "outputs": [
        {
          "internalType": "string",
          "name": "",
          "type": "string"
        }
      ],
      "stateMutability": "view",
      "type": "function",
      "constant": true
    },
    {
      "inputs": [],
      "name": "total_first_mintable",
      "outputs": [
        {
          "internalType": "uint256",
          "name": "",
          "type": "uint256"
        }
      ],
      "stateMutability": "view",
      "type": "function",
      "constant": true
    },
    {
      "inputs": [
        {
          "internalType": "address",
          "name": "from",
          "type": "address"
        },
        {
          "internalType": "address",
          "name": "to",
          "type": "address"
        },
        {
          "internalType": "uint256",
          "name": "tokenId",
          "type": "uint256"
        }
      ],
      "name": "transferFrom",
      "outputs": [],
      "stateMutability": "nonpayable",
      "type": "function"
    },
    {
      "inputs": [
        {
          "internalType": "address",
          "name": "newOwner",
          "type": "address"
        }
      ],
      "name": "transferOwnership",
      "outputs": [],
      "stateMutability": "nonpayable",
      "type": "function"
    },
    {
      "stateMutability": "payable",
      "type": "receive",
      "payable": true
    },
    {
      "inputs": [
        {
          "internalType": "bool",
          "name": "_status",
          "type": "bool"
        }
      ],
      "name": "changePreSaleState",
      "outputs": [],
      "stateMutability": "nonpayable",
      "type": "function"
    },
    {
      "inputs": [
        {
          "internalType": "uint256",
          "name": "_new_price",
          "type": "uint256"
        }
      ],
      "name": "changeFlorPrice",
      "outputs": [],
      "stateMutability": "nonpayable",
      "type": "function"
    },
    {
      "inputs": [
        {
          "internalType": "uint256",
          "name": "_input",
          "type": "uint256"
        }
      ],
      "name": "changeSaleState",
      "outputs": [],
      "stateMutability": "nonpayable",
      "type": "function"
    },
    {
      "inputs": [],
      "name": "getSaleState",
      "outputs": [
        {
          "internalType": "enum CozyHome.State",
          "name": "",
          "type": "uint8"
        }
      ],
      "stateMutability": "view",
      "type": "function",
      "constant": true
    },
    {
      "inputs": [
        {
          "internalType": "address",
          "name": "_recipient",
          "type": "address"
        }
      ],
      "name": "mintCollectedAllowed",
      "outputs": [
        {
          "internalType": "bool",
          "name": "",
          "type": "bool"
        }
      ],
      "stateMutability": "view",
      "type": "function",
      "constant": true
    },
    {
      "inputs": [
        {
          "internalType": "address",
          "name": "_recipient",
          "type": "address"
        }
      ],
      "name": "getNumberOfCollected",
      "outputs": [
        {
          "internalType": "uint256",
          "name": "",
          "type": "uint256"
        }
      ],
      "stateMutability": "view",
      "type": "function",
      "constant": true
    },
    {
      "inputs": [
        {
          "internalType": "address",
          "name": "_recipient",
          "type": "address"
        },
        {
          "internalType": "uint256",
          "name": "_quantity",
          "type": "uint256"
        }
      ],
      "name": "numberOfMintable",
      "outputs": [
        {
          "internalType": "uint256",
          "name": "",
          "type": "uint256"
        }
      ],
      "stateMutability": "view",
      "type": "function",
      "constant": true
    },
    {
      "inputs": [
        {
          "internalType": "address",
          "name": "_recipient",
          "type": "address"
        },
        {
          "internalType": "string",
          "name": "_tokenURI",
          "type": "string"
        }
      ],
      "name": "mintNow",
      "outputs": [
        {
          "internalType": "uint256",
          "name": "",
          "type": "uint256"
        }
      ],
      "stateMutability": "nonpayable",
      "type": "function"
    },
    {
      "inputs": [
        {
          "internalType": "address",
          "name": "_recipient",
          "type": "address"
        },
        {
          "internalType": "string",
          "name": "_tokenURI",
          "type": "string"
        },
        {
          "internalType": "uint256",
          "name": "_quantity",
          "type": "uint256"
        }
      ],
      "name": "preSaleMint",
      "outputs": [
        {
          "internalType": "uint256[]",
          "name": "",
          "type": "uint256[]"
        }
      ],
      "stateMutability": "nonpayable",
      "type": "function"
    },
    {
      "inputs": [],
      "name": "getWalletBalance",
      "outputs": [
        {
          "internalType": "uint256",
          "name": "",
          "type": "uint256"
        }
      ],
      "stateMutability": "view",
      "type": "function",
      "constant": true
    },
    {
      "inputs": [
        {
          "internalType": "address payable",
          "name": "_recipient",
          "type": "address"
        },
        {
          "internalType": "uint256",
          "name": "_amount",
          "type": "uint256"
        }
      ],
      "name": "transferContractBalance",
      "outputs": [
        {
          "internalType": "bool",
          "name": "",
          "type": "bool"
        }
      ],
      "stateMutability": "nonpayable",
      "type": "function"
    }
  ],
  "bytecode": "0x6080604052670429d069189e00006009556003600a55611a90600b556103e8600c556003600d556040518060800160405280605181526020016200447b60519139600e90805190602001906200005792919062000269565b506000600f60006101000a81548160ff0219169083151502179055506000601560006101000a81548160ff021916908360018111156200009c576200009b62000319565b5b0217905550348015620000ae57600080fd5b50604051620044cc380380620044cc8339818101604052810190620000d4919062000388565b6040518060400160405280600881526020017f436f7a79486f6d650000000000000000000000000000000000000000000000008152506040518060400160405280600381526020017f4e4654000000000000000000000000000000000000000000000000000000000081525081600090805190602001906200015892919062000269565b5080600190805190602001906200017192919062000269565b50505062000194620001886200019b60201b60201c565b620001a360201b60201c565b506200041f565b600033905090565b6000600760009054906101000a900473ffffffffffffffffffffffffffffffffffffffff16905081600760006101000a81548173ffffffffffffffffffffffffffffffffffffffff021916908373ffffffffffffffffffffffffffffffffffffffff1602179055508173ffffffffffffffffffffffffffffffffffffffff168173ffffffffffffffffffffffffffffffffffffffff167f8be0079c531659141344cd1fd0a4f28419497f9722a3daafe3b4186f6b6457e060405160405180910390a35050565b8280546200027790620003e9565b90600052602060002090601f0160209004810192826200029b5760008555620002e7565b82601f10620002b657805160ff1916838001178555620002e7565b82800160010185558215620002e7579182015b82811115620002e6578251825591602001919060010190620002c9565b5b509050620002f69190620002fa565b5090565b5b8082111562000315576000816000905550600101620002fb565b5090565b7f4e487b7100000000000000000000000000000000000000000000000000000000600052602160045260246000fd5b600080fd5b6000819050919050565b62000362816200034d565b81146200036e57600080fd5b50565b600081519050620003828162000357565b92915050565b600060208284031215620003a157620003a062000348565b5b6000620003b18482850162000371565b91505092915050565b7f4e487b7100000000000000000000000000000000000000000000000000000000600052602260045260246000fd5b600060028204905060018216806200040257607f821691505b60208210811415620004195762000418620003ba565b5b50919050565b61404c806200042f6000396000f3fe6080604052600436106102085760003560e01c806370a0823111610118578063c5b1374d116100a0578063e985e9c51161006f578063e985e9c5146107f8578063eae7d2d014610835578063efaff03c1461085e578063f2fde38b1461089b578063f55ae6e0146108c457610248565b8063c5b1374d14610728578063c87b56dd14610753578063e1bd2abe14610790578063e52ace55146107bb57610248565b806395978604116100e7578063959786041461064557806395d89b4114610682578063a22cb465146106ad578063a776155d146106d6578063b88d4fde146106ff57610248565b806370a082311461059d578063715018a6146105da578063743703a1146105f15780638da5cb5b1461061a57610248565b806325bdb2a81161019b5780635a7adf7f1161016a5780635a7adf7f146104b4578063603f4d52146104df5780636352211e1461050a57806366e71c01146105475780636abe3fce1461057257610248565b806325bdb2a8146103f8578063329a27e71461042357806342842e0e1461044e5780634bf4d2671461047757610248565b806310a5a3d9116101d757806310a5a3d91461031857806321677ae81461035557806323b872dd14610392578063255d474f146103bb57610248565b806301ffc9a71461024a57806306fdde0314610287578063081812fc146102b2578063095ea7b3146102ef57610248565b36610248577f88a5966d370b9919b20f3e2c13ff65706f196a4e32cc2c12bf57088f88525874333460405161023e9291906128a5565b60405180910390a1005b005b34801561025657600080fd5b50610271600480360381019061026c919061293a565b6108ef565b60405161027e9190612982565b60405180910390f35b34801561029357600080fd5b5061029c6109d1565b6040516102a99190612a36565b60405180910390f35b3480156102be57600080fd5b506102d960048036038101906102d49190612a84565b610a63565b6040516102e69190612ab1565b60405180910390f35b3480156102fb57600080fd5b5061031660048036038101906103119190612af8565b610ae8565b005b34801561032457600080fd5b5061033f600480360381019061033a9190612b76565b610c00565b60405161034c9190612982565b60405180910390f35b34801561036157600080fd5b5061037c60048036038101906103779190612af8565b610d1b565b6040516103899190612bb6565b60405180910390f35b34801561039e57600080fd5b506103b960048036038101906103b49190612bd1565b610d7d565b005b3480156103c757600080fd5b506103e260048036038101906103dd9190612c24565b610ddd565b6040516103ef9190612982565b60405180910390f35b34801561040457600080fd5b5061040d610e3d565b60405161041a9190612cc8565b60405180910390f35b34801561042f57600080fd5b50610438610e54565b6040516104459190612bb6565b60405180910390f35b34801561045a57600080fd5b5061047560048036038101906104709190612bd1565b610ed8565b005b34801561048357600080fd5b5061049e60048036038101906104999190612c24565b610ef8565b6040516104ab9190612bb6565b60405180910390f35b3480156104c057600080fd5b506104c9610f44565b6040516104d69190612982565b60405180910390f35b3480156104eb57600080fd5b506104f4610f57565b6040516105019190612cc8565b60405180910390f35b34801561051657600080fd5b50610531600480360381019061052c9190612a84565b610f6a565b60405161053e9190612ab1565b60405180910390f35b34801561055357600080fd5b5061055c61101c565b6040516105699190612bb6565b60405180910390f35b34801561057e57600080fd5b50610587611022565b6040516105949190612bb6565b60405180910390f35b3480156105a957600080fd5b506105c460048036038101906105bf9190612c24565b611028565b6040516105d19190612bb6565b60405180910390f35b3480156105e657600080fd5b506105ef6110e0565b005b3480156105fd57600080fd5b5061061860048036038101906106139190612a84565b611168565b005b34801561062657600080fd5b5061062f6111ee565b60405161063c9190612ab1565b60405180910390f35b34801561065157600080fd5b5061066c60048036038101906106679190612e18565b611218565b6040516106799190612f45565b60405180910390f35b34801561068e57600080fd5b50610697611370565b6040516106a49190612a36565b60405180910390f35b3480156106b957600080fd5b506106d460048036038101906106cf9190612f93565b611402565b005b3480156106e257600080fd5b506106fd60048036038101906106f89190612fd3565b611583565b005b34801561070b57600080fd5b50610726600480360381019061072191906130a1565b61161c565b005b34801561073457600080fd5b5061073d61167e565b60405161074a9190612bb6565b60405180910390f35b34801561075f57600080fd5b5061077a60048036038101906107759190612a84565b611684565b6040516107879190612a36565b60405180910390f35b34801561079c57600080fd5b506107a56117d6565b6040516107b29190612bb6565b60405180910390f35b3480156107c757600080fd5b506107e260048036038101906107dd9190613124565b6117dc565b6040516107ef9190612bb6565b60405180910390f35b34801561080457600080fd5b5061081f600480360381019061081a9190613180565b61186f565b60405161082c9190612982565b60405180910390f35b34801561084157600080fd5b5061085c60048036038101906108579190612a84565b611903565b005b34801561086a57600080fd5b5061088560048036038101906108809190612a84565b6119e7565b6040516108929190612ab1565b60405180910390f35b3480156108a757600080fd5b506108c260048036038101906108bd9190612c24565b611a1a565b005b3480156108d057600080fd5b506108d9611b12565b6040516108e69190612bb6565b60405180910390f35b60007f80ac58cd000000000000000000000000000000000000000000000000000000007bffffffffffffffffffffffffffffffffffffffffffffffffffffffff1916827bffffffffffffffffffffffffffffffffffffffffffffffffffffffff191614806109ba57507f5b5e139f000000000000000000000000000000000000000000000000000000007bffffffffffffffffffffffffffffffffffffffffffffffffffffffff1916827bffffffffffffffffffffffffffffffffffffffffffffffffffffffff1916145b806109ca57506109c982611b18565b5b9050919050565b6060600080546109e0906131ef565b80601f0160208091040260200160405190810160405280929190818152602001828054610a0c906131ef565b8015610a595780601f10610a2e57610100808354040283529160200191610a59565b820191906000526020600020905b815481529060010190602001808311610a3c57829003601f168201915b5050505050905090565b6000610a6e82611b82565b610aad576040517f08c379a0000000000000000000000000000000000000000000000000000000008152600401610aa490613293565b60405180910390fd5b6004600083815260200190815260200160002060009054906101000a900473ffffffffffffffffffffffffffffffffffffffff169050919050565b6000610af382610f6a565b90508073ffffffffffffffffffffffffffffffffffffffff168373ffffffffffffffffffffffffffffffffffffffff161415610b64576040517f08c379a0000000000000000000000000000000000000000000000000000000008152600401610b5b90613325565b60405180910390fd5b8073ffffffffffffffffffffffffffffffffffffffff16610b83611bee565b73ffffffffffffffffffffffffffffffffffffffff161480610bb25750610bb181610bac611bee565b61186f565b5b610bf1576040517f08c379a0000000000000000000000000000000000000000000000000000000008152600401610be8906133b7565b60405180910390fd5b610bfb8383611bf6565b505050565b6000610c0a611bee565b73ffffffffffffffffffffffffffffffffffffffff16610c286111ee565b73ffffffffffffffffffffffffffffffffffffffff1614610c7e576040517f08c379a0000000000000000000000000000000000000000000000000000000008152600401610c7590613423565b60405180910390fd5b81610c87610e54565b811115610cc9576040517f08c379a0000000000000000000000000000000000000000000000000000000008152600401610cc09061348f565b60405180910390fd5b8373ffffffffffffffffffffffffffffffffffffffff166108fc849081150290604051600060405180830381858888f19350505050158015610d0f573d6000803e3d6000fd5b50600191505092915050565b600080610d2784610ef8565b9050600d548184610d3891906134de565b11610d51578083610d499190613534565b915050610d77565b600d54831115610d715780600d54610d699190613534565b915050610d77565b60009150505b92915050565b610d8e610d88611bee565b82611caf565b610dcd576040517f08c379a0000000000000000000000000000000000000000000000000000000008152600401610dc4906135da565b60405180910390fd5b610dd8838383611d8d565b505050565b6000600d54601460008473ffffffffffffffffffffffffffffffffffffffff1673ffffffffffffffffffffffffffffffffffffffff1681526020019081526020016000208054905011610e335760019050610e38565b600090505b919050565b6000601560009054906101000a900460ff16905090565b6000610e5e611bee565b73ffffffffffffffffffffffffffffffffffffffff16610e7c6111ee565b73ffffffffffffffffffffffffffffffffffffffff1614610ed2576040517f08c379a0000000000000000000000000000000000000000000000000000000008152600401610ec990613423565b60405180910390fd5b47905090565b610ef38383836040518060200160405280600081525061161c565b505050565b6000601460008373ffffffffffffffffffffffffffffffffffffffff1673ffffffffffffffffffffffffffffffffffffffff168152602001908152602001600020805490509050919050565b600f60009054906101000a900460ff1681565b601560009054906101000a900460ff1681565b6000806002600084815260200190815260200160002060009054906101000a900473ffffffffffffffffffffffffffffffffffffffff169050600073ffffffffffffffffffffffffffffffffffffffff168173ffffffffffffffffffffffffffffffffffffffff161415611013576040517f08c379a000000000000000000000000000000000000000000000000000000000815260040161100a9061366c565b60405180910390fd5b80915050919050565b600b5481565b600c5481565b60008073ffffffffffffffffffffffffffffffffffffffff168273ffffffffffffffffffffffffffffffffffffffff161415611099576040517f08c379a0000000000000000000000000000000000000000000000000000000008152600401611090906136fe565b60405180910390fd5b600360008373ffffffffffffffffffffffffffffffffffffffff1673ffffffffffffffffffffffffffffffffffffffff168152602001908152602001600020549050919050565b6110e8611bee565b73ffffffffffffffffffffffffffffffffffffffff166111066111ee565b73ffffffffffffffffffffffffffffffffffffffff161461115c576040517f08c379a000000000000000000000000000000000000000000000000000000000815260040161115390613423565b60405180910390fd5b6111666000611fe9565b565b611170611bee565b73ffffffffffffffffffffffffffffffffffffffff1661118e6111ee565b73ffffffffffffffffffffffffffffffffffffffff16146111e4576040517f08c379a00000000000000000000000000000000000000000000000000000000081526004016111db90613423565b60405180910390fd5b8060098190555050565b6000600760009054906101000a900473ffffffffffffffffffffffffffffffffffffffff16905090565b60606000600181111561122e5761122d612c51565b5b601560009054906101000a900460ff1660018111156112505761124f612c51565b5b14611290576040517f08c379a00000000000000000000000000000000000000000000000000000000081526004016112879061376a565b60405180910390fd5b60011515600f60009054906101000a900460ff161515146112e6576040517f08c379a00000000000000000000000000000000000000000000000000000000081526004016112dd906137d6565b60405180910390fd5b6112ef84610ddd565b80156112fd575081600d5410155b156113685760606000600190505b6113158685610d1b565b81101561135e57600061132887876117dc565b90508083838151811061133e5761133d6137f6565b5b60200260200101818152505050808061135690613825565b91505061130b565b5080915050611369565b5b9392505050565b60606001805461137f906131ef565b80601f01602080910402602001604051908101604052809291908181526020018280546113ab906131ef565b80156113f85780601f106113cd576101008083540402835291602001916113f8565b820191906000526020600020905b8154815290600101906020018083116113db57829003601f168201915b5050505050905090565b61140a611bee565b73ffffffffffffffffffffffffffffffffffffffff168273ffffffffffffffffffffffffffffffffffffffff161415611478576040517f08c379a000000000000000000000000000000000000000000000000000000000815260040161146f906138ba565b60405180910390fd5b8060056000611485611bee565b73ffffffffffffffffffffffffffffffffffffffff1673ffffffffffffffffffffffffffffffffffffffff16815260200190815260200160002060008473ffffffffffffffffffffffffffffffffffffffff1673ffffffffffffffffffffffffffffffffffffffff16815260200190815260200160002060006101000a81548160ff0219169083151502179055508173ffffffffffffffffffffffffffffffffffffffff16611532611bee565b73ffffffffffffffffffffffffffffffffffffffff167f17307eab39ab6107e8899845ad3d59bd9653f200f220920489ca2b5937696c31836040516115779190612982565b60405180910390a35050565b61158b611bee565b73ffffffffffffffffffffffffffffffffffffffff166115a96111ee565b73ffffffffffffffffffffffffffffffffffffffff16146115ff576040517f08c379a00000000000000000000000000000000000000000000000000000000081526004016115f690613423565b60405180910390fd5b80600f60006101000a81548160ff02191690831515021790555050565b61162d611627611bee565b83611caf565b61166c576040517f08c379a0000000000000000000000000000000000000000000000000000000008152600401611663906135da565b60405180910390fd5b611678848484846120af565b50505050565b60095481565b606061168f82611b82565b6116ce576040517f08c379a00000000000000000000000000000000000000000000000000000000081526004016116c59061394c565b60405180910390fd5b60006006600084815260200190815260200160002080546116ee906131ef565b80601f016020809104026020016040519081016040528092919081815260200182805461171a906131ef565b80156117675780601f1061173c57610100808354040283529160200191611767565b820191906000526020600020905b81548152906001019060200180831161174a57829003601f168201915b50505050509050600061177861210b565b905060008151141561178e5781925050506117d1565b6000825111156117c35780826040516020016117ab9291906139a8565b604051602081830303815290604052925050506117d1565b6117cc84612122565b925050505b919050565b600a5481565b60006117e860086121c9565b60006117f460086121df565b905061180084826121ed565b61180a81846123bb565b836013600083815260200190815260200160002060006101000a81548173ffffffffffffffffffffffffffffffffffffffff021916908373ffffffffffffffffffffffffffffffffffffffff1602179055506118658161242f565b8091505092915050565b6000600560008473ffffffffffffffffffffffffffffffffffffffff1673ffffffffffffffffffffffffffffffffffffffff16815260200190815260200160002060008373ffffffffffffffffffffffffffffffffffffffff1673ffffffffffffffffffffffffffffffffffffffff16815260200190815260200160002060009054906101000a900460ff16905092915050565b61190b611bee565b73ffffffffffffffffffffffffffffffffffffffff166119296111ee565b73ffffffffffffffffffffffffffffffffffffffff161461197f576040517f08c379a000000000000000000000000000000000000000000000000000000000815260040161197690613423565b60405180910390fd5b60008114156119b8576001601560006101000a81548160ff021916908360018111156119ae576119ad612c51565b5b02179055506119e4565b6000601560006101000a81548160ff021916908360018111156119de576119dd612c51565b5b02179055505b50565b60136020528060005260406000206000915054906101000a900473ffffffffffffffffffffffffffffffffffffffff1681565b611a22611bee565b73ffffffffffffffffffffffffffffffffffffffff16611a406111ee565b73ffffffffffffffffffffffffffffffffffffffff1614611a96576040517f08c379a0000000000000000000000000000000000000000000000000000000008152600401611a8d90613423565b60405180910390fd5b600073ffffffffffffffffffffffffffffffffffffffff168173ffffffffffffffffffffffffffffffffffffffff161415611b06576040517f08c379a0000000000000000000000000000000000000000000000000000000008152600401611afd90613a3e565b60405180910390fd5b611b0f81611fe9565b50565b600d5481565b60007f01ffc9a7000000000000000000000000000000000000000000000000000000007bffffffffffffffffffffffffffffffffffffffffffffffffffffffff1916827bffffffffffffffffffffffffffffffffffffffffffffffffffffffff1916149050919050565b60008073ffffffffffffffffffffffffffffffffffffffff166002600084815260200190815260200160002060009054906101000a900473ffffffffffffffffffffffffffffffffffffffff1673ffffffffffffffffffffffffffffffffffffffff1614159050919050565b600033905090565b816004600083815260200190815260200160002060006101000a81548173ffffffffffffffffffffffffffffffffffffffff021916908373ffffffffffffffffffffffffffffffffffffffff160217905550808273ffffffffffffffffffffffffffffffffffffffff16611c6983610f6a565b73ffffffffffffffffffffffffffffffffffffffff167f8c5be1e5ebec7d5bd14f71427d1e84f3dd0314c0f7b2291e5b200ac8c7c3b92560405160405180910390a45050565b6000611cba82611b82565b611cf9576040517f08c379a0000000000000000000000000000000000000000000000000000000008152600401611cf090613ad0565b60405180910390fd5b6000611d0483610f6a565b90508073ffffffffffffffffffffffffffffffffffffffff168473ffffffffffffffffffffffffffffffffffffffff161480611d7357508373ffffffffffffffffffffffffffffffffffffffff16611d5b84610a63565b73ffffffffffffffffffffffffffffffffffffffff16145b80611d845750611d83818561186f565b5b91505092915050565b8273ffffffffffffffffffffffffffffffffffffffff16611dad82610f6a565b73ffffffffffffffffffffffffffffffffffffffff1614611e03576040517f08c379a0000000000000000000000000000000000000000000000000000000008152600401611dfa90613b62565b60405180910390fd5b600073ffffffffffffffffffffffffffffffffffffffff168273ffffffffffffffffffffffffffffffffffffffff161415611e73576040517f08c379a0000000000000000000000000000000000000000000000000000000008152600401611e6a90613bf4565b60405180910390fd5b611e7e838383612498565b611e89600082611bf6565b6001600360008573ffffffffffffffffffffffffffffffffffffffff1673ffffffffffffffffffffffffffffffffffffffff1681526020019081526020016000206000828254611ed99190613534565b925050819055506001600360008473ffffffffffffffffffffffffffffffffffffffff1673ffffffffffffffffffffffffffffffffffffffff1681526020019081526020016000206000828254611f3091906134de565b92505081905550816002600083815260200190815260200160002060006101000a81548173ffffffffffffffffffffffffffffffffffffffff021916908373ffffffffffffffffffffffffffffffffffffffff160217905550808273ffffffffffffffffffffffffffffffffffffffff168473ffffffffffffffffffffffffffffffffffffffff167fddf252ad1be2c89b69c2b068fc378daa952ba7f163c4a11628f55a4df523b3ef60405160405180910390a4505050565b6000600760009054906101000a900473ffffffffffffffffffffffffffffffffffffffff16905081600760006101000a81548173ffffffffffffffffffffffffffffffffffffffff021916908373ffffffffffffffffffffffffffffffffffffffff1602179055508173ffffffffffffffffffffffffffffffffffffffff168173ffffffffffffffffffffffffffffffffffffffff167f8be0079c531659141344cd1fd0a4f28419497f9722a3daafe3b4186f6b6457e060405160405180910390a35050565b6120ba848484611d8d565b6120c68484848461249d565b612105576040517f08c379a00000000000000000000000000000000000000000000000000000000081526004016120fc90613c86565b60405180910390fd5b50505050565b606060405180602001604052806000815250905090565b606061212d82611b82565b61216c576040517f08c379a000000000000000000000000000000000000000000000000000000000815260040161216390613d18565b60405180910390fd5b600061217661210b565b9050600081511161219657604051806020016040528060008152506121c1565b806121a084612634565b6040516020016121b19291906139a8565b6040516020818303038152906040525b915050919050565b6001816000016000828254019250508190555050565b600081600001549050919050565b600073ffffffffffffffffffffffffffffffffffffffff168273ffffffffffffffffffffffffffffffffffffffff16141561225d576040517f08c379a000000000000000000000000000000000000000000000000000000000815260040161225490613d84565b60405180910390fd5b61226681611b82565b156122a6576040517f08c379a000000000000000000000000000000000000000000000000000000000815260040161229d90613df0565b60405180910390fd5b6122b260008383612498565b6001600360008473ffffffffffffffffffffffffffffffffffffffff1673ffffffffffffffffffffffffffffffffffffffff168152602001908152602001600020600082825461230291906134de565b92505081905550816002600083815260200190815260200160002060006101000a81548173ffffffffffffffffffffffffffffffffffffffff021916908373ffffffffffffffffffffffffffffffffffffffff160217905550808273ffffffffffffffffffffffffffffffffffffffff16600073ffffffffffffffffffffffffffffffffffffffff167fddf252ad1be2c89b69c2b068fc378daa952ba7f163c4a11628f55a4df523b3ef60405160405180910390a45050565b6123c482611b82565b612403576040517f08c379a00000000000000000000000000000000000000000000000000000000081526004016123fa90613e82565b60405180910390fd5b8060066000848152602001908152602001600020908051906020019061242a9291906127a8565b505050565b601460003373ffffffffffffffffffffffffffffffffffffffff1673ffffffffffffffffffffffffffffffffffffffff16815260200190815260200160002081908060018154018082558091505060019003906000526020600020016000909190919091505550565b505050565b60006124be8473ffffffffffffffffffffffffffffffffffffffff16612795565b15612627578373ffffffffffffffffffffffffffffffffffffffff1663150b7a026124e7611bee565b8786866040518563ffffffff1660e01b81526004016125099493929190613ef7565b602060405180830381600087803b15801561252357600080fd5b505af192505050801561255457506040513d601f19601f820116820180604052508101906125519190613f58565b60015b6125d7573d8060008114612584576040519150601f19603f3d011682016040523d82523d6000602084013e612589565b606091505b506000815114156125cf576040517f08c379a00000000000000000000000000000000000000000000000000000000081526004016125c690613c86565b60405180910390fd5b805181602001fd5b63150b7a0260e01b7bffffffffffffffffffffffffffffffffffffffffffffffffffffffff1916817bffffffffffffffffffffffffffffffffffffffffffffffffffffffff19161491505061262c565b600190505b949350505050565b6060600082141561267c576040518060400160405280600181526020017f30000000000000000000000000000000000000000000000000000000000000008152509050612790565b600082905060005b600082146126ae57808061269790613825565b915050600a826126a79190613fb4565b9150612684565b60008167ffffffffffffffff8111156126ca576126c9612ced565b5b6040519080825280601f01601f1916602001820160405280156126fc5781602001600182028036833780820191505090505b5090505b60008514612789576001826127159190613534565b9150600a856127249190613fe5565b603061273091906134de565b60f81b818381518110612746576127456137f6565b5b60200101907effffffffffffffffffffffffffffffffffffffffffffffffffffffffffffff1916908160001a905350600a856127829190613fb4565b9450612700565b8093505050505b919050565b600080823b905060008111915050919050565b8280546127b4906131ef565b90600052602060002090601f0160209004810192826127d6576000855561281d565b82601f106127ef57805160ff191683800117855561281d565b8280016001018555821561281d579182015b8281111561281c578251825591602001919060010190612801565b5b50905061282a919061282e565b5090565b5b8082111561284757600081600090555060010161282f565b5090565b600073ffffffffffffffffffffffffffffffffffffffff82169050919050565b60006128768261284b565b9050919050565b6128868161286b565b82525050565b6000819050919050565b61289f8161288c565b82525050565b60006040820190506128ba600083018561287d565b6128c76020830184612896565b9392505050565b6000604051905090565b600080fd5b600080fd5b60007fffffffff0000000000000000000000000000000000000000000000000000000082169050919050565b612917816128e2565b811461292257600080fd5b50565b6000813590506129348161290e565b92915050565b6000602082840312156129505761294f6128d8565b5b600061295e84828501612925565b91505092915050565b60008115159050919050565b61297c81612967565b82525050565b60006020820190506129976000830184612973565b92915050565b600081519050919050565b600082825260208201905092915050565b60005b838110156129d75780820151818401526020810190506129bc565b838111156129e6576000848401525b50505050565b6000601f19601f8301169050919050565b6000612a088261299d565b612a1281856129a8565b9350612a228185602086016129b9565b612a2b816129ec565b840191505092915050565b60006020820190508181036000830152612a5081846129fd565b905092915050565b612a618161288c565b8114612a6c57600080fd5b50565b600081359050612a7e81612a58565b92915050565b600060208284031215612a9a57612a996128d8565b5b6000612aa884828501612a6f565b91505092915050565b6000602082019050612ac6600083018461287d565b92915050565b612ad58161286b565b8114612ae057600080fd5b50565b600081359050612af281612acc565b92915050565b60008060408385031215612b0f57612b0e6128d8565b5b6000612b1d85828601612ae3565b9250506020612b2e85828601612a6f565b9150509250929050565b6000612b438261284b565b9050919050565b612b5381612b38565b8114612b5e57600080fd5b50565b600081359050612b7081612b4a565b92915050565b60008060408385031215612b8d57612b8c6128d8565b5b6000612b9b85828601612b61565b9250506020612bac85828601612a6f565b9150509250929050565b6000602082019050612bcb6000830184612896565b92915050565b600080600060608486031215612bea57612be96128d8565b5b6000612bf886828701612ae3565b9350506020612c0986828701612ae3565b9250506040612c1a86828701612a6f565b9150509250925092565b600060208284031215612c3a57612c396128d8565b5b6000612c4884828501612ae3565b91505092915050565b7f4e487b7100000000000000000000000000000000000000000000000000000000600052602160045260246000fd5b60028110612c9157612c90612c51565b5b50565b6000819050612ca282612c80565b919050565b6000612cb282612c94565b9050919050565b612cc281612ca7565b82525050565b6000602082019050612cdd6000830184612cb9565b92915050565b600080fd5b600080fd5b7f4e487b7100000000000000000000000000000000000000000000000000000000600052604160045260246000fd5b612d25826129ec565b810181811067ffffffffffffffff82111715612d4457612d43612ced565b5b80604052505050565b6000612d576128ce565b9050612d638282612d1c565b919050565b600067ffffffffffffffff821115612d8357612d82612ced565b5b612d8c826129ec565b9050602081019050919050565b82818337600083830152505050565b6000612dbb612db684612d68565b612d4d565b905082815260208101848484011115612dd757612dd6612ce8565b5b612de2848285612d99565b509392505050565b600082601f830112612dff57612dfe612ce3565b5b8135612e0f848260208601612da8565b91505092915050565b600080600060608486031215612e3157612e306128d8565b5b6000612e3f86828701612ae3565b935050602084013567ffffffffffffffff811115612e6057612e5f6128dd565b5b612e6c86828701612dea565b9250506040612e7d86828701612a6f565b9150509250925092565b600081519050919050565b600082825260208201905092915050565b6000819050602082019050919050565b612ebc8161288c565b82525050565b6000612ece8383612eb3565b60208301905092915050565b6000602082019050919050565b6000612ef282612e87565b612efc8185612e92565b9350612f0783612ea3565b8060005b83811015612f38578151612f1f8882612ec2565b9750612f2a83612eda565b925050600181019050612f0b565b5085935050505092915050565b60006020820190508181036000830152612f5f8184612ee7565b905092915050565b612f7081612967565b8114612f7b57600080fd5b50565b600081359050612f8d81612f67565b92915050565b60008060408385031215612faa57612fa96128d8565b5b6000612fb885828601612ae3565b9250506020612fc985828601612f7e565b9150509250929050565b600060208284031215612fe957612fe86128d8565b5b6000612ff784828501612f7e565b91505092915050565b600067ffffffffffffffff82111561301b5761301a612ced565b5b613024826129ec565b9050602081019050919050565b600061304461303f84613000565b612d4d565b9050828152602081018484840111156130605761305f612ce8565b5b61306b848285612d99565b509392505050565b600082601f83011261308857613087612ce3565b5b8135613098848260208601613031565b91505092915050565b600080600080608085870312156130bb576130ba6128d8565b5b60006130c987828801612ae3565b94505060206130da87828801612ae3565b93505060406130eb87828801612a6f565b925050606085013567ffffffffffffffff81111561310c5761310b6128dd565b5b61311887828801613073565b91505092959194509250565b6000806040838503121561313b5761313a6128d8565b5b600061314985828601612ae3565b925050602083013567ffffffffffffffff81111561316a576131696128dd565b5b61317685828601612dea565b9150509250929050565b60008060408385031215613197576131966128d8565b5b60006131a585828601612ae3565b92505060206131b685828601612ae3565b9150509250929050565b7f4e487b7100000000000000000000000000000000000000000000000000000000600052602260045260246000fd5b6000600282049050600182168061320757607f821691505b6020821081141561321b5761321a6131c0565b5b50919050565b7f4552433732313a20617070726f76656420717565727920666f72206e6f6e657860008201527f697374656e7420746f6b656e0000000000000000000000000000000000000000602082015250565b600061327d602c836129a8565b915061328882613221565b604082019050919050565b600060208201905081810360008301526132ac81613270565b9050919050565b7f4552433732313a20617070726f76616c20746f2063757272656e74206f776e6560008201527f7200000000000000000000000000000000000000000000000000000000000000602082015250565b600061330f6021836129a8565b915061331a826132b3565b604082019050919050565b6000602082019050818103600083015261333e81613302565b9050919050565b7f4552433732313a20617070726f76652063616c6c6572206973206e6f74206f7760008201527f6e6572206e6f7220617070726f76656420666f7220616c6c0000000000000000602082015250565b60006133a16038836129a8565b91506133ac82613345565b604082019050919050565b600060208201905081810360008301526133d081613394565b9050919050565b7f4f776e61626c653a2063616c6c6572206973206e6f7420746865206f776e6572600082015250565b600061340d6020836129a8565b9150613418826133d7565b602082019050919050565b6000602082019050818103600083015261343c81613400565b9050919050565b7f4e6f7420656e6f7567682062616c616e636520746f2073656e64210000000000600082015250565b6000613479601b836129a8565b915061348482613443565b602082019050919050565b600060208201905081810360008301526134a88161346c565b9050919050565b7f4e487b7100000000000000000000000000000000000000000000000000000000600052601160045260246000fd5b60006134e98261288c565b91506134f48361288c565b9250827fffffffffffffffffffffffffffffffffffffffffffffffffffffffffffffffff03821115613529576135286134af565b5b828201905092915050565b600061353f8261288c565b915061354a8361288c565b92508282101561355d5761355c6134af565b5b828203905092915050565b7f4552433732313a207472616e736665722063616c6c6572206973206e6f74206f60008201527f776e6572206e6f7220617070726f766564000000000000000000000000000000602082015250565b60006135c46031836129a8565b91506135cf82613568565b604082019050919050565b600060208201905081810360008301526135f3816135b7565b9050919050565b7f4552433732313a206f776e657220717565727920666f72206e6f6e657869737460008201527f656e7420746f6b656e0000000000000000000000000000000000000000000000602082015250565b60006136566029836129a8565b9150613661826135fa565b604082019050919050565b6000602082019050818103600083015261368581613649565b9050919050565b7f4552433732313a2062616c616e636520717565727920666f7220746865207a6560008201527f726f206164647265737300000000000000000000000000000000000000000000602082015250565b60006136e8602a836129a8565b91506136f38261368c565b604082019050919050565b60006020820190508181036000830152613717816136db565b9050919050565b7f53616c65206973206e6f74207374617274656420796574210000000000000000600082015250565b60006137546018836129a8565b915061375f8261371e565b602082019050919050565b6000602082019050818103600083015261378381613747565b9050919050565b7f50726573616c65206973206e6f74207374617274656420796574210000000000600082015250565b60006137c0601b836129a8565b91506137cb8261378a565b602082019050919050565b600060208201905081810360008301526137ef816137b3565b9050919050565b7f4e487b7100000000000000000000000000000000000000000000000000000000600052603260045260246000fd5b60006138308261288c565b91507fffffffffffffffffffffffffffffffffffffffffffffffffffffffffffffffff821415613863576138626134af565b5b600182019050919050565b7f4552433732313a20617070726f766520746f2063616c6c657200000000000000600082015250565b60006138a46019836129a8565b91506138af8261386e565b602082019050919050565b600060208201905081810360008301526138d381613897565b9050919050565b7f45524337323155524953746f726167653a2055524920717565727920666f722060008201527f6e6f6e6578697374656e7420746f6b656e000000000000000000000000000000602082015250565b60006139366031836129a8565b9150613941826138da565b604082019050919050565b6000602082019050818103600083015261396581613929565b9050919050565b600081905092915050565b60006139828261299d565b61398c818561396c565b935061399c8185602086016129b9565b80840191505092915050565b60006139b48285613977565b91506139c08284613977565b91508190509392505050565b7f4f776e61626c653a206e6577206f776e657220697320746865207a65726f206160008201527f6464726573730000000000000000000000000000000000000000000000000000602082015250565b6000613a286026836129a8565b9150613a33826139cc565b604082019050919050565b60006020820190508181036000830152613a5781613a1b565b9050919050565b7f4552433732313a206f70657261746f7220717565727920666f72206e6f6e657860008201527f697374656e7420746f6b656e0000000000000000000000000000000000000000602082015250565b6000613aba602c836129a8565b9150613ac582613a5e565b604082019050919050565b60006020820190508181036000830152613ae981613aad565b9050919050565b7f4552433732313a207472616e73666572206f6620746f6b656e2074686174206960008201527f73206e6f74206f776e0000000000000000000000000000000000000000000000602082015250565b6000613b4c6029836129a8565b9150613b5782613af0565b604082019050919050565b60006020820190508181036000830152613b7b81613b3f565b9050919050565b7f4552433732313a207472616e7366657220746f20746865207a65726f2061646460008201527f7265737300000000000000000000000000000000000000000000000000000000602082015250565b6000613bde6024836129a8565b9150613be982613b82565b604082019050919050565b60006020820190508181036000830152613c0d81613bd1565b9050919050565b7f4552433732313a207472616e7366657220746f206e6f6e20455243373231526560008201527f63656976657220696d706c656d656e7465720000000000000000000000000000602082015250565b6000613c706032836129a8565b9150613c7b82613c14565b604082019050919050565b60006020820190508181036000830152613c9f81613c63565b9050919050565b7f4552433732314d657461646174613a2055524920717565727920666f72206e6f60008201527f6e6578697374656e7420746f6b656e0000000000000000000000000000000000602082015250565b6000613d02602f836129a8565b9150613d0d82613ca6565b604082019050919050565b60006020820190508181036000830152613d3181613cf5565b9050919050565b7f4552433732313a206d696e7420746f20746865207a65726f2061646472657373600082015250565b6000613d6e6020836129a8565b9150613d7982613d38565b602082019050919050565b60006020820190508181036000830152613d9d81613d61565b9050919050565b7f4552433732313a20746f6b656e20616c7265616479206d696e74656400000000600082015250565b6000613dda601c836129a8565b9150613de582613da4565b602082019050919050565b60006020820190508181036000830152613e0981613dcd565b9050919050565b7f45524337323155524953746f726167653a2055524920736574206f66206e6f6e60008201527f6578697374656e7420746f6b656e000000000000000000000000000000000000602082015250565b6000613e6c602e836129a8565b9150613e7782613e10565b604082019050919050565b60006020820190508181036000830152613e9b81613e5f565b9050919050565b600081519050919050565b600082825260208201905092915050565b6000613ec982613ea2565b613ed38185613ead565b9350613ee38185602086016129b9565b613eec816129ec565b840191505092915050565b6000608082019050613f0c600083018761287d565b613f19602083018661287d565b613f266040830185612896565b8181036060830152613f388184613ebe565b905095945050505050565b600081519050613f528161290e565b92915050565b600060208284031215613f6e57613f6d6128d8565b5b6000613f7c84828501613f43565b91505092915050565b7f4e487b7100000000000000000000000000000000000000000000000000000000600052601260045260246000fd5b6000613fbf8261288c565b9150613fca8361288c565b925082613fda57613fd9613f85565b5b828204905092915050565b6000613ff08261288c565b9150613ffb8361288c565b92508261400b5761400a613f85565b5b82820690509291505056fea2646970667358221220073037428f65c665ef3f1f7698092d3d30c03c69c60c08d6fe50babd29cec3b764736f6c6343000809003368747470733a2f2f676174657761792e70696e6174612e636c6f75642f697066732f516d6350396878726e433154354154506d713273614665414d317970465839426e41737743644842394a436a4c412f",
  "immutableReferences": {},
  "source": "pragma solidity ^0.8.2;\nimport \"@openzeppelin/contracts/access/Ownable.sol\";\nimport \"@openzeppelin/contracts/utils/Counters.sol\";\nimport \"@openzeppelin/contracts/token/ERC721/ERC721.sol\";\nimport \"@openzeppelin/contracts/token/ERC721/extensions/ERC721URIStorage.sol\";\n\nstruct Investors {\n    address addr;\n    uint256 percentage;\n    string tokenId;\n}\n\ncontract CozyHome is ERC721URIStorage, Ownable {\n    using Counters for Counters.Counter;\n    Counters.Counter private _tokenIds;\n\n    uint256 public flor_price_pre_sale = 0.3 ether;\n    uint256 public max_pre_sale_purchase = 3;\n    uint256 public total_first_mintable = 6800;\n    uint256 public max_pre_sale_quantity = 1000;\n    uint256 public maxAllowableMintPresale = 3;\n    string private baseURI =\n        \"https://gateway.pinata.cloud/ipfs/QmcP9hxrnC1T5ATPmq2saFeAM1ypFX9BnAswCdHB9JCjLA/\";\n\n    bool public preSale = false;\n\n    Investors private investorsInheritance;\n\n    mapping(uint256 => address) public firstOwners;\n\n    mapping(address => uint256[]) private mintOwners;\n\n    enum State {\n        Open,\n        Closed\n    }\n\n    State public saleState = State.Open;\n\n    constructor(uint256 _percent) ERC721(\"CozyHome\", \"NFT\") {\n        // contract owner will have the first place to set inheritence percentage\n        // this number will be fixed for the contract like 0.05\n        // investorsInheritance.addr = msg.sender;\n        // investorsInheritance.percentage = _percent;\n    }\n\n    event Received(address, uint256);\n\n    fallback() external payable {}\n\n    receive() external payable {\n        emit Received(msg.sender, msg.value);\n    }\n\n    function changePreSaleState(bool _status) public onlyOwner {\n        preSale = _status;\n    }\n\n    function setInheritence(uint256 _buyer, uint256 _percent) private {\n        investorsInheritance.addr = msg.sender;\n        investorsInheritance.percentage = _percent;\n    }\n\n    function changeFlorPrice(uint256 _new_price) public onlyOwner {\n        flor_price_pre_sale = _new_price;\n    }\n\n    function changeSaleState(uint256 _input) public onlyOwner {\n        if (_input == 0) {\n            saleState = State.Closed;\n        } else {\n            saleState = State.Open;\n        }\n    }\n\n    function minterAdd(uint256 nftid) private {\n        mintOwners[msg.sender].push(nftid);\n    }\n\n    function getSaleState() public view returns (State) {\n        return saleState;\n    }\n\n    function mintCollectedAllowed(address _recipient)\n        public\n        view\n        returns (bool)\n    {\n        if (mintOwners[_recipient].length <= maxAllowableMintPresale) {\n            return true;\n        } else {\n            return false;\n        }\n    }\n\n    function getNumberOfCollected(address _recipient)\n        public\n        view\n        returns (uint256)\n    {\n        return mintOwners[_recipient].length;\n    }\n\n    function numberOfMintable(address _recipient, uint256 _quantity)\n        public\n        view\n        returns (uint256)\n    {\n        uint256 number_of_collected = getNumberOfCollected(_recipient);\n        if ((_quantity + number_of_collected) <= maxAllowableMintPresale) {\n            return (_quantity - number_of_collected);\n        } else {\n            if (_quantity > maxAllowableMintPresale) {\n                return (maxAllowableMintPresale - number_of_collected);\n            } else {\n                return 0;\n            }\n        }\n    }\n\n    function mintNow(address _recipient, string memory _tokenURI)\n        public\n        returns (uint256)\n    {\n        _tokenIds.increment();\n        uint256 newItemId = _tokenIds.current();\n        _mint(_recipient, newItemId);\n        _setTokenURI(newItemId, _tokenURI);\n        firstOwners[newItemId] = payable(_recipient);\n        minterAdd(newItemId);\n        return newItemId;\n    }\n\n    modifier saleStateCheck() {\n        require(saleState == State.Open, \"Sale is not started yet!\");\n        _;\n    }\n\n    modifier preSaleCheck() {\n        require(preSale == true, \"Presale is not started yet!\");\n        _;\n    }\n\n    function preSaleMint(\n        address _recipient,\n        string memory _tokenURI,\n        uint256 _quantity\n    ) public saleStateCheck preSaleCheck returns (uint256[] memory) {\n        if (\n            mintCollectedAllowed(_recipient) &&\n            maxAllowableMintPresale >= _quantity\n        ) {\n            uint256[] memory mintedItems;\n            for (\n                uint256 i = 1;\n                i < numberOfMintable(_recipient, _quantity);\n                i++\n            ) {\n                uint256 newItemId = mintNow(_recipient, _tokenURI);\n                mintedItems[i] = (newItemId);\n            }\n            return mintedItems;\n        } else {}\n    }\n\n    function getWalletBalance() public view onlyOwner returns (uint256) {\n        return address(this).balance;\n    }\n\n    modifier sendableAmountCheck(uint256 _amount) {\n        require(_amount <= getWalletBalance(), \"Not enough balance to send!\");\n        _;\n    }\n\n    function transferContractBalance(\n        address payable _recipient,\n        uint256 _amount\n    ) public onlyOwner sendableAmountCheck(_amount) returns (bool) {\n        _recipient.transfer(_amount);\n        return true;\n    }\n}\n",
  "sourcePath": "/Users/akinipek/CozyContract/cozycontract2/contracts/CozyHome.sol",
  "compiler": {
    "name": "solc",
    "version": "0.8.9+commit.e5eed63a.Emscripten.clang"
  },
  "schemaVersion": "3.4.3",
  "updatedAt": "2021-11-09T22:55:24.814Z",
  "networkType": "ethereum",
  "devdoc": {
    "kind": "dev",
    "methods": {
      "approve(address,uint256)": {
        "details": "See {IERC721-approve}."
      },
      "balanceOf(address)": {
        "details": "See {IERC721-balanceOf}."
      },
      "getApproved(uint256)": {
        "details": "See {IERC721-getApproved}."
      },
      "isApprovedForAll(address,address)": {
        "details": "See {IERC721-isApprovedForAll}."
      },
      "name()": {
        "details": "See {IERC721Metadata-name}."
      },
      "owner()": {
        "details": "Returns the address of the current owner."
      },
      "ownerOf(uint256)": {
        "details": "See {IERC721-ownerOf}."
      },
      "renounceOwnership()": {
        "details": "Leaves the contract without owner. It will not be possible to call `onlyOwner` functions anymore. Can only be called by the current owner. NOTE: Renouncing ownership will leave the contract without an owner, thereby removing any functionality that is only available to the owner."
      },
      "safeTransferFrom(address,address,uint256)": {
        "details": "See {IERC721-safeTransferFrom}."
      },
      "safeTransferFrom(address,address,uint256,bytes)": {
        "details": "See {IERC721-safeTransferFrom}."
      },
      "setApprovalForAll(address,bool)": {
        "details": "See {IERC721-setApprovalForAll}."
      },
      "supportsInterface(bytes4)": {
        "details": "See {IERC165-supportsInterface}."
      },
      "symbol()": {
        "details": "See {IERC721Metadata-symbol}."
      },
      "tokenURI(uint256)": {
        "details": "See {IERC721Metadata-tokenURI}."
      },
      "transferFrom(address,address,uint256)": {
        "details": "See {IERC721-transferFrom}."
      },
      "transferOwnership(address)": {
        "details": "Transfers ownership of the contract to a new account (`newOwner`). Can only be called by the current owner."
      }
    },
    "version": 1
  },
  "userdoc": {
    "kind": "user",
    "methods": {},
    "version": 1
  }
}